{
	"contracts/PatentRegistry.sol": {
		"PatentRegistry": {
			"abi": [
				{
					"inputs": [],
					"stateMutability": "nonpayable",
					"type": "constructor"
				},
				{
					"anonymous": false,
					"inputs": [
						{
							"indexed": true,
							"internalType": "uint256",
							"name": "patentId",
							"type": "uint256"
						},
						{
							"indexed": true,
							"internalType": "address",
							"name": "owner",
							"type": "address"
						},
						{
							"indexed": false,
							"internalType": "string",
							"name": "title",
							"type": "string"
						},
						{
							"indexed": false,
							"internalType": "string",
							"name": "ipfsHash",
							"type": "string"
						}
					],
					"name": "PatentFiled",
					"type": "event"
				},
				{
					"anonymous": false,
					"inputs": [
						{
							"indexed": true,
							"internalType": "address",
							"name": "officer",
							"type": "address"
						},
						{
							"indexed": false,
							"internalType": "string",
							"name": "name",
							"type": "string"
						}
					],
					"name": "PatentOfficerAdded",
					"type": "event"
				},
				{
					"anonymous": false,
					"inputs": [
						{
							"indexed": true,
							"internalType": "address",
							"name": "officer",
							"type": "address"
						}
					],
					"name": "PatentOfficerRemoved",
					"type": "event"
				},
				{
					"anonymous": false,
					"inputs": [
						{
							"indexed": true,
							"internalType": "uint256",
							"name": "patentId",
							"type": "uint256"
						},
						{
							"indexed": false,
							"internalType": "enum PatentRegistry.PatentStatus",
							"name": "newStatus",
							"type": "uint8"
						}
					],
					"name": "PatentStatusUpdated",
					"type": "event"
				},
				{
					"inputs": [],
					"name": "FILING_FEE",
					"outputs": [
						{
							"internalType": "uint256",
							"name": "",
							"type": "uint256"
						}
					],
					"stateMutability": "view",
					"type": "function"
				},
				{
					"inputs": [],
					"name": "PATENT_VALIDITY_PERIOD",
					"outputs": [
						{
							"internalType": "uint256",
							"name": "",
							"type": "uint256"
						}
					],
					"stateMutability": "view",
					"type": "function"
				},
				{
					"inputs": [
						{
							"internalType": "address",
							"name": "_officer",
							"type": "address"
						},
						{
							"internalType": "string",
							"name": "_name",
							"type": "string"
						}
					],
					"name": "addPatentOfficer",
					"outputs": [],
					"stateMutability": "nonpayable",
					"type": "function"
				},
				{
					"inputs": [],
					"name": "admin",
					"outputs": [
						{
							"internalType": "address",
							"name": "",
							"type": "address"
						}
					],
					"stateMutability": "view",
					"type": "function"
				},
				{
					"inputs": [
						{
							"internalType": "string",
							"name": "_title",
							"type": "string"
						},
						{
							"internalType": "string",
							"name": "_description",
							"type": "string"
						},
						{
							"internalType": "string",
							"name": "_ipfsHash",
							"type": "string"
						},
						{
							"internalType": "string[]",
							"name": "_keywords",
							"type": "string[]"
						}
					],
					"name": "filePatent",
					"outputs": [],
					"stateMutability": "payable",
					"type": "function"
				},
				{
					"inputs": [
						{
							"internalType": "uint256",
							"name": "_patentId",
							"type": "uint256"
						}
					],
					"name": "getPatent",
					"outputs": [
						{
							"components": [
								{
									"internalType": "uint256",
									"name": "id",
									"type": "uint256"
								},
								{
									"internalType": "address",
									"name": "owner",
									"type": "address"
								},
								{
									"internalType": "string",
									"name": "ipfsHash",
									"type": "string"
								},
								{
									"internalType": "string",
									"name": "title",
									"type": "string"
								},
								{
									"internalType": "string",
									"name": "description",
									"type": "string"
								},
								{
									"internalType": "uint256",
									"name": "filingDate",
									"type": "uint256"
								},
								{
									"internalType": "enum PatentRegistry.PatentStatus",
									"name": "status",
									"type": "uint8"
								},
								{
									"internalType": "string[]",
									"name": "keywords",
									"type": "string[]"
								},
								{
									"internalType": "uint256",
									"name": "expiryDate",
									"type": "uint256"
								}
							],
							"internalType": "struct PatentRegistry.Patent",
							"name": "",
							"type": "tuple"
						}
					],
					"stateMutability": "view",
					"type": "function"
				},
				{
					"inputs": [
						{
							"internalType": "address",
							"name": "_user",
							"type": "address"
						}
					],
					"name": "getUserPatents",
					"outputs": [
						{
							"internalType": "uint256[]",
							"name": "",
							"type": "uint256[]"
						}
					],
					"stateMutability": "view",
					"type": "function"
				},
				{
					"inputs": [
						{
							"internalType": "address",
							"name": "_address",
							"type": "address"
						}
					],
					"name": "isPatentOfficer",
					"outputs": [
						{
							"internalType": "bool",
							"name": "",
							"type": "bool"
						}
					],
					"stateMutability": "view",
					"type": "function"
				},
				{
					"inputs": [],
					"name": "patentCount",
					"outputs": [
						{
							"internalType": "uint256",
							"name": "",
							"type": "uint256"
						}
					],
					"stateMutability": "view",
					"type": "function"
				},
				{
					"inputs": [
						{
							"internalType": "address",
							"name": "",
							"type": "address"
						}
					],
					"name": "patentOfficers",
					"outputs": [
						{
							"internalType": "bool",
							"name": "isActive",
							"type": "bool"
						},
						{
							"internalType": "string",
							"name": "name",
							"type": "string"
						},
						{
							"internalType": "uint256",
							"name": "appointmentDate",
							"type": "uint256"
						}
					],
					"stateMutability": "view",
					"type": "function"
				},
				{
					"inputs": [
						{
							"internalType": "uint256",
							"name": "",
							"type": "uint256"
						}
					],
					"name": "patents",
					"outputs": [
						{
							"internalType": "uint256",
							"name": "id",
							"type": "uint256"
						},
						{
							"internalType": "address",
							"name": "owner",
							"type": "address"
						},
						{
							"internalType": "string",
							"name": "ipfsHash",
							"type": "string"
						},
						{
							"internalType": "string",
							"name": "title",
							"type": "string"
						},
						{
							"internalType": "string",
							"name": "description",
							"type": "string"
						},
						{
							"internalType": "uint256",
							"name": "filingDate",
							"type": "uint256"
						},
						{
							"internalType": "enum PatentRegistry.PatentStatus",
							"name": "status",
							"type": "uint8"
						},
						{
							"internalType": "uint256",
							"name": "expiryDate",
							"type": "uint256"
						}
					],
					"stateMutability": "view",
					"type": "function"
				},
				{
					"inputs": [
						{
							"internalType": "address",
							"name": "_officer",
							"type": "address"
						}
					],
					"name": "removePatentOfficer",
					"outputs": [],
					"stateMutability": "nonpayable",
					"type": "function"
				},
				{
					"inputs": [
						{
							"internalType": "uint256",
							"name": "_newFee",
							"type": "uint256"
						}
					],
					"name": "updateFilingFee",
					"outputs": [],
					"stateMutability": "nonpayable",
					"type": "function"
				},
				{
					"inputs": [
						{
							"internalType": "uint256",
							"name": "_patentId",
							"type": "uint256"
						},
						{
							"internalType": "enum PatentRegistry.PatentStatus",
							"name": "_newStatus",
							"type": "uint8"
						}
					],
					"name": "updatePatentStatus",
					"outputs": [],
					"stateMutability": "nonpayable",
					"type": "function"
				},
				{
					"inputs": [
						{
							"internalType": "address",
							"name": "",
							"type": "address"
						},
						{
							"internalType": "uint256",
							"name": "",
							"type": "uint256"
						}
					],
					"name": "userPatents",
					"outputs": [
						{
							"internalType": "uint256",
							"name": "",
							"type": "uint256"
						}
					],
					"stateMutability": "view",
					"type": "function"
				},
				{
					"inputs": [],
					"name": "withdrawFees",
					"outputs": [],
					"stateMutability": "nonpayable",
					"type": "function"
				}
			],
			"devdoc": {
				"kind": "dev",
				"methods": {},
				"version": 1
			},
			"evm": {
				"assembly": "    /* \"contracts/PatentRegistry.sol\":60:4597  contract PatentRegistry {... */\n  mstore(0x40, 0x80)\n    /* \"contracts/PatentRegistry.sol\":938:947  0.1 ether */\n  0x016345785d8a0000\n    /* \"contracts/PatentRegistry.sol\":910:947  uint256 public FILING_FEE = 0.1 ether */\n  0x05\n  sstore\n    /* \"contracts/PatentRegistry.sol\":1831:1882  constructor() {... */\n  callvalue\n  dup1\n  iszero\n  tag_1\n  jumpi\n  0x00\n  dup1\n  revert\ntag_1:\n  pop\n    /* \"contracts/PatentRegistry.sol\":1864:1874  msg.sender */\n  caller\n    /* \"contracts/PatentRegistry.sol\":1856:1861  admin */\n  0x04\n  0x00\n    /* \"contracts/PatentRegistry.sol\":1856:1874  admin = msg.sender */\n  0x0100\n  exp\n  dup2\n  sload\n  dup2\n  0xffffffffffffffffffffffffffffffffffffffff\n  mul\n  not\n  and\n  swap1\n  dup4\n  0xffffffffffffffffffffffffffffffffffffffff\n  and\n  mul\n  or\n  swap1\n  sstore\n  pop\n    /* \"contracts/PatentRegistry.sol\":60:4597  contract PatentRegistry {... */\n  dataSize(sub_0)\n  dup1\n  dataOffset(sub_0)\n  0x00\n  codecopy\n  0x00\n  return\nstop\n\nsub_0: assembly {\n        /* \"contracts/PatentRegistry.sol\":60:4597  contract PatentRegistry {... */\n      mstore(0x40, 0x80)\n      jumpi(tag_1, lt(calldatasize, 0x04))\n      shr(0xe0, calldataload(0x00))\n      dup1\n      0x9c6d0d78\n      gt\n      tag_18\n      jumpi\n      dup1\n      0xce9011c3\n      gt\n      tag_19\n      jumpi\n      dup1\n      0xce9011c3\n      eq\n      tag_14\n      jumpi\n      dup1\n      0xe26becc2\n      eq\n      tag_15\n      jumpi\n      dup1\n      0xf422bc68\n      eq\n      tag_16\n      jumpi\n      dup1\n      0xf851a440\n      eq\n      tag_17\n      jumpi\n      jump(tag_1)\n    tag_19:\n      dup1\n      0x9c6d0d78\n      eq\n      tag_10\n      jumpi\n      dup1\n      0xb084c841\n      eq\n      tag_11\n      jumpi\n      dup1\n      0xc470e97e\n      eq\n      tag_12\n      jumpi\n      dup1\n      0xc79f25ca\n      eq\n      tag_13\n      jumpi\n      jump(tag_1)\n    tag_18:\n      dup1\n      0x3ec991fa\n      gt\n      tag_20\n      jumpi\n      dup1\n      0x3ec991fa\n      eq\n      tag_6\n      jumpi\n      dup1\n      0x476343ee\n      eq\n      tag_7\n      jumpi\n      dup1\n      0x8e5ebf53\n      eq\n      tag_8\n      jumpi\n      dup1\n      0x95aa3590\n      eq\n      tag_9\n      jumpi\n      jump(tag_1)\n    tag_20:\n      dup1\n      0x0ecae274\n      eq\n      tag_2\n      jumpi\n      dup1\n      0x1744afec\n      eq\n      tag_3\n      jumpi\n      dup1\n      0x18de52c8\n      eq\n      tag_4\n      jumpi\n      dup1\n      0x3c9e98f7\n      eq\n      tag_5\n      jumpi\n    tag_1:\n      0x00\n      dup1\n      revert\n        /* \"contracts/PatentRegistry.sol\":2820:3186  function updatePatentStatus(... */\n    tag_2:\n      callvalue\n      dup1\n      iszero\n      tag_21\n      jumpi\n      0x00\n      dup1\n      revert\n    tag_21:\n      pop\n      tag_22\n      0x04\n      dup1\n      calldatasize\n      sub\n      dup2\n      add\n      swap1\n      tag_23\n      swap2\n      swap1\n      tag_24\n      jump\t// in\n    tag_23:\n      tag_25\n      jump\t// in\n    tag_22:\n      stop\n        /* \"contracts/PatentRegistry.sol\":658:713  mapping(address => PatentOfficer) public patentOfficers */\n    tag_3:\n      callvalue\n      dup1\n      iszero\n      tag_26\n      jumpi\n      0x00\n      dup1\n      revert\n    tag_26:\n      pop\n      tag_27\n      0x04\n      dup1\n      calldatasize\n      sub\n      dup2\n      add\n      swap1\n      tag_28\n      swap2\n      swap1\n      tag_29\n      jump\t// in\n    tag_28:\n      tag_30\n      jump\t// in\n    tag_27:\n      mload(0x40)\n      tag_31\n      swap4\n      swap3\n      swap2\n      swap1\n      tag_32\n      jump\t// in\n    tag_31:\n      mload(0x40)\n      dup1\n      swap2\n      sub\n      swap1\n      return\n        /* \"contracts/PatentRegistry.sol\":3628:3889  function removePatentOfficer(address _officer) external onlyAdmin {... */\n    tag_4:\n      callvalue\n      dup1\n      iszero\n      tag_33\n      jumpi\n      0x00\n      dup1\n      revert\n    tag_33:\n      pop\n      tag_34\n      0x04\n      dup1\n      calldatasize\n      sub\n      dup2\n      add\n      swap1\n      tag_35\n      swap2\n      swap1\n      tag_29\n      jump\t// in\n    tag_35:\n      tag_36\n      jump\t// in\n    tag_34:\n      stop\n        /* \"contracts/PatentRegistry.sol\":4494:4594  function updateFilingFee(uint256 _newFee) external onlyAdmin {... */\n    tag_5:\n      callvalue\n      dup1\n      iszero\n      tag_37\n      jumpi\n      0x00\n      dup1\n      revert\n    tag_37:\n      pop\n      tag_38\n      0x04\n      dup1\n      calldatasize\n      sub\n      dup2\n      add\n      swap1\n      tag_39\n      swap2\n      swap1\n      tag_40\n      jump\t// in\n    tag_39:\n      tag_41\n      jump\t// in\n    tag_38:\n      stop\n        /* \"contracts/PatentRegistry.sol\":4215:4346  function isPatentOfficer(address _address) external view returns (bool) {... */\n    tag_6:\n      callvalue\n      dup1\n      iszero\n      tag_42\n      jumpi\n      0x00\n      dup1\n      revert\n    tag_42:\n      pop\n      tag_43\n      0x04\n      dup1\n      calldatasize\n      sub\n      dup2\n      add\n      swap1\n      tag_44\n      swap2\n      swap1\n      tag_29\n      jump\t// in\n    tag_44:\n      tag_45\n      jump\t// in\n    tag_43:\n      mload(0x40)\n      tag_46\n      swap2\n      swap1\n      tag_47\n      jump\t// in\n    tag_46:\n      mload(0x40)\n      dup1\n      swap2\n      sub\n      swap1\n      return\n        /* \"contracts/PatentRegistry.sol\":4378:4486  function withdrawFees() external onlyAdmin {... */\n    tag_7:\n      callvalue\n      dup1\n      iszero\n      tag_48\n      jumpi\n      0x00\n      dup1\n      revert\n    tag_48:\n      pop\n      tag_49\n      tag_50\n      jump\t// in\n    tag_49:\n      stop\n        /* \"contracts/PatentRegistry.sol\":841:903  uint256 public constant PATENT_VALIDITY_PERIOD = 10 * 365 days */\n    tag_8:\n      callvalue\n      dup1\n      iszero\n      tag_51\n      jumpi\n      0x00\n      dup1\n      revert\n    tag_51:\n      pop\n      tag_52\n      tag_53\n      jump\t// in\n    tag_52:\n      mload(0x40)\n      tag_54\n      swap2\n      swap1\n      tag_55\n      jump\t// in\n    tag_54:\n      mload(0x40)\n      dup1\n      swap2\n      sub\n      swap1\n      return\n        /* \"contracts/PatentRegistry.sol\":720:768  mapping(address => uint256[]) public userPatents */\n    tag_9:\n      callvalue\n      dup1\n      iszero\n      tag_56\n      jumpi\n      0x00\n      dup1\n      revert\n    tag_56:\n      pop\n      tag_57\n      0x04\n      dup1\n      calldatasize\n      sub\n      dup2\n      add\n      swap1\n      tag_58\n      swap2\n      swap1\n      tag_59\n      jump\t// in\n    tag_58:\n      tag_60\n      jump\t// in\n    tag_57:\n      mload(0x40)\n      tag_61\n      swap2\n      swap1\n      tag_55\n      jump\t// in\n    tag_61:\n      mload(0x40)\n      dup1\n      swap2\n      sub\n      swap1\n      return\n        /* \"contracts/PatentRegistry.sol\":3920:4075  function getPatent(uint256 _patentId) external view ... */\n    tag_10:\n      callvalue\n      dup1\n      iszero\n      tag_62\n      jumpi\n      0x00\n      dup1\n      revert\n    tag_62:\n      pop\n      tag_63\n      0x04\n      dup1\n      calldatasize\n      sub\n      dup2\n      add\n      swap1\n      tag_64\n      swap2\n      swap1\n      tag_40\n      jump\t// in\n    tag_64:\n      tag_65\n      jump\t// in\n    tag_63:\n      mload(0x40)\n      tag_66\n      swap2\n      swap1\n      tag_67\n      jump\t// in\n    tag_66:\n      mload(0x40)\n      dup1\n      swap2\n      sub\n      swap1\n      return\n        /* \"contracts/PatentRegistry.sol\":781:807  uint256 public patentCount */\n    tag_11:\n      callvalue\n      dup1\n      iszero\n      tag_68\n      jumpi\n      0x00\n      dup1\n      revert\n    tag_68:\n      pop\n      tag_69\n      tag_70\n      jump\t// in\n    tag_69:\n      mload(0x40)\n      tag_71\n      swap2\n      swap1\n      tag_55\n      jump\t// in\n    tag_71:\n      mload(0x40)\n      dup1\n      swap2\n      sub\n      swap1\n      return\n        /* \"contracts/PatentRegistry.sol\":1913:2812  function filePatent(... */\n    tag_12:\n      tag_72\n      0x04\n      dup1\n      calldatasize\n      sub\n      dup2\n      add\n      swap1\n      tag_73\n      swap2\n      swap1\n      tag_74\n      jump\t// in\n    tag_73:\n      tag_75\n      jump\t// in\n    tag_72:\n      stop\n        /* \"contracts/PatentRegistry.sol\":3194:3620  function addPatentOfficer(... */\n    tag_13:\n      callvalue\n      dup1\n      iszero\n      tag_76\n      jumpi\n      0x00\n      dup1\n      revert\n    tag_76:\n      pop\n      tag_77\n      0x04\n      dup1\n      calldatasize\n      sub\n      dup2\n      add\n      swap1\n      tag_78\n      swap2\n      swap1\n      tag_79\n      jump\t// in\n    tag_78:\n      tag_80\n      jump\t// in\n    tag_77:\n      stop\n        /* \"contracts/PatentRegistry.sol\":4083:4207  function getUserPatents(address _user) external view returns (uint256[] memory) {... */\n    tag_14:\n      callvalue\n      dup1\n      iszero\n      tag_81\n      jumpi\n      0x00\n      dup1\n      revert\n    tag_81:\n      pop\n      tag_82\n      0x04\n      dup1\n      calldatasize\n      sub\n      dup2\n      add\n      swap1\n      tag_83\n      swap2\n      swap1\n      tag_29\n      jump\t// in\n    tag_83:\n      tag_84\n      jump\t// in\n    tag_82:\n      mload(0x40)\n      tag_85\n      swap2\n      swap1\n      tag_86\n      jump\t// in\n    tag_85:\n      mload(0x40)\n      dup1\n      swap2\n      sub\n      swap1\n      return\n        /* \"contracts/PatentRegistry.sol\":910:947  uint256 public FILING_FEE = 0.1 ether */\n    tag_15:\n      callvalue\n      dup1\n      iszero\n      tag_87\n      jumpi\n      0x00\n      dup1\n      revert\n    tag_87:\n      pop\n      tag_88\n      tag_89\n      jump\t// in\n    tag_88:\n      mload(0x40)\n      tag_90\n      swap2\n      swap1\n      tag_55\n      jump\t// in\n    tag_90:\n      mload(0x40)\n      dup1\n      swap2\n      sub\n      swap1\n      return\n        /* \"contracts/PatentRegistry.sol\":610:651  mapping(uint256 => Patent) public patents */\n    tag_16:\n      callvalue\n      dup1\n      iszero\n      tag_91\n      jumpi\n      0x00\n      dup1\n      revert\n    tag_91:\n      pop\n      tag_92\n      0x04\n      dup1\n      calldatasize\n      sub\n      dup2\n      add\n      swap1\n      tag_93\n      swap2\n      swap1\n      tag_40\n      jump\t// in\n    tag_93:\n      tag_94\n      jump\t// in\n    tag_92:\n      mload(0x40)\n      tag_95\n      swap9\n      swap8\n      swap7\n      swap6\n      swap5\n      swap4\n      swap3\n      swap2\n      swap1\n      tag_96\n      jump\t// in\n    tag_95:\n      mload(0x40)\n      dup1\n      swap2\n      sub\n      swap1\n      return\n        /* \"contracts/PatentRegistry.sol\":814:834  address public admin */\n    tag_17:\n      callvalue\n      dup1\n      iszero\n      tag_97\n      jumpi\n      0x00\n      dup1\n      revert\n    tag_97:\n      pop\n      tag_98\n      tag_99\n      jump\t// in\n    tag_98:\n      mload(0x40)\n      tag_100\n      swap2\n      swap1\n      tag_101\n      jump\t// in\n    tag_100:\n      mload(0x40)\n      dup1\n      swap2\n      sub\n      swap1\n      return\n        /* \"contracts/PatentRegistry.sol\":2820:3186  function updatePatentStatus(... */\n    tag_25:\n        /* \"contracts/PatentRegistry.sol\":1547:1561  patentOfficers */\n      0x01\n        /* \"contracts/PatentRegistry.sol\":1547:1573  patentOfficers[msg.sender] */\n      0x00\n        /* \"contracts/PatentRegistry.sol\":1562:1572  msg.sender */\n      caller\n        /* \"contracts/PatentRegistry.sol\":1547:1573  patentOfficers[msg.sender] */\n      0xffffffffffffffffffffffffffffffffffffffff\n      and\n      0xffffffffffffffffffffffffffffffffffffffff\n      and\n      dup2\n      mstore\n      0x20\n      add\n      swap1\n      dup2\n      mstore\n      0x20\n      add\n      0x00\n      keccak256\n        /* \"contracts/PatentRegistry.sol\":1547:1582  patentOfficers[msg.sender].isActive */\n      0x00\n      add\n      0x00\n      swap1\n      sload\n      swap1\n      0x0100\n      exp\n      swap1\n      div\n      0xff\n      and\n        /* \"contracts/PatentRegistry.sol\":1539:1631  require(patentOfficers[msg.sender].isActive, \"Only patent officers can perform this action\") */\n      tag_103\n      jumpi\n      mload(0x40)\n      0x08c379a000000000000000000000000000000000000000000000000000000000\n      dup2\n      mstore\n      0x04\n      add\n      tag_104\n      swap1\n      tag_105\n      jump\t// in\n    tag_104:\n      mload(0x40)\n      dup1\n      swap2\n      sub\n      swap1\n      revert\n    tag_103:\n        /* \"contracts/PatentRegistry.sol\":2959:2968  _patentId */\n      dup2\n        /* \"contracts/PatentRegistry.sol\":1732:1733  0 */\n      0x00\n        /* \"contracts/PatentRegistry.sol\":1720:1729  _patentId */\n      dup2\n        /* \"contracts/PatentRegistry.sol\":1720:1733  _patentId > 0 */\n      gt\n        /* \"contracts/PatentRegistry.sol\":1720:1761  _patentId > 0 && _patentId <= patentCount */\n      dup1\n      iszero\n      tag_107\n      jumpi\n      pop\n        /* \"contracts/PatentRegistry.sol\":1750:1761  patentCount */\n      sload(0x03)\n        /* \"contracts/PatentRegistry.sol\":1737:1746  _patentId */\n      dup2\n        /* \"contracts/PatentRegistry.sol\":1737:1761  _patentId <= patentCount */\n      gt\n      iszero\n        /* \"contracts/PatentRegistry.sol\":1720:1761  _patentId > 0 && _patentId <= patentCount */\n    tag_107:\n        /* \"contracts/PatentRegistry.sol\":1712:1783  require(_patentId > 0 && _patentId <= patentCount, \"Invalid patent ID\") */\n      tag_108\n      jumpi\n      mload(0x40)\n      0x08c379a000000000000000000000000000000000000000000000000000000000\n      dup2\n      mstore\n      0x04\n      add\n      tag_109\n      swap1\n      tag_110\n      jump\t// in\n    tag_109:\n      mload(0x40)\n      dup1\n      swap2\n      sub\n      swap1\n      revert\n    tag_108:\n        /* \"contracts/PatentRegistry.sol\":3003:3023  PatentStatus.Pending */\n      0x00\n        /* \"contracts/PatentRegistry.sol\":2989:3023  _newStatus != PatentStatus.Pending */\n      0x04\n      dup2\n      gt\n      iszero\n      tag_112\n      jumpi\n      tag_113\n      tag_114\n      jump\t// in\n    tag_113:\n    tag_112:\n        /* \"contracts/PatentRegistry.sol\":2989:2999  _newStatus */\n      dup3\n        /* \"contracts/PatentRegistry.sol\":2989:3023  _newStatus != PatentStatus.Pending */\n      0x04\n      dup2\n      gt\n      iszero\n      tag_115\n      jumpi\n      tag_116\n      tag_114\n      jump\t// in\n    tag_116:\n    tag_115:\n      sub\n        /* \"contracts/PatentRegistry.sol\":2981:3061  require(_newStatus != PatentStatus.Pending, \"Cannot set status back to pending\") */\n      tag_117\n      jumpi\n      mload(0x40)\n      0x08c379a000000000000000000000000000000000000000000000000000000000\n      dup2\n      mstore\n      0x04\n      add\n      tag_118\n      swap1\n      tag_119\n      jump\t// in\n    tag_118:\n      mload(0x40)\n      dup1\n      swap2\n      sub\n      swap1\n      revert\n    tag_117:\n        /* \"contracts/PatentRegistry.sol\":3100:3110  _newStatus */\n      dup2\n        /* \"contracts/PatentRegistry.sol\":3072:3079  patents */\n      0x00\n        /* \"contracts/PatentRegistry.sol\":3072:3090  patents[_patentId] */\n      dup1\n        /* \"contracts/PatentRegistry.sol\":3080:3089  _patentId */\n      dup6\n        /* \"contracts/PatentRegistry.sol\":3072:3090  patents[_patentId] */\n      dup2\n      mstore\n      0x20\n      add\n      swap1\n      dup2\n      mstore\n      0x20\n      add\n      0x00\n      keccak256\n        /* \"contracts/PatentRegistry.sol\":3072:3097  patents[_patentId].status */\n      0x06\n      add\n      0x00\n        /* \"contracts/PatentRegistry.sol\":3072:3110  patents[_patentId].status = _newStatus */\n      0x0100\n      exp\n      dup2\n      sload\n      dup2\n      0xff\n      mul\n      not\n      and\n      swap1\n      dup4\n      0x04\n      dup2\n      gt\n      iszero\n      tag_120\n      jumpi\n      tag_121\n      tag_114\n      jump\t// in\n    tag_121:\n    tag_120:\n      mul\n      or\n      swap1\n      sstore\n      pop\n        /* \"contracts/PatentRegistry.sol\":3156:3165  _patentId */\n      dup3\n        /* \"contracts/PatentRegistry.sol\":3136:3178  PatentStatusUpdated(_patentId, _newStatus) */\n      0xd7c67ad449553c78533fe0cf74a4c33a8ce3834a94a20491487d924b222819c8\n        /* \"contracts/PatentRegistry.sol\":3167:3177  _newStatus */\n      dup4\n        /* \"contracts/PatentRegistry.sol\":3136:3178  PatentStatusUpdated(_patentId, _newStatus) */\n      mload(0x40)\n      tag_122\n      swap2\n      swap1\n      tag_123\n      jump\t// in\n    tag_122:\n      mload(0x40)\n      dup1\n      swap2\n      sub\n      swap1\n      log2\n        /* \"contracts/PatentRegistry.sol\":1642:1643  _ */\n      pop\n        /* \"contracts/PatentRegistry.sol\":2820:3186  function updatePatentStatus(... */\n      pop\n      pop\n      jump\t// out\n        /* \"contracts/PatentRegistry.sol\":658:713  mapping(address => PatentOfficer) public patentOfficers */\n    tag_30:\n      mstore(0x20, 0x01)\n      dup1\n      0x00\n      mstore\n      keccak256(0x00, 0x40)\n      0x00\n      swap2\n      pop\n      swap1\n      pop\n      dup1\n      0x00\n      add\n      0x00\n      swap1\n      sload\n      swap1\n      0x0100\n      exp\n      swap1\n      div\n      0xff\n      and\n      swap1\n      dup1\n      0x01\n      add\n      dup1\n      sload\n      tag_124\n      swap1\n      tag_125\n      jump\t// in\n    tag_124:\n      dup1\n      0x1f\n      add\n      0x20\n      dup1\n      swap2\n      div\n      mul\n      0x20\n      add\n      mload(0x40)\n      swap1\n      dup2\n      add\n      0x40\n      mstore\n      dup1\n      swap3\n      swap2\n      swap1\n      dup2\n      dup2\n      mstore\n      0x20\n      add\n      dup3\n      dup1\n      sload\n      tag_126\n      swap1\n      tag_125\n      jump\t// in\n    tag_126:\n      dup1\n      iszero\n      tag_127\n      jumpi\n      dup1\n      0x1f\n      lt\n      tag_128\n      jumpi\n      0x0100\n      dup1\n      dup4\n      sload\n      div\n      mul\n      dup4\n      mstore\n      swap2\n      0x20\n      add\n      swap2\n      jump(tag_127)\n    tag_128:\n      dup3\n      add\n      swap2\n      swap1\n      0x00\n      mstore\n      keccak256(0x00, 0x20)\n      swap1\n    tag_129:\n      dup2\n      sload\n      dup2\n      mstore\n      swap1\n      0x01\n      add\n      swap1\n      0x20\n      add\n      dup1\n      dup4\n      gt\n      tag_129\n      jumpi\n      dup3\n      swap1\n      sub\n      0x1f\n      and\n      dup3\n      add\n      swap2\n    tag_127:\n      pop\n      pop\n      pop\n      pop\n      pop\n      swap1\n      dup1\n      0x02\n      add\n      sload\n      swap1\n      pop\n      dup4\n      jump\t// out\n        /* \"contracts/PatentRegistry.sol\":3628:3889  function removePatentOfficer(address _officer) external onlyAdmin {... */\n    tag_36:\n        /* \"contracts/PatentRegistry.sol\":1427:1432  admin */\n      0x04\n      0x00\n      swap1\n      sload\n      swap1\n      0x0100\n      exp\n      swap1\n      div\n      0xffffffffffffffffffffffffffffffffffffffff\n      and\n        /* \"contracts/PatentRegistry.sol\":1413:1432  msg.sender == admin */\n      0xffffffffffffffffffffffffffffffffffffffff\n      and\n        /* \"contracts/PatentRegistry.sol\":1413:1423  msg.sender */\n      caller\n        /* \"contracts/PatentRegistry.sol\":1413:1432  msg.sender == admin */\n      0xffffffffffffffffffffffffffffffffffffffff\n      and\n      eq\n        /* \"contracts/PatentRegistry.sol\":1405:1471  require(msg.sender == admin, \"Only admin can perform this action\") */\n      tag_131\n      jumpi\n      mload(0x40)\n      0x08c379a000000000000000000000000000000000000000000000000000000000\n      dup2\n      mstore\n      0x04\n      add\n      tag_132\n      swap1\n      tag_133\n      jump\t// in\n    tag_132:\n      mload(0x40)\n      dup1\n      swap2\n      sub\n      swap1\n      revert\n    tag_131:\n        /* \"contracts/PatentRegistry.sol\":3713:3727  patentOfficers */\n      0x01\n        /* \"contracts/PatentRegistry.sol\":3713:3737  patentOfficers[_officer] */\n      0x00\n        /* \"contracts/PatentRegistry.sol\":3728:3736  _officer */\n      dup3\n        /* \"contracts/PatentRegistry.sol\":3713:3737  patentOfficers[_officer] */\n      0xffffffffffffffffffffffffffffffffffffffff\n      and\n      0xffffffffffffffffffffffffffffffffffffffff\n      and\n      dup2\n      mstore\n      0x20\n      add\n      swap1\n      dup2\n      mstore\n      0x20\n      add\n      0x00\n      keccak256\n        /* \"contracts/PatentRegistry.sol\":3713:3746  patentOfficers[_officer].isActive */\n      0x00\n      add\n      0x00\n      swap1\n      sload\n      swap1\n      0x0100\n      exp\n      swap1\n      div\n      0xff\n      and\n        /* \"contracts/PatentRegistry.sol\":3705:3773  require(patentOfficers[_officer].isActive, \"Officer does not exist\") */\n      tag_135\n      jumpi\n      mload(0x40)\n      0x08c379a000000000000000000000000000000000000000000000000000000000\n      dup2\n      mstore\n      0x04\n      add\n      tag_136\n      swap1\n      tag_137\n      jump\t// in\n    tag_136:\n      mload(0x40)\n      dup1\n      swap2\n      sub\n      swap1\n      revert\n    tag_135:\n        /* \"contracts/PatentRegistry.sol\":3820:3825  false */\n      0x00\n        /* \"contracts/PatentRegistry.sol\":3784:3798  patentOfficers */\n      0x01\n        /* \"contracts/PatentRegistry.sol\":3784:3808  patentOfficers[_officer] */\n      0x00\n        /* \"contracts/PatentRegistry.sol\":3799:3807  _officer */\n      dup4\n        /* \"contracts/PatentRegistry.sol\":3784:3808  patentOfficers[_officer] */\n      0xffffffffffffffffffffffffffffffffffffffff\n      and\n      0xffffffffffffffffffffffffffffffffffffffff\n      and\n      dup2\n      mstore\n      0x20\n      add\n      swap1\n      dup2\n      mstore\n      0x20\n      add\n      0x00\n      keccak256\n        /* \"contracts/PatentRegistry.sol\":3784:3817  patentOfficers[_officer].isActive */\n      0x00\n      add\n      0x00\n        /* \"contracts/PatentRegistry.sol\":3784:3825  patentOfficers[_officer].isActive = false */\n      0x0100\n      exp\n      dup2\n      sload\n      dup2\n      0xff\n      mul\n      not\n      and\n      swap1\n      dup4\n      iszero\n      iszero\n      mul\n      or\n      swap1\n      sstore\n      pop\n        /* \"contracts/PatentRegistry.sol\":3872:3880  _officer */\n      dup1\n        /* \"contracts/PatentRegistry.sol\":3851:3881  PatentOfficerRemoved(_officer) */\n      0xffffffffffffffffffffffffffffffffffffffff\n      and\n      0x4914a81b7f20a7f271a4740e7f39b8e5b9712cd5f5a36491d63657be736d2497\n      mload(0x40)\n      mload(0x40)\n      dup1\n      swap2\n      sub\n      swap1\n      log2\n        /* \"contracts/PatentRegistry.sol\":3628:3889  function removePatentOfficer(address _officer) external onlyAdmin {... */\n      pop\n      jump\t// out\n        /* \"contracts/PatentRegistry.sol\":4494:4594  function updateFilingFee(uint256 _newFee) external onlyAdmin {... */\n    tag_41:\n        /* \"contracts/PatentRegistry.sol\":1427:1432  admin */\n      0x04\n      0x00\n      swap1\n      sload\n      swap1\n      0x0100\n      exp\n      swap1\n      div\n      0xffffffffffffffffffffffffffffffffffffffff\n      and\n        /* \"contracts/PatentRegistry.sol\":1413:1432  msg.sender == admin */\n      0xffffffffffffffffffffffffffffffffffffffff\n      and\n        /* \"contracts/PatentRegistry.sol\":1413:1423  msg.sender */\n      caller\n        /* \"contracts/PatentRegistry.sol\":1413:1432  msg.sender == admin */\n      0xffffffffffffffffffffffffffffffffffffffff\n      and\n      eq\n        /* \"contracts/PatentRegistry.sol\":1405:1471  require(msg.sender == admin, \"Only admin can perform this action\") */\n      tag_139\n      jumpi\n      mload(0x40)\n      0x08c379a000000000000000000000000000000000000000000000000000000000\n      dup2\n      mstore\n      0x04\n      add\n      tag_140\n      swap1\n      tag_133\n      jump\t// in\n    tag_140:\n      mload(0x40)\n      dup1\n      swap2\n      sub\n      swap1\n      revert\n    tag_139:\n        /* \"contracts/PatentRegistry.sol\":4579:4586  _newFee */\n      dup1\n        /* \"contracts/PatentRegistry.sol\":4566:4576  FILING_FEE */\n      0x05\n        /* \"contracts/PatentRegistry.sol\":4566:4586  FILING_FEE = _newFee */\n      dup2\n      swap1\n      sstore\n      pop\n        /* \"contracts/PatentRegistry.sol\":4494:4594  function updateFilingFee(uint256 _newFee) external onlyAdmin {... */\n      pop\n      jump\t// out\n        /* \"contracts/PatentRegistry.sol\":4215:4346  function isPatentOfficer(address _address) external view returns (bool) {... */\n    tag_45:\n        /* \"contracts/PatentRegistry.sol\":4281:4285  bool */\n      0x00\n        /* \"contracts/PatentRegistry.sol\":4305:4319  patentOfficers */\n      0x01\n        /* \"contracts/PatentRegistry.sol\":4305:4329  patentOfficers[_address] */\n      0x00\n        /* \"contracts/PatentRegistry.sol\":4320:4328  _address */\n      dup4\n        /* \"contracts/PatentRegistry.sol\":4305:4329  patentOfficers[_address] */\n      0xffffffffffffffffffffffffffffffffffffffff\n      and\n      0xffffffffffffffffffffffffffffffffffffffff\n      and\n      dup2\n      mstore\n      0x20\n      add\n      swap1\n      dup2\n      mstore\n      0x20\n      add\n      0x00\n      keccak256\n        /* \"contracts/PatentRegistry.sol\":4305:4338  patentOfficers[_address].isActive */\n      0x00\n      add\n      0x00\n      swap1\n      sload\n      swap1\n      0x0100\n      exp\n      swap1\n      div\n      0xff\n      and\n        /* \"contracts/PatentRegistry.sol\":4298:4338  return patentOfficers[_address].isActive */\n      swap1\n      pop\n        /* \"contracts/PatentRegistry.sol\":4215:4346  function isPatentOfficer(address _address) external view returns (bool) {... */\n      swap2\n      swap1\n      pop\n      jump\t// out\n        /* \"contracts/PatentRegistry.sol\":4378:4486  function withdrawFees() external onlyAdmin {... */\n    tag_50:\n        /* \"contracts/PatentRegistry.sol\":1427:1432  admin */\n      0x04\n      0x00\n      swap1\n      sload\n      swap1\n      0x0100\n      exp\n      swap1\n      div\n      0xffffffffffffffffffffffffffffffffffffffff\n      and\n        /* \"contracts/PatentRegistry.sol\":1413:1432  msg.sender == admin */\n      0xffffffffffffffffffffffffffffffffffffffff\n      and\n        /* \"contracts/PatentRegistry.sol\":1413:1423  msg.sender */\n      caller\n        /* \"contracts/PatentRegistry.sol\":1413:1432  msg.sender == admin */\n      0xffffffffffffffffffffffffffffffffffffffff\n      and\n      eq\n        /* \"contracts/PatentRegistry.sol\":1405:1471  require(msg.sender == admin, \"Only admin can perform this action\") */\n      tag_144\n      jumpi\n      mload(0x40)\n      0x08c379a000000000000000000000000000000000000000000000000000000000\n      dup2\n      mstore\n      0x04\n      add\n      tag_145\n      swap1\n      tag_133\n      jump\t// in\n    tag_145:\n      mload(0x40)\n      dup1\n      swap2\n      sub\n      swap1\n      revert\n    tag_144:\n        /* \"contracts/PatentRegistry.sol\":4440:4445  admin */\n      0x04\n      0x00\n      swap1\n      sload\n      swap1\n      0x0100\n      exp\n      swap1\n      div\n      0xffffffffffffffffffffffffffffffffffffffff\n      and\n        /* \"contracts/PatentRegistry.sol\":4432:4455  payable(admin).transfer */\n      0xffffffffffffffffffffffffffffffffffffffff\n      and\n        /* \"contracts/PatentRegistry.sol\":4432:4478  payable(admin).transfer(address(this).balance) */\n      0x08fc\n        /* \"contracts/PatentRegistry.sol\":4456:4477  address(this).balance */\n      selfbalance\n        /* \"contracts/PatentRegistry.sol\":4432:4478  payable(admin).transfer(address(this).balance) */\n      swap1\n      dup2\n      iszero\n      mul\n      swap1\n      mload(0x40)\n      0x00\n      mload(0x40)\n      dup1\n      dup4\n      sub\n      dup2\n      dup6\n      dup9\n      dup9\n      call\n      swap4\n      pop\n      pop\n      pop\n      pop\n      iszero\n      dup1\n      iszero\n      tag_148\n      jumpi\n      returndatasize\n      0x00\n      dup1\n      returndatacopy\n      revert(0x00, returndatasize)\n    tag_148:\n      pop\n        /* \"contracts/PatentRegistry.sol\":4378:4486  function withdrawFees() external onlyAdmin {... */\n      jump\t// out\n        /* \"contracts/PatentRegistry.sol\":841:903  uint256 public constant PATENT_VALIDITY_PERIOD = 10 * 365 days */\n    tag_53:\n        /* \"contracts/PatentRegistry.sol\":890:903  10 * 365 days */\n      0x12cc0300\n        /* \"contracts/PatentRegistry.sol\":841:903  uint256 public constant PATENT_VALIDITY_PERIOD = 10 * 365 days */\n      dup2\n      jump\t// out\n        /* \"contracts/PatentRegistry.sol\":720:768  mapping(address => uint256[]) public userPatents */\n    tag_60:\n      mstore(0x20, 0x02)\n      dup2\n      0x00\n      mstore\n      keccak256(0x00, 0x40)\n      dup2\n      dup2\n      sload\n      dup2\n      lt\n      tag_149\n      jumpi\n      0x00\n      dup1\n      revert\n    tag_149:\n      swap1\n      0x00\n      mstore\n      keccak256(0x00, 0x20)\n      add\n      0x00\n      swap2\n      pop\n      swap2\n      pop\n      pop\n      sload\n      dup2\n      jump\t// out\n        /* \"contracts/PatentRegistry.sol\":3920:4075  function getPatent(uint256 _patentId) external view ... */\n    tag_65:\n        /* \"contracts/PatentRegistry.sol\":4016:4029  Patent memory */\n      tag_151\n      tag_152\n      jump\t// in\n    tag_151:\n        /* \"contracts/PatentRegistry.sol\":3996:4005  _patentId */\n      dup2\n        /* \"contracts/PatentRegistry.sol\":1732:1733  0 */\n      0x00\n        /* \"contracts/PatentRegistry.sol\":1720:1729  _patentId */\n      dup2\n        /* \"contracts/PatentRegistry.sol\":1720:1733  _patentId > 0 */\n      gt\n        /* \"contracts/PatentRegistry.sol\":1720:1761  _patentId > 0 && _patentId <= patentCount */\n      dup1\n      iszero\n      tag_154\n      jumpi\n      pop\n        /* \"contracts/PatentRegistry.sol\":1750:1761  patentCount */\n      sload(0x03)\n        /* \"contracts/PatentRegistry.sol\":1737:1746  _patentId */\n      dup2\n        /* \"contracts/PatentRegistry.sol\":1737:1761  _patentId <= patentCount */\n      gt\n      iszero\n        /* \"contracts/PatentRegistry.sol\":1720:1761  _patentId > 0 && _patentId <= patentCount */\n    tag_154:\n        /* \"contracts/PatentRegistry.sol\":1712:1783  require(_patentId > 0 && _patentId <= patentCount, \"Invalid patent ID\") */\n      tag_155\n      jumpi\n      mload(0x40)\n      0x08c379a000000000000000000000000000000000000000000000000000000000\n      dup2\n      mstore\n      0x04\n      add\n      tag_156\n      swap1\n      tag_110\n      jump\t// in\n    tag_156:\n      mload(0x40)\n      dup1\n      swap2\n      sub\n      swap1\n      revert\n    tag_155:\n        /* \"contracts/PatentRegistry.sol\":4049:4056  patents */\n      0x00\n        /* \"contracts/PatentRegistry.sol\":4049:4067  patents[_patentId] */\n      dup1\n        /* \"contracts/PatentRegistry.sol\":4057:4066  _patentId */\n      dup5\n        /* \"contracts/PatentRegistry.sol\":4049:4067  patents[_patentId] */\n      dup2\n      mstore\n      0x20\n      add\n      swap1\n      dup2\n      mstore\n      0x20\n      add\n      0x00\n      keccak256\n        /* \"contracts/PatentRegistry.sol\":4042:4067  return patents[_patentId] */\n      mload(0x40)\n      dup1\n      0x0120\n      add\n      0x40\n      mstore\n      swap1\n      dup2\n      0x00\n      dup3\n      add\n      sload\n      dup2\n      mstore\n      0x20\n      add\n      0x01\n      dup3\n      add\n      0x00\n      swap1\n      sload\n      swap1\n      0x0100\n      exp\n      swap1\n      div\n      0xffffffffffffffffffffffffffffffffffffffff\n      and\n      0xffffffffffffffffffffffffffffffffffffffff\n      and\n      0xffffffffffffffffffffffffffffffffffffffff\n      and\n      dup2\n      mstore\n      0x20\n      add\n      0x02\n      dup3\n      add\n      dup1\n      sload\n      tag_158\n      swap1\n      tag_125\n      jump\t// in\n    tag_158:\n      dup1\n      0x1f\n      add\n      0x20\n      dup1\n      swap2\n      div\n      mul\n      0x20\n      add\n      mload(0x40)\n      swap1\n      dup2\n      add\n      0x40\n      mstore\n      dup1\n      swap3\n      swap2\n      swap1\n      dup2\n      dup2\n      mstore\n      0x20\n      add\n      dup3\n      dup1\n      sload\n      tag_159\n      swap1\n      tag_125\n      jump\t// in\n    tag_159:\n      dup1\n      iszero\n      tag_160\n      jumpi\n      dup1\n      0x1f\n      lt\n      tag_161\n      jumpi\n      0x0100\n      dup1\n      dup4\n      sload\n      div\n      mul\n      dup4\n      mstore\n      swap2\n      0x20\n      add\n      swap2\n      jump(tag_160)\n    tag_161:\n      dup3\n      add\n      swap2\n      swap1\n      0x00\n      mstore\n      keccak256(0x00, 0x20)\n      swap1\n    tag_162:\n      dup2\n      sload\n      dup2\n      mstore\n      swap1\n      0x01\n      add\n      swap1\n      0x20\n      add\n      dup1\n      dup4\n      gt\n      tag_162\n      jumpi\n      dup3\n      swap1\n      sub\n      0x1f\n      and\n      dup3\n      add\n      swap2\n    tag_160:\n      pop\n      pop\n      pop\n      pop\n      pop\n      dup2\n      mstore\n      0x20\n      add\n      0x03\n      dup3\n      add\n      dup1\n      sload\n      tag_163\n      swap1\n      tag_125\n      jump\t// in\n    tag_163:\n      dup1\n      0x1f\n      add\n      0x20\n      dup1\n      swap2\n      div\n      mul\n      0x20\n      add\n      mload(0x40)\n      swap1\n      dup2\n      add\n      0x40\n      mstore\n      dup1\n      swap3\n      swap2\n      swap1\n      dup2\n      dup2\n      mstore\n      0x20\n      add\n      dup3\n      dup1\n      sload\n      tag_164\n      swap1\n      tag_125\n      jump\t// in\n    tag_164:\n      dup1\n      iszero\n      tag_165\n      jumpi\n      dup1\n      0x1f\n      lt\n      tag_166\n      jumpi\n      0x0100\n      dup1\n      dup4\n      sload\n      div\n      mul\n      dup4\n      mstore\n      swap2\n      0x20\n      add\n      swap2\n      jump(tag_165)\n    tag_166:\n      dup3\n      add\n      swap2\n      swap1\n      0x00\n      mstore\n      keccak256(0x00, 0x20)\n      swap1\n    tag_167:\n      dup2\n      sload\n      dup2\n      mstore\n      swap1\n      0x01\n      add\n      swap1\n      0x20\n      add\n      dup1\n      dup4\n      gt\n      tag_167\n      jumpi\n      dup3\n      swap1\n      sub\n      0x1f\n      and\n      dup3\n      add\n      swap2\n    tag_165:\n      pop\n      pop\n      pop\n      pop\n      pop\n      dup2\n      mstore\n      0x20\n      add\n      0x04\n      dup3\n      add\n      dup1\n      sload\n      tag_168\n      swap1\n      tag_125\n      jump\t// in\n    tag_168:\n      dup1\n      0x1f\n      add\n      0x20\n      dup1\n      swap2\n      div\n      mul\n      0x20\n      add\n      mload(0x40)\n      swap1\n      dup2\n      add\n      0x40\n      mstore\n      dup1\n      swap3\n      swap2\n      swap1\n      dup2\n      dup2\n      mstore\n      0x20\n      add\n      dup3\n      dup1\n      sload\n      tag_169\n      swap1\n      tag_125\n      jump\t// in\n    tag_169:\n      dup1\n      iszero\n      tag_170\n      jumpi\n      dup1\n      0x1f\n      lt\n      tag_171\n      jumpi\n      0x0100\n      dup1\n      dup4\n      sload\n      div\n      mul\n      dup4\n      mstore\n      swap2\n      0x20\n      add\n      swap2\n      jump(tag_170)\n    tag_171:\n      dup3\n      add\n      swap2\n      swap1\n      0x00\n      mstore\n      keccak256(0x00, 0x20)\n      swap1\n    tag_172:\n      dup2\n      sload\n      dup2\n      mstore\n      swap1\n      0x01\n      add\n      swap1\n      0x20\n      add\n      dup1\n      dup4\n      gt\n      tag_172\n      jumpi\n      dup3\n      swap1\n      sub\n      0x1f\n      and\n      dup3\n      add\n      swap2\n    tag_170:\n      pop\n      pop\n      pop\n      pop\n      pop\n      dup2\n      mstore\n      0x20\n      add\n      0x05\n      dup3\n      add\n      sload\n      dup2\n      mstore\n      0x20\n      add\n      0x06\n      dup3\n      add\n      0x00\n      swap1\n      sload\n      swap1\n      0x0100\n      exp\n      swap1\n      div\n      0xff\n      and\n      0x04\n      dup2\n      gt\n      iszero\n      tag_173\n      jumpi\n      tag_174\n      tag_114\n      jump\t// in\n    tag_174:\n    tag_173:\n      0x04\n      dup2\n      gt\n      iszero\n      tag_175\n      jumpi\n      tag_176\n      tag_114\n      jump\t// in\n    tag_176:\n    tag_175:\n      dup2\n      mstore\n      0x20\n      add\n      0x07\n      dup3\n      add\n      dup1\n      sload\n      dup1\n      0x20\n      mul\n      0x20\n      add\n      mload(0x40)\n      swap1\n      dup2\n      add\n      0x40\n      mstore\n      dup1\n      swap3\n      swap2\n      swap1\n      dup2\n      dup2\n      mstore\n      0x20\n      add\n      0x00\n      swap1\n    tag_177:\n      dup3\n      dup3\n      lt\n      iszero\n      tag_178\n      jumpi\n      dup4\n      dup3\n      swap1\n      0x00\n      mstore\n      keccak256(0x00, 0x20)\n      add\n      dup1\n      sload\n      tag_180\n      swap1\n      tag_125\n      jump\t// in\n    tag_180:\n      dup1\n      0x1f\n      add\n      0x20\n      dup1\n      swap2\n      div\n      mul\n      0x20\n      add\n      mload(0x40)\n      swap1\n      dup2\n      add\n      0x40\n      mstore\n      dup1\n      swap3\n      swap2\n      swap1\n      dup2\n      dup2\n      mstore\n      0x20\n      add\n      dup3\n      dup1\n      sload\n      tag_181\n      swap1\n      tag_125\n      jump\t// in\n    tag_181:\n      dup1\n      iszero\n      tag_182\n      jumpi\n      dup1\n      0x1f\n      lt\n      tag_183\n      jumpi\n      0x0100\n      dup1\n      dup4\n      sload\n      div\n      mul\n      dup4\n      mstore\n      swap2\n      0x20\n      add\n      swap2\n      jump(tag_182)\n    tag_183:\n      dup3\n      add\n      swap2\n      swap1\n      0x00\n      mstore\n      keccak256(0x00, 0x20)\n      swap1\n    tag_184:\n      dup2\n      sload\n      dup2\n      mstore\n      swap1\n      0x01\n      add\n      swap1\n      0x20\n      add\n      dup1\n      dup4\n      gt\n      tag_184\n      jumpi\n      dup3\n      swap1\n      sub\n      0x1f\n      and\n      dup3\n      add\n      swap2\n    tag_182:\n      pop\n      pop\n      pop\n      pop\n      pop\n      dup2\n      mstore\n      0x20\n      add\n      swap1\n      0x01\n      add\n      swap1\n      jump(tag_177)\n    tag_178:\n      pop\n      pop\n      pop\n      pop\n      dup2\n      mstore\n      0x20\n      add\n      0x08\n      dup3\n      add\n      sload\n      dup2\n      mstore\n      pop\n      pop\n      swap2\n      pop\n        /* \"contracts/PatentRegistry.sol\":3920:4075  function getPatent(uint256 _patentId) external view ... */\n      pop\n      swap2\n      swap1\n      pop\n      jump\t// out\n        /* \"contracts/PatentRegistry.sol\":781:807  uint256 public patentCount */\n    tag_70:\n      sload(0x03)\n      dup2\n      jump\t// out\n        /* \"contracts/PatentRegistry.sol\":1913:2812  function filePatent(... */\n    tag_75:\n        /* \"contracts/PatentRegistry.sol\":2127:2137  FILING_FEE */\n      sload(0x05)\n        /* \"contracts/PatentRegistry.sol\":2114:2123  msg.value */\n      callvalue\n        /* \"contracts/PatentRegistry.sol\":2114:2137  msg.value == FILING_FEE */\n      eq\n        /* \"contracts/PatentRegistry.sol\":2106:2162  require(msg.value == FILING_FEE, \"Incorrect filing fee\") */\n      tag_186\n      jumpi\n      mload(0x40)\n      0x08c379a000000000000000000000000000000000000000000000000000000000\n      dup2\n      mstore\n      0x04\n      add\n      tag_187\n      swap1\n      tag_188\n      jump\t// in\n    tag_187:\n      mload(0x40)\n      dup1\n      swap2\n      sub\n      swap1\n      revert\n    tag_186:\n        /* \"contracts/PatentRegistry.sol\":2183:2194  patentCount */\n      0x03\n      0x00\n        /* \"contracts/PatentRegistry.sol\":2183:2196  patentCount++ */\n      dup2\n      sload\n      dup1\n      swap3\n      swap2\n      swap1\n      tag_189\n      swap1\n      tag_190\n      jump\t// in\n    tag_189:\n      swap2\n      swap1\n      pop\n      sstore\n      pop\n        /* \"contracts/PatentRegistry.sol\":2217:2241  Patent storage newPatent */\n      0x00\n        /* \"contracts/PatentRegistry.sol\":2244:2251  patents */\n      dup1\n        /* \"contracts/PatentRegistry.sol\":2244:2264  patents[patentCount] */\n      0x00\n        /* \"contracts/PatentRegistry.sol\":2252:2263  patentCount */\n      sload(0x03)\n        /* \"contracts/PatentRegistry.sol\":2244:2264  patents[patentCount] */\n      dup2\n      mstore\n      0x20\n      add\n      swap1\n      dup2\n      mstore\n      0x20\n      add\n      0x00\n      keccak256\n        /* \"contracts/PatentRegistry.sol\":2217:2264  Patent storage newPatent = patents[patentCount] */\n      swap1\n      pop\n        /* \"contracts/PatentRegistry.sol\":2290:2301  patentCount */\n      sload(0x03)\n        /* \"contracts/PatentRegistry.sol\":2275:2284  newPatent */\n      dup2\n        /* \"contracts/PatentRegistry.sol\":2275:2287  newPatent.id */\n      0x00\n      add\n        /* \"contracts/PatentRegistry.sol\":2275:2301  newPatent.id = patentCount */\n      dup2\n      swap1\n      sstore\n      pop\n        /* \"contracts/PatentRegistry.sol\":2330:2340  msg.sender */\n      caller\n        /* \"contracts/PatentRegistry.sol\":2312:2321  newPatent */\n      dup2\n        /* \"contracts/PatentRegistry.sol\":2312:2327  newPatent.owner */\n      0x01\n      add\n      0x00\n        /* \"contracts/PatentRegistry.sol\":2312:2340  newPatent.owner = msg.sender */\n      0x0100\n      exp\n      dup2\n      sload\n      dup2\n      0xffffffffffffffffffffffffffffffffffffffff\n      mul\n      not\n      and\n      swap1\n      dup4\n      0xffffffffffffffffffffffffffffffffffffffff\n      and\n      mul\n      or\n      swap1\n      sstore\n      pop\n        /* \"contracts/PatentRegistry.sol\":2369:2375  _title */\n      dup5\n        /* \"contracts/PatentRegistry.sol\":2351:2360  newPatent */\n      dup2\n        /* \"contracts/PatentRegistry.sol\":2351:2366  newPatent.title */\n      0x03\n      add\n        /* \"contracts/PatentRegistry.sol\":2351:2375  newPatent.title = _title */\n      swap1\n      dup2\n      tag_191\n      swap2\n      swap1\n      tag_192\n      jump\t// in\n    tag_191:\n      pop\n        /* \"contracts/PatentRegistry.sol\":2410:2422  _description */\n      dup4\n        /* \"contracts/PatentRegistry.sol\":2386:2395  newPatent */\n      dup2\n        /* \"contracts/PatentRegistry.sol\":2386:2407  newPatent.description */\n      0x04\n      add\n        /* \"contracts/PatentRegistry.sol\":2386:2422  newPatent.description = _description */\n      swap1\n      dup2\n      tag_193\n      swap2\n      swap1\n      tag_192\n      jump\t// in\n    tag_193:\n      pop\n        /* \"contracts/PatentRegistry.sol\":2454:2463  _ipfsHash */\n      dup3\n        /* \"contracts/PatentRegistry.sol\":2433:2442  newPatent */\n      dup2\n        /* \"contracts/PatentRegistry.sol\":2433:2451  newPatent.ipfsHash */\n      0x02\n      add\n        /* \"contracts/PatentRegistry.sol\":2433:2463  newPatent.ipfsHash = _ipfsHash */\n      swap1\n      dup2\n      tag_194\n      swap2\n      swap1\n      tag_192\n      jump\t// in\n    tag_194:\n      pop\n        /* \"contracts/PatentRegistry.sol\":2497:2512  block.timestamp */\n      timestamp\n        /* \"contracts/PatentRegistry.sol\":2474:2483  newPatent */\n      dup2\n        /* \"contracts/PatentRegistry.sol\":2474:2494  newPatent.filingDate */\n      0x05\n      add\n        /* \"contracts/PatentRegistry.sol\":2474:2512  newPatent.filingDate = block.timestamp */\n      dup2\n      swap1\n      sstore\n      pop\n        /* \"contracts/PatentRegistry.sol\":2542:2562  PatentStatus.Pending */\n      0x00\n        /* \"contracts/PatentRegistry.sol\":2523:2532  newPatent */\n      dup2\n        /* \"contracts/PatentRegistry.sol\":2523:2539  newPatent.status */\n      0x06\n      add\n      0x00\n        /* \"contracts/PatentRegistry.sol\":2523:2562  newPatent.status = PatentStatus.Pending */\n      0x0100\n      exp\n      dup2\n      sload\n      dup2\n      0xff\n      mul\n      not\n      and\n      swap1\n      dup4\n      0x04\n      dup2\n      gt\n      iszero\n      tag_195\n      jumpi\n      tag_196\n      tag_114\n      jump\t// in\n    tag_196:\n    tag_195:\n      mul\n      or\n      swap1\n      sstore\n      pop\n        /* \"contracts/PatentRegistry.sol\":2594:2603  _keywords */\n      dup2\n        /* \"contracts/PatentRegistry.sol\":2573:2582  newPatent */\n      dup2\n        /* \"contracts/PatentRegistry.sol\":2573:2591  newPatent.keywords */\n      0x07\n      add\n        /* \"contracts/PatentRegistry.sol\":2573:2603  newPatent.keywords = _keywords */\n      swap1\n      dup1\n      mload\n      swap1\n      0x20\n      add\n      swap1\n      tag_197\n      swap3\n      swap2\n      swap1\n      tag_198\n      jump\t// in\n    tag_197:\n      pop\n        /* \"contracts/PatentRegistry.sol\":890:903  10 * 365 days */\n      0x12cc0300\n        /* \"contracts/PatentRegistry.sol\":2637:2652  block.timestamp */\n      timestamp\n        /* \"contracts/PatentRegistry.sol\":2637:2677  block.timestamp + PATENT_VALIDITY_PERIOD */\n      tag_199\n      swap2\n      swap1\n      tag_200\n      jump\t// in\n    tag_199:\n        /* \"contracts/PatentRegistry.sol\":2614:2623  newPatent */\n      dup2\n        /* \"contracts/PatentRegistry.sol\":2614:2634  newPatent.expiryDate */\n      0x08\n      add\n        /* \"contracts/PatentRegistry.sol\":2614:2677  newPatent.expiryDate = block.timestamp + PATENT_VALIDITY_PERIOD */\n      dup2\n      swap1\n      sstore\n      pop\n        /* \"contracts/PatentRegistry.sol\":2690:2701  userPatents */\n      0x02\n        /* \"contracts/PatentRegistry.sol\":2690:2713  userPatents[msg.sender] */\n      0x00\n        /* \"contracts/PatentRegistry.sol\":2702:2712  msg.sender */\n      caller\n        /* \"contracts/PatentRegistry.sol\":2690:2713  userPatents[msg.sender] */\n      0xffffffffffffffffffffffffffffffffffffffff\n      and\n      0xffffffffffffffffffffffffffffffffffffffff\n      and\n      dup2\n      mstore\n      0x20\n      add\n      swap1\n      dup2\n      mstore\n      0x20\n      add\n      0x00\n      keccak256\n        /* \"contracts/PatentRegistry.sol\":2719:2730  patentCount */\n      sload(0x03)\n        /* \"contracts/PatentRegistry.sol\":2690:2731  userPatents[msg.sender].push(patentCount) */\n      swap1\n      dup1\n      0x01\n      dup2\n      sload\n      add\n      dup1\n      dup3\n      sstore\n      dup1\n      swap2\n      pop\n      pop\n      0x01\n      swap1\n      sub\n      swap1\n      0x00\n      mstore\n      keccak256(0x00, 0x20)\n      add\n      0x00\n      swap1\n      swap2\n      swap1\n      swap2\n      swap1\n      swap2\n      pop\n      sstore\n        /* \"contracts/PatentRegistry.sol\":2774:2784  msg.sender */\n      caller\n        /* \"contracts/PatentRegistry.sol\":2749:2804  PatentFiled(patentCount, msg.sender, _title, _ipfsHash) */\n      0xffffffffffffffffffffffffffffffffffffffff\n      and\n        /* \"contracts/PatentRegistry.sol\":2761:2772  patentCount */\n      sload(0x03)\n        /* \"contracts/PatentRegistry.sol\":2749:2804  PatentFiled(patentCount, msg.sender, _title, _ipfsHash) */\n      0xbd7c4dd042a73368807dfa21f246ea4baa1f108b7b4e599d4f1d85b40a91b666\n        /* \"contracts/PatentRegistry.sol\":2786:2792  _title */\n      dup8\n        /* \"contracts/PatentRegistry.sol\":2794:2803  _ipfsHash */\n      dup7\n        /* \"contracts/PatentRegistry.sol\":2749:2804  PatentFiled(patentCount, msg.sender, _title, _ipfsHash) */\n      mload(0x40)\n      tag_202\n      swap3\n      swap2\n      swap1\n      tag_203\n      jump\t// in\n    tag_202:\n      mload(0x40)\n      dup1\n      swap2\n      sub\n      swap1\n      log3\n        /* \"contracts/PatentRegistry.sol\":2095:2812  {... */\n      pop\n        /* \"contracts/PatentRegistry.sol\":1913:2812  function filePatent(... */\n      pop\n      pop\n      pop\n      pop\n      jump\t// out\n        /* \"contracts/PatentRegistry.sol\":3194:3620  function addPatentOfficer(... */\n    tag_80:\n        /* \"contracts/PatentRegistry.sol\":1427:1432  admin */\n      0x04\n      0x00\n      swap1\n      sload\n      swap1\n      0x0100\n      exp\n      swap1\n      div\n      0xffffffffffffffffffffffffffffffffffffffff\n      and\n        /* \"contracts/PatentRegistry.sol\":1413:1432  msg.sender == admin */\n      0xffffffffffffffffffffffffffffffffffffffff\n      and\n        /* \"contracts/PatentRegistry.sol\":1413:1423  msg.sender */\n      caller\n        /* \"contracts/PatentRegistry.sol\":1413:1432  msg.sender == admin */\n      0xffffffffffffffffffffffffffffffffffffffff\n      and\n      eq\n        /* \"contracts/PatentRegistry.sol\":1405:1471  require(msg.sender == admin, \"Only admin can perform this action\") */\n      tag_205\n      jumpi\n      mload(0x40)\n      0x08c379a000000000000000000000000000000000000000000000000000000000\n      dup2\n      mstore\n      0x04\n      add\n      tag_206\n      swap1\n      tag_133\n      jump\t// in\n    tag_206:\n      mload(0x40)\n      dup1\n      swap2\n      sub\n      swap1\n      revert\n    tag_205:\n        /* \"contracts/PatentRegistry.sol\":3323:3337  patentOfficers */\n      0x01\n        /* \"contracts/PatentRegistry.sol\":3323:3347  patentOfficers[_officer] */\n      0x00\n        /* \"contracts/PatentRegistry.sol\":3338:3346  _officer */\n      dup4\n        /* \"contracts/PatentRegistry.sol\":3323:3347  patentOfficers[_officer] */\n      0xffffffffffffffffffffffffffffffffffffffff\n      and\n      0xffffffffffffffffffffffffffffffffffffffff\n      and\n      dup2\n      mstore\n      0x20\n      add\n      swap1\n      dup2\n      mstore\n      0x20\n      add\n      0x00\n      keccak256\n        /* \"contracts/PatentRegistry.sol\":3323:3356  patentOfficers[_officer].isActive */\n      0x00\n      add\n      0x00\n      swap1\n      sload\n      swap1\n      0x0100\n      exp\n      swap1\n      div\n      0xff\n      and\n        /* \"contracts/PatentRegistry.sol\":3322:3356  !patentOfficers[_officer].isActive */\n      iszero\n        /* \"contracts/PatentRegistry.sol\":3314:3383  require(!patentOfficers[_officer].isActive, \"Officer already exists\") */\n      tag_208\n      jumpi\n      mload(0x40)\n      0x08c379a000000000000000000000000000000000000000000000000000000000\n      dup2\n      mstore\n      0x04\n      add\n      tag_209\n      swap1\n      tag_210\n      jump\t// in\n    tag_209:\n      mload(0x40)\n      dup1\n      swap2\n      sub\n      swap1\n      revert\n    tag_208:\n        /* \"contracts/PatentRegistry.sol\":3431:3559  PatentOfficer({... */\n      mload(0x40)\n      dup1\n      0x60\n      add\n      0x40\n      mstore\n      dup1\n        /* \"contracts/PatentRegistry.sol\":3470:3474  true */\n      0x01\n        /* \"contracts/PatentRegistry.sol\":3431:3559  PatentOfficer({... */\n      iszero\n      iszero\n      dup2\n      mstore\n      0x20\n      add\n        /* \"contracts/PatentRegistry.sol\":3495:3500  _name */\n      dup3\n        /* \"contracts/PatentRegistry.sol\":3431:3559  PatentOfficer({... */\n      dup2\n      mstore\n      0x20\n      add\n        /* \"contracts/PatentRegistry.sol\":3532:3547  block.timestamp */\n      timestamp\n        /* \"contracts/PatentRegistry.sol\":3431:3559  PatentOfficer({... */\n      dup2\n      mstore\n      pop\n        /* \"contracts/PatentRegistry.sol\":3404:3418  patentOfficers */\n      0x01\n        /* \"contracts/PatentRegistry.sol\":3404:3428  patentOfficers[_officer] */\n      0x00\n        /* \"contracts/PatentRegistry.sol\":3419:3427  _officer */\n      dup5\n        /* \"contracts/PatentRegistry.sol\":3404:3428  patentOfficers[_officer] */\n      0xffffffffffffffffffffffffffffffffffffffff\n      and\n      0xffffffffffffffffffffffffffffffffffffffff\n      and\n      dup2\n      mstore\n      0x20\n      add\n      swap1\n      dup2\n      mstore\n      0x20\n      add\n      0x00\n      keccak256\n        /* \"contracts/PatentRegistry.sol\":3404:3559  patentOfficers[_officer] = PatentOfficer({... */\n      0x00\n      dup3\n      add\n      mload\n      dup2\n      0x00\n      add\n      exp(0x0100, 0x00)\n      dup2\n      sload\n      dup2\n      0xff\n      mul\n      not\n      and\n      swap1\n      dup4\n      iszero\n      iszero\n      mul\n      or\n      swap1\n      sstore\n      pop\n      0x20\n      dup3\n      add\n      mload\n      dup2\n      0x01\n      add\n      swap1\n      dup2\n      tag_211\n      swap2\n      swap1\n      tag_192\n      jump\t// in\n    tag_211:\n      pop\n      0x40\n      dup3\n      add\n      mload\n      dup2\n      0x02\n      add\n      sstore\n      swap1\n      pop\n      pop\n        /* \"contracts/PatentRegistry.sol\":3596:3604  _officer */\n      dup2\n        /* \"contracts/PatentRegistry.sol\":3577:3612  PatentOfficerAdded(_officer, _name) */\n      0xffffffffffffffffffffffffffffffffffffffff\n      and\n      0x43429047dd0037cb1f918f0b25737727d6a6a262e1e2f200cb7004bd5807dfd0\n        /* \"contracts/PatentRegistry.sol\":3606:3611  _name */\n      dup3\n        /* \"contracts/PatentRegistry.sol\":3577:3612  PatentOfficerAdded(_officer, _name) */\n      mload(0x40)\n      tag_212\n      swap2\n      swap1\n      tag_213\n      jump\t// in\n    tag_212:\n      mload(0x40)\n      dup1\n      swap2\n      sub\n      swap1\n      log2\n        /* \"contracts/PatentRegistry.sol\":3194:3620  function addPatentOfficer(... */\n      pop\n      pop\n      jump\t// out\n        /* \"contracts/PatentRegistry.sol\":4083:4207  function getUserPatents(address _user) external view returns (uint256[] memory) {... */\n    tag_84:\n        /* \"contracts/PatentRegistry.sol\":4145:4161  uint256[] memory */\n      0x60\n        /* \"contracts/PatentRegistry.sol\":4181:4192  userPatents */\n      0x02\n        /* \"contracts/PatentRegistry.sol\":4181:4199  userPatents[_user] */\n      0x00\n        /* \"contracts/PatentRegistry.sol\":4193:4198  _user */\n      dup4\n        /* \"contracts/PatentRegistry.sol\":4181:4199  userPatents[_user] */\n      0xffffffffffffffffffffffffffffffffffffffff\n      and\n      0xffffffffffffffffffffffffffffffffffffffff\n      and\n      dup2\n      mstore\n      0x20\n      add\n      swap1\n      dup2\n      mstore\n      0x20\n      add\n      0x00\n      keccak256\n        /* \"contracts/PatentRegistry.sol\":4174:4199  return userPatents[_user] */\n      dup1\n      sload\n      dup1\n      0x20\n      mul\n      0x20\n      add\n      mload(0x40)\n      swap1\n      dup2\n      add\n      0x40\n      mstore\n      dup1\n      swap3\n      swap2\n      swap1\n      dup2\n      dup2\n      mstore\n      0x20\n      add\n      dup3\n      dup1\n      sload\n      dup1\n      iszero\n      tag_215\n      jumpi\n      0x20\n      mul\n      dup3\n      add\n      swap2\n      swap1\n      0x00\n      mstore\n      keccak256(0x00, 0x20)\n      swap1\n    tag_216:\n      dup2\n      sload\n      dup2\n      mstore\n      0x20\n      add\n      swap1\n      0x01\n      add\n      swap1\n      dup1\n      dup4\n      gt\n      tag_216\n      jumpi\n    tag_215:\n      pop\n      pop\n      pop\n      pop\n      pop\n      swap1\n      pop\n        /* \"contracts/PatentRegistry.sol\":4083:4207  function getUserPatents(address _user) external view returns (uint256[] memory) {... */\n      swap2\n      swap1\n      pop\n      jump\t// out\n        /* \"contracts/PatentRegistry.sol\":910:947  uint256 public FILING_FEE = 0.1 ether */\n    tag_89:\n      sload(0x05)\n      dup2\n      jump\t// out\n        /* \"contracts/PatentRegistry.sol\":610:651  mapping(uint256 => Patent) public patents */\n    tag_94:\n      mstore(0x20, 0x00)\n      dup1\n      0x00\n      mstore\n      keccak256(0x00, 0x40)\n      0x00\n      swap2\n      pop\n      swap1\n      pop\n      dup1\n      0x00\n      add\n      sload\n      swap1\n      dup1\n      0x01\n      add\n      0x00\n      swap1\n      sload\n      swap1\n      0x0100\n      exp\n      swap1\n      div\n      0xffffffffffffffffffffffffffffffffffffffff\n      and\n      swap1\n      dup1\n      0x02\n      add\n      dup1\n      sload\n      tag_217\n      swap1\n      tag_125\n      jump\t// in\n    tag_217:\n      dup1\n      0x1f\n      add\n      0x20\n      dup1\n      swap2\n      div\n      mul\n      0x20\n      add\n      mload(0x40)\n      swap1\n      dup2\n      add\n      0x40\n      mstore\n      dup1\n      swap3\n      swap2\n      swap1\n      dup2\n      dup2\n      mstore\n      0x20\n      add\n      dup3\n      dup1\n      sload\n      tag_218\n      swap1\n      tag_125\n      jump\t// in\n    tag_218:\n      dup1\n      iszero\n      tag_219\n      jumpi\n      dup1\n      0x1f\n      lt\n      tag_220\n      jumpi\n      0x0100\n      dup1\n      dup4\n      sload\n      div\n      mul\n      dup4\n      mstore\n      swap2\n      0x20\n      add\n      swap2\n      jump(tag_219)\n    tag_220:\n      dup3\n      add\n      swap2\n      swap1\n      0x00\n      mstore\n      keccak256(0x00, 0x20)\n      swap1\n    tag_221:\n      dup2\n      sload\n      dup2\n      mstore\n      swap1\n      0x01\n      add\n      swap1\n      0x20\n      add\n      dup1\n      dup4\n      gt\n      tag_221\n      jumpi\n      dup3\n      swap1\n      sub\n      0x1f\n      and\n      dup3\n      add\n      swap2\n    tag_219:\n      pop\n      pop\n      pop\n      pop\n      pop\n      swap1\n      dup1\n      0x03\n      add\n      dup1\n      sload\n      tag_222\n      swap1\n      tag_125\n      jump\t// in\n    tag_222:\n      dup1\n      0x1f\n      add\n      0x20\n      dup1\n      swap2\n      div\n      mul\n      0x20\n      add\n      mload(0x40)\n      swap1\n      dup2\n      add\n      0x40\n      mstore\n      dup1\n      swap3\n      swap2\n      swap1\n      dup2\n      dup2\n      mstore\n      0x20\n      add\n      dup3\n      dup1\n      sload\n      tag_223\n      swap1\n      tag_125\n      jump\t// in\n    tag_223:\n      dup1\n      iszero\n      tag_224\n      jumpi\n      dup1\n      0x1f\n      lt\n      tag_225\n      jumpi\n      0x0100\n      dup1\n      dup4\n      sload\n      div\n      mul\n      dup4\n      mstore\n      swap2\n      0x20\n      add\n      swap2\n      jump(tag_224)\n    tag_225:\n      dup3\n      add\n      swap2\n      swap1\n      0x00\n      mstore\n      keccak256(0x00, 0x20)\n      swap1\n    tag_226:\n      dup2\n      sload\n      dup2\n      mstore\n      swap1\n      0x01\n      add\n      swap1\n      0x20\n      add\n      dup1\n      dup4\n      gt\n      tag_226\n      jumpi\n      dup3\n      swap1\n      sub\n      0x1f\n      and\n      dup3\n      add\n      swap2\n    tag_224:\n      pop\n      pop\n      pop\n      pop\n      pop\n      swap1\n      dup1\n      0x04\n      add\n      dup1\n      sload\n      tag_227\n      swap1\n      tag_125\n      jump\t// in\n    tag_227:\n      dup1\n      0x1f\n      add\n      0x20\n      dup1\n      swap2\n      div\n      mul\n      0x20\n      add\n      mload(0x40)\n      swap1\n      dup2\n      add\n      0x40\n      mstore\n      dup1\n      swap3\n      swap2\n      swap1\n      dup2\n      dup2\n      mstore\n      0x20\n      add\n      dup3\n      dup1\n      sload\n      tag_228\n      swap1\n      tag_125\n      jump\t// in\n    tag_228:\n      dup1\n      iszero\n      tag_229\n      jumpi\n      dup1\n      0x1f\n      lt\n      tag_230\n      jumpi\n      0x0100\n      dup1\n      dup4\n      sload\n      div\n      mul\n      dup4\n      mstore\n      swap2\n      0x20\n      add\n      swap2\n      jump(tag_229)\n    tag_230:\n      dup3\n      add\n      swap2\n      swap1\n      0x00\n      mstore\n      keccak256(0x00, 0x20)\n      swap1\n    tag_231:\n      dup2\n      sload\n      dup2\n      mstore\n      swap1\n      0x01\n      add\n      swap1\n      0x20\n      add\n      dup1\n      dup4\n      gt\n      tag_231\n      jumpi\n      dup3\n      swap1\n      sub\n      0x1f\n      and\n      dup3\n      add\n      swap2\n    tag_229:\n      pop\n      pop\n      pop\n      pop\n      pop\n      swap1\n      dup1\n      0x05\n      add\n      sload\n      swap1\n      dup1\n      0x06\n      add\n      0x00\n      swap1\n      sload\n      swap1\n      0x0100\n      exp\n      swap1\n      div\n      0xff\n      and\n      swap1\n      dup1\n      0x08\n      add\n      sload\n      swap1\n      pop\n      dup9\n      jump\t// out\n        /* \"contracts/PatentRegistry.sol\":814:834  address public admin */\n    tag_99:\n      0x04\n      0x00\n      swap1\n      sload\n      swap1\n      0x0100\n      exp\n      swap1\n      div\n      0xffffffffffffffffffffffffffffffffffffffff\n      and\n      dup2\n      jump\t// out\n    tag_152:\n      mload(0x40)\n      dup1\n      0x0120\n      add\n      0x40\n      mstore\n      dup1\n      0x00\n      dup2\n      mstore\n      0x20\n      add\n      and(0xffffffffffffffffffffffffffffffffffffffff, 0x00)\n      dup2\n      mstore\n      0x20\n      add\n      0x60\n      dup2\n      mstore\n      0x20\n      add\n      0x60\n      dup2\n      mstore\n      0x20\n      add\n      0x60\n      dup2\n      mstore\n      0x20\n      add\n      0x00\n      dup2\n      mstore\n      0x20\n      add\n      0x00\n      0x04\n      dup2\n      gt\n      iszero\n      tag_232\n      jumpi\n      tag_233\n      tag_114\n      jump\t// in\n    tag_233:\n    tag_232:\n      dup2\n      mstore\n      0x20\n      add\n      0x60\n      dup2\n      mstore\n      0x20\n      add\n      0x00\n      dup2\n      mstore\n      pop\n      swap1\n      jump\t// out\n    tag_198:\n      dup3\n      dup1\n      sload\n      dup3\n      dup3\n      sstore\n      swap1\n      0x00\n      mstore\n      keccak256(0x00, 0x20)\n      swap1\n      dup2\n      add\n      swap3\n      dup3\n      iszero\n      tag_234\n      jumpi\n      swap2\n      0x20\n      mul\n      dup3\n      add\n    tag_235:\n      dup3\n      dup2\n      gt\n      iszero\n      tag_236\n      jumpi\n      dup3\n      mload\n      dup3\n      swap1\n      dup2\n      tag_237\n      swap2\n      swap1\n      tag_192\n      jump\t// in\n    tag_237:\n      pop\n      swap2\n      0x20\n      add\n      swap2\n      swap1\n      0x01\n      add\n      swap1\n      jump(tag_235)\n    tag_236:\n    tag_234:\n      pop\n      swap1\n      pop\n      tag_238\n      swap2\n      swap1\n      tag_239\n      jump\t// in\n    tag_238:\n      pop\n      swap1\n      jump\t// out\n    tag_239:\n    tag_240:\n      dup1\n      dup3\n      gt\n      iszero\n      tag_241\n      jumpi\n      0x00\n      dup2\n      dup2\n      tag_242\n      swap2\n      swap1\n      tag_243\n      jump\t// in\n    tag_242:\n      pop\n      0x01\n      add\n      jump(tag_240)\n    tag_241:\n      pop\n      swap1\n      jump\t// out\n    tag_243:\n      pop\n      dup1\n      sload\n      tag_244\n      swap1\n      tag_125\n      jump\t// in\n    tag_244:\n      0x00\n      dup3\n      sstore\n      dup1\n      0x1f\n      lt\n      tag_246\n      jumpi\n      pop\n      jump(tag_245)\n    tag_246:\n      0x1f\n      add\n      0x20\n      swap1\n      div\n      swap1\n      0x00\n      mstore\n      keccak256(0x00, 0x20)\n      swap1\n      dup2\n      add\n      swap1\n      tag_247\n      swap2\n      swap1\n      tag_248\n      jump\t// in\n    tag_247:\n    tag_245:\n      pop\n      jump\t// out\n    tag_248:\n    tag_249:\n      dup1\n      dup3\n      gt\n      iszero\n      tag_250\n      jumpi\n      0x00\n      dup2\n      0x00\n      swap1\n      sstore\n      pop\n      0x01\n      add\n      jump(tag_249)\n    tag_250:\n      pop\n      swap1\n      jump\t// out\n        /* \"#utility.yul\":7:82   */\n    tag_251:\n        /* \"#utility.yul\":40:46   */\n      0x00\n        /* \"#utility.yul\":73:75   */\n      0x40\n        /* \"#utility.yul\":67:76   */\n      mload\n        /* \"#utility.yul\":57:76   */\n      swap1\n      pop\n        /* \"#utility.yul\":7:82   */\n      swap1\n      jump\t// out\n        /* \"#utility.yul\":88:205   */\n    tag_252:\n        /* \"#utility.yul\":197:198   */\n      0x00\n        /* \"#utility.yul\":194:195   */\n      dup1\n        /* \"#utility.yul\":187:199   */\n      revert\n        /* \"#utility.yul\":211:328   */\n    tag_253:\n        /* \"#utility.yul\":320:321   */\n      0x00\n        /* \"#utility.yul\":317:318   */\n      dup1\n        /* \"#utility.yul\":310:322   */\n      revert\n        /* \"#utility.yul\":334:411   */\n    tag_254:\n        /* \"#utility.yul\":371:378   */\n      0x00\n        /* \"#utility.yul\":400:405   */\n      dup2\n        /* \"#utility.yul\":389:405   */\n      swap1\n      pop\n        /* \"#utility.yul\":334:411   */\n      swap2\n      swap1\n      pop\n      jump\t// out\n        /* \"#utility.yul\":417:539   */\n    tag_255:\n        /* \"#utility.yul\":490:514   */\n      tag_344\n        /* \"#utility.yul\":508:513   */\n      dup2\n        /* \"#utility.yul\":490:514   */\n      tag_254\n      jump\t// in\n    tag_344:\n        /* \"#utility.yul\":483:488   */\n      dup2\n        /* \"#utility.yul\":480:515   */\n      eq\n        /* \"#utility.yul\":470:533   */\n      tag_345\n      jumpi\n        /* \"#utility.yul\":529:530   */\n      0x00\n        /* \"#utility.yul\":526:527   */\n      dup1\n        /* \"#utility.yul\":519:531   */\n      revert\n        /* \"#utility.yul\":470:533   */\n    tag_345:\n        /* \"#utility.yul\":417:539   */\n      pop\n      jump\t// out\n        /* \"#utility.yul\":545:684   */\n    tag_256:\n        /* \"#utility.yul\":591:596   */\n      0x00\n        /* \"#utility.yul\":629:635   */\n      dup2\n        /* \"#utility.yul\":616:636   */\n      calldataload\n        /* \"#utility.yul\":607:636   */\n      swap1\n      pop\n        /* \"#utility.yul\":645:678   */\n      tag_347\n        /* \"#utility.yul\":672:677   */\n      dup2\n        /* \"#utility.yul\":645:678   */\n      tag_255\n      jump\t// in\n    tag_347:\n        /* \"#utility.yul\":545:684   */\n      swap3\n      swap2\n      pop\n      pop\n      jump\t// out\n        /* \"#utility.yul\":690:804   */\n    tag_257:\n        /* \"#utility.yul\":778:779   */\n      0x05\n        /* \"#utility.yul\":771:776   */\n      dup2\n        /* \"#utility.yul\":768:780   */\n      lt\n        /* \"#utility.yul\":758:798   */\n      tag_349\n      jumpi\n        /* \"#utility.yul\":794:795   */\n      0x00\n        /* \"#utility.yul\":791:792   */\n      dup1\n        /* \"#utility.yul\":784:796   */\n      revert\n        /* \"#utility.yul\":758:798   */\n    tag_349:\n        /* \"#utility.yul\":690:804   */\n      pop\n      jump\t// out\n        /* \"#utility.yul\":810:979   */\n    tag_258:\n        /* \"#utility.yul\":871:876   */\n      0x00\n        /* \"#utility.yul\":909:915   */\n      dup2\n        /* \"#utility.yul\":896:916   */\n      calldataload\n        /* \"#utility.yul\":887:916   */\n      swap1\n      pop\n        /* \"#utility.yul\":925:973   */\n      tag_351\n        /* \"#utility.yul\":967:972   */\n      dup2\n        /* \"#utility.yul\":925:973   */\n      tag_257\n      jump\t// in\n    tag_351:\n        /* \"#utility.yul\":810:979   */\n      swap3\n      swap2\n      pop\n      pop\n      jump\t// out\n        /* \"#utility.yul\":985:1489   */\n    tag_24:\n        /* \"#utility.yul\":1068:1074   */\n      0x00\n        /* \"#utility.yul\":1076:1082   */\n      dup1\n        /* \"#utility.yul\":1125:1127   */\n      0x40\n        /* \"#utility.yul\":1113:1122   */\n      dup4\n        /* \"#utility.yul\":1104:1111   */\n      dup6\n        /* \"#utility.yul\":1100:1123   */\n      sub\n        /* \"#utility.yul\":1096:1128   */\n      slt\n        /* \"#utility.yul\":1093:1212   */\n      iszero\n      tag_353\n      jumpi\n        /* \"#utility.yul\":1131:1210   */\n      tag_354\n      tag_252\n      jump\t// in\n    tag_354:\n        /* \"#utility.yul\":1093:1212   */\n    tag_353:\n        /* \"#utility.yul\":1251:1252   */\n      0x00\n        /* \"#utility.yul\":1276:1329   */\n      tag_355\n        /* \"#utility.yul\":1321:1328   */\n      dup6\n        /* \"#utility.yul\":1312:1318   */\n      dup3\n        /* \"#utility.yul\":1301:1310   */\n      dup7\n        /* \"#utility.yul\":1297:1319   */\n      add\n        /* \"#utility.yul\":1276:1329   */\n      tag_256\n      jump\t// in\n    tag_355:\n        /* \"#utility.yul\":1266:1329   */\n      swap3\n      pop\n        /* \"#utility.yul\":1222:1339   */\n      pop\n        /* \"#utility.yul\":1378:1380   */\n      0x20\n        /* \"#utility.yul\":1404:1472   */\n      tag_356\n        /* \"#utility.yul\":1464:1471   */\n      dup6\n        /* \"#utility.yul\":1455:1461   */\n      dup3\n        /* \"#utility.yul\":1444:1453   */\n      dup7\n        /* \"#utility.yul\":1440:1462   */\n      add\n        /* \"#utility.yul\":1404:1472   */\n      tag_258\n      jump\t// in\n    tag_356:\n        /* \"#utility.yul\":1394:1472   */\n      swap2\n      pop\n        /* \"#utility.yul\":1349:1482   */\n      pop\n        /* \"#utility.yul\":985:1489   */\n      swap3\n      pop\n      swap3\n      swap1\n      pop\n      jump\t// out\n        /* \"#utility.yul\":1495:1621   */\n    tag_259:\n        /* \"#utility.yul\":1532:1539   */\n      0x00\n        /* \"#utility.yul\":1572:1614   */\n      0xffffffffffffffffffffffffffffffffffffffff\n        /* \"#utility.yul\":1565:1570   */\n      dup3\n        /* \"#utility.yul\":1561:1615   */\n      and\n        /* \"#utility.yul\":1550:1615   */\n      swap1\n      pop\n        /* \"#utility.yul\":1495:1621   */\n      swap2\n      swap1\n      pop\n      jump\t// out\n        /* \"#utility.yul\":1627:1723   */\n    tag_260:\n        /* \"#utility.yul\":1664:1671   */\n      0x00\n        /* \"#utility.yul\":1693:1717   */\n      tag_359\n        /* \"#utility.yul\":1711:1716   */\n      dup3\n        /* \"#utility.yul\":1693:1717   */\n      tag_259\n      jump\t// in\n    tag_359:\n        /* \"#utility.yul\":1682:1717   */\n      swap1\n      pop\n        /* \"#utility.yul\":1627:1723   */\n      swap2\n      swap1\n      pop\n      jump\t// out\n        /* \"#utility.yul\":1729:1851   */\n    tag_261:\n        /* \"#utility.yul\":1802:1826   */\n      tag_361\n        /* \"#utility.yul\":1820:1825   */\n      dup2\n        /* \"#utility.yul\":1802:1826   */\n      tag_260\n      jump\t// in\n    tag_361:\n        /* \"#utility.yul\":1795:1800   */\n      dup2\n        /* \"#utility.yul\":1792:1827   */\n      eq\n        /* \"#utility.yul\":1782:1845   */\n      tag_362\n      jumpi\n        /* \"#utility.yul\":1841:1842   */\n      0x00\n        /* \"#utility.yul\":1838:1839   */\n      dup1\n        /* \"#utility.yul\":1831:1843   */\n      revert\n        /* \"#utility.yul\":1782:1845   */\n    tag_362:\n        /* \"#utility.yul\":1729:1851   */\n      pop\n      jump\t// out\n        /* \"#utility.yul\":1857:1996   */\n    tag_262:\n        /* \"#utility.yul\":1903:1908   */\n      0x00\n        /* \"#utility.yul\":1941:1947   */\n      dup2\n        /* \"#utility.yul\":1928:1948   */\n      calldataload\n        /* \"#utility.yul\":1919:1948   */\n      swap1\n      pop\n        /* \"#utility.yul\":1957:1990   */\n      tag_364\n        /* \"#utility.yul\":1984:1989   */\n      dup2\n        /* \"#utility.yul\":1957:1990   */\n      tag_261\n      jump\t// in\n    tag_364:\n        /* \"#utility.yul\":1857:1996   */\n      swap3\n      swap2\n      pop\n      pop\n      jump\t// out\n        /* \"#utility.yul\":2002:2331   */\n    tag_29:\n        /* \"#utility.yul\":2061:2067   */\n      0x00\n        /* \"#utility.yul\":2110:2112   */\n      0x20\n        /* \"#utility.yul\":2098:2107   */\n      dup3\n        /* \"#utility.yul\":2089:2096   */\n      dup5\n        /* \"#utility.yul\":2085:2108   */\n      sub\n        /* \"#utility.yul\":2081:2113   */\n      slt\n        /* \"#utility.yul\":2078:2197   */\n      iszero\n      tag_366\n      jumpi\n        /* \"#utility.yul\":2116:2195   */\n      tag_367\n      tag_252\n      jump\t// in\n    tag_367:\n        /* \"#utility.yul\":2078:2197   */\n    tag_366:\n        /* \"#utility.yul\":2236:2237   */\n      0x00\n        /* \"#utility.yul\":2261:2314   */\n      tag_368\n        /* \"#utility.yul\":2306:2313   */\n      dup5\n        /* \"#utility.yul\":2297:2303   */\n      dup3\n        /* \"#utility.yul\":2286:2295   */\n      dup6\n        /* \"#utility.yul\":2282:2304   */\n      add\n        /* \"#utility.yul\":2261:2314   */\n      tag_262\n      jump\t// in\n    tag_368:\n        /* \"#utility.yul\":2251:2314   */\n      swap2\n      pop\n        /* \"#utility.yul\":2207:2324   */\n      pop\n        /* \"#utility.yul\":2002:2331   */\n      swap3\n      swap2\n      pop\n      pop\n      jump\t// out\n        /* \"#utility.yul\":2337:2427   */\n    tag_263:\n        /* \"#utility.yul\":2371:2378   */\n      0x00\n        /* \"#utility.yul\":2414:2419   */\n      dup2\n        /* \"#utility.yul\":2407:2420   */\n      iszero\n        /* \"#utility.yul\":2400:2421   */\n      iszero\n        /* \"#utility.yul\":2389:2421   */\n      swap1\n      pop\n        /* \"#utility.yul\":2337:2427   */\n      swap2\n      swap1\n      pop\n      jump\t// out\n        /* \"#utility.yul\":2433:2542   */\n    tag_264:\n        /* \"#utility.yul\":2514:2535   */\n      tag_371\n        /* \"#utility.yul\":2529:2534   */\n      dup2\n        /* \"#utility.yul\":2514:2535   */\n      tag_263\n      jump\t// in\n    tag_371:\n        /* \"#utility.yul\":2509:2512   */\n      dup3\n        /* \"#utility.yul\":2502:2536   */\n      mstore\n        /* \"#utility.yul\":2433:2542   */\n      pop\n      pop\n      jump\t// out\n        /* \"#utility.yul\":2548:2647   */\n    tag_265:\n        /* \"#utility.yul\":2600:2606   */\n      0x00\n        /* \"#utility.yul\":2634:2639   */\n      dup2\n        /* \"#utility.yul\":2628:2640   */\n      mload\n        /* \"#utility.yul\":2618:2640   */\n      swap1\n      pop\n        /* \"#utility.yul\":2548:2647   */\n      swap2\n      swap1\n      pop\n      jump\t// out\n        /* \"#utility.yul\":2653:2822   */\n    tag_266:\n        /* \"#utility.yul\":2737:2748   */\n      0x00\n        /* \"#utility.yul\":2771:2777   */\n      dup3\n        /* \"#utility.yul\":2766:2769   */\n      dup3\n        /* \"#utility.yul\":2759:2778   */\n      mstore\n        /* \"#utility.yul\":2811:2815   */\n      0x20\n        /* \"#utility.yul\":2806:2809   */\n      dup3\n        /* \"#utility.yul\":2802:2816   */\n      add\n        /* \"#utility.yul\":2787:2816   */\n      swap1\n      pop\n        /* \"#utility.yul\":2653:2822   */\n      swap3\n      swap2\n      pop\n      pop\n      jump\t// out\n        /* \"#utility.yul\":2828:3074   */\n    tag_267:\n        /* \"#utility.yul\":2909:2910   */\n      0x00\n        /* \"#utility.yul\":2919:3032   */\n    tag_375:\n        /* \"#utility.yul\":2933:2939   */\n      dup4\n        /* \"#utility.yul\":2930:2931   */\n      dup2\n        /* \"#utility.yul\":2927:2940   */\n      lt\n        /* \"#utility.yul\":2919:3032   */\n      iszero\n      tag_377\n      jumpi\n        /* \"#utility.yul\":3018:3019   */\n      dup1\n        /* \"#utility.yul\":3013:3016   */\n      dup3\n        /* \"#utility.yul\":3009:3020   */\n      add\n        /* \"#utility.yul\":3003:3021   */\n      mload\n        /* \"#utility.yul\":2999:3000   */\n      dup2\n        /* \"#utility.yul\":2994:2997   */\n      dup5\n        /* \"#utility.yul\":2990:3001   */\n      add\n        /* \"#utility.yul\":2983:3022   */\n      mstore\n        /* \"#utility.yul\":2955:2957   */\n      0x20\n        /* \"#utility.yul\":2952:2953   */\n      dup2\n        /* \"#utility.yul\":2948:2958   */\n      add\n        /* \"#utility.yul\":2943:2958   */\n      swap1\n      pop\n        /* \"#utility.yul\":2919:3032   */\n      jump(tag_375)\n    tag_377:\n        /* \"#utility.yul\":3066:3067   */\n      0x00\n        /* \"#utility.yul\":3057:3063   */\n      dup5\n        /* \"#utility.yul\":3052:3055   */\n      dup5\n        /* \"#utility.yul\":3048:3064   */\n      add\n        /* \"#utility.yul\":3041:3068   */\n      mstore\n        /* \"#utility.yul\":2890:3074   */\n      pop\n        /* \"#utility.yul\":2828:3074   */\n      pop\n      pop\n      pop\n      jump\t// out\n        /* \"#utility.yul\":3080:3182   */\n    tag_268:\n        /* \"#utility.yul\":3121:3127   */\n      0x00\n        /* \"#utility.yul\":3172:3174   */\n      0x1f\n        /* \"#utility.yul\":3168:3175   */\n      not\n        /* \"#utility.yul\":3163:3165   */\n      0x1f\n        /* \"#utility.yul\":3156:3161   */\n      dup4\n        /* \"#utility.yul\":3152:3166   */\n      add\n        /* \"#utility.yul\":3148:3176   */\n      and\n        /* \"#utility.yul\":3138:3176   */\n      swap1\n      pop\n        /* \"#utility.yul\":3080:3182   */\n      swap2\n      swap1\n      pop\n      jump\t// out\n        /* \"#utility.yul\":3188:3565   */\n    tag_269:\n        /* \"#utility.yul\":3276:3279   */\n      0x00\n        /* \"#utility.yul\":3304:3343   */\n      tag_380\n        /* \"#utility.yul\":3337:3342   */\n      dup3\n        /* \"#utility.yul\":3304:3343   */\n      tag_265\n      jump\t// in\n    tag_380:\n        /* \"#utility.yul\":3359:3430   */\n      tag_381\n        /* \"#utility.yul\":3423:3429   */\n      dup2\n        /* \"#utility.yul\":3418:3421   */\n      dup6\n        /* \"#utility.yul\":3359:3430   */\n      tag_266\n      jump\t// in\n    tag_381:\n        /* \"#utility.yul\":3352:3430   */\n      swap4\n      pop\n        /* \"#utility.yul\":3439:3504   */\n      tag_382\n        /* \"#utility.yul\":3497:3503   */\n      dup2\n        /* \"#utility.yul\":3492:3495   */\n      dup6\n        /* \"#utility.yul\":3485:3489   */\n      0x20\n        /* \"#utility.yul\":3478:3483   */\n      dup7\n        /* \"#utility.yul\":3474:3490   */\n      add\n        /* \"#utility.yul\":3439:3504   */\n      tag_267\n      jump\t// in\n    tag_382:\n        /* \"#utility.yul\":3529:3558   */\n      tag_383\n        /* \"#utility.yul\":3551:3557   */\n      dup2\n        /* \"#utility.yul\":3529:3558   */\n      tag_268\n      jump\t// in\n    tag_383:\n        /* \"#utility.yul\":3524:3527   */\n      dup5\n        /* \"#utility.yul\":3520:3559   */\n      add\n        /* \"#utility.yul\":3513:3559   */\n      swap2\n      pop\n        /* \"#utility.yul\":3280:3565   */\n      pop\n        /* \"#utility.yul\":3188:3565   */\n      swap3\n      swap2\n      pop\n      pop\n      jump\t// out\n        /* \"#utility.yul\":3571:3689   */\n    tag_270:\n        /* \"#utility.yul\":3658:3682   */\n      tag_385\n        /* \"#utility.yul\":3676:3681   */\n      dup2\n        /* \"#utility.yul\":3658:3682   */\n      tag_254\n      jump\t// in\n    tag_385:\n        /* \"#utility.yul\":3653:3656   */\n      dup3\n        /* \"#utility.yul\":3646:3683   */\n      mstore\n        /* \"#utility.yul\":3571:3689   */\n      pop\n      pop\n      jump\t// out\n        /* \"#utility.yul\":3695:4216   */\n    tag_32:\n        /* \"#utility.yul\":3858:3862   */\n      0x00\n        /* \"#utility.yul\":3896:3898   */\n      0x60\n        /* \"#utility.yul\":3885:3894   */\n      dup3\n        /* \"#utility.yul\":3881:3899   */\n      add\n        /* \"#utility.yul\":3873:3899   */\n      swap1\n      pop\n        /* \"#utility.yul\":3909:3974   */\n      tag_387\n        /* \"#utility.yul\":3971:3972   */\n      0x00\n        /* \"#utility.yul\":3960:3969   */\n      dup4\n        /* \"#utility.yul\":3956:3973   */\n      add\n        /* \"#utility.yul\":3947:3953   */\n      dup7\n        /* \"#utility.yul\":3909:3974   */\n      tag_264\n      jump\t// in\n    tag_387:\n        /* \"#utility.yul\":4021:4030   */\n      dup2\n        /* \"#utility.yul\":4015:4019   */\n      dup2\n        /* \"#utility.yul\":4011:4031   */\n      sub\n        /* \"#utility.yul\":4006:4008   */\n      0x20\n        /* \"#utility.yul\":3995:4004   */\n      dup4\n        /* \"#utility.yul\":3991:4009   */\n      add\n        /* \"#utility.yul\":3984:4032   */\n      mstore\n        /* \"#utility.yul\":4049:4127   */\n      tag_388\n        /* \"#utility.yul\":4122:4126   */\n      dup2\n        /* \"#utility.yul\":4113:4119   */\n      dup6\n        /* \"#utility.yul\":4049:4127   */\n      tag_269\n      jump\t// in\n    tag_388:\n        /* \"#utility.yul\":4041:4127   */\n      swap1\n      pop\n        /* \"#utility.yul\":4137:4209   */\n      tag_389\n        /* \"#utility.yul\":4205:4207   */\n      0x40\n        /* \"#utility.yul\":4194:4203   */\n      dup4\n        /* \"#utility.yul\":4190:4208   */\n      add\n        /* \"#utility.yul\":4181:4187   */\n      dup5\n        /* \"#utility.yul\":4137:4209   */\n      tag_270\n      jump\t// in\n    tag_389:\n        /* \"#utility.yul\":3695:4216   */\n      swap5\n      swap4\n      pop\n      pop\n      pop\n      pop\n      jump\t// out\n        /* \"#utility.yul\":4222:4551   */\n    tag_40:\n        /* \"#utility.yul\":4281:4287   */\n      0x00\n        /* \"#utility.yul\":4330:4332   */\n      0x20\n        /* \"#utility.yul\":4318:4327   */\n      dup3\n        /* \"#utility.yul\":4309:4316   */\n      dup5\n        /* \"#utility.yul\":4305:4328   */\n      sub\n        /* \"#utility.yul\":4301:4333   */\n      slt\n        /* \"#utility.yul\":4298:4417   */\n      iszero\n      tag_391\n      jumpi\n        /* \"#utility.yul\":4336:4415   */\n      tag_392\n      tag_252\n      jump\t// in\n    tag_392:\n        /* \"#utility.yul\":4298:4417   */\n    tag_391:\n        /* \"#utility.yul\":4456:4457   */\n      0x00\n        /* \"#utility.yul\":4481:4534   */\n      tag_393\n        /* \"#utility.yul\":4526:4533   */\n      dup5\n        /* \"#utility.yul\":4517:4523   */\n      dup3\n        /* \"#utility.yul\":4506:4515   */\n      dup6\n        /* \"#utility.yul\":4502:4524   */\n      add\n        /* \"#utility.yul\":4481:4534   */\n      tag_256\n      jump\t// in\n    tag_393:\n        /* \"#utility.yul\":4471:4534   */\n      swap2\n      pop\n        /* \"#utility.yul\":4427:4544   */\n      pop\n        /* \"#utility.yul\":4222:4551   */\n      swap3\n      swap2\n      pop\n      pop\n      jump\t// out\n        /* \"#utility.yul\":4557:4767   */\n    tag_47:\n        /* \"#utility.yul\":4644:4648   */\n      0x00\n        /* \"#utility.yul\":4682:4684   */\n      0x20\n        /* \"#utility.yul\":4671:4680   */\n      dup3\n        /* \"#utility.yul\":4667:4685   */\n      add\n        /* \"#utility.yul\":4659:4685   */\n      swap1\n      pop\n        /* \"#utility.yul\":4695:4760   */\n      tag_395\n        /* \"#utility.yul\":4757:4758   */\n      0x00\n        /* \"#utility.yul\":4746:4755   */\n      dup4\n        /* \"#utility.yul\":4742:4759   */\n      add\n        /* \"#utility.yul\":4733:4739   */\n      dup5\n        /* \"#utility.yul\":4695:4760   */\n      tag_264\n      jump\t// in\n    tag_395:\n        /* \"#utility.yul\":4557:4767   */\n      swap3\n      swap2\n      pop\n      pop\n      jump\t// out\n        /* \"#utility.yul\":4773:4995   */\n    tag_55:\n        /* \"#utility.yul\":4866:4870   */\n      0x00\n        /* \"#utility.yul\":4904:4906   */\n      0x20\n        /* \"#utility.yul\":4893:4902   */\n      dup3\n        /* \"#utility.yul\":4889:4907   */\n      add\n        /* \"#utility.yul\":4881:4907   */\n      swap1\n      pop\n        /* \"#utility.yul\":4917:4988   */\n      tag_397\n        /* \"#utility.yul\":4985:4986   */\n      0x00\n        /* \"#utility.yul\":4974:4983   */\n      dup4\n        /* \"#utility.yul\":4970:4987   */\n      add\n        /* \"#utility.yul\":4961:4967   */\n      dup5\n        /* \"#utility.yul\":4917:4988   */\n      tag_270\n      jump\t// in\n    tag_397:\n        /* \"#utility.yul\":4773:4995   */\n      swap3\n      swap2\n      pop\n      pop\n      jump\t// out\n        /* \"#utility.yul\":5001:5475   */\n    tag_59:\n        /* \"#utility.yul\":5069:5075   */\n      0x00\n        /* \"#utility.yul\":5077:5083   */\n      dup1\n        /* \"#utility.yul\":5126:5128   */\n      0x40\n        /* \"#utility.yul\":5114:5123   */\n      dup4\n        /* \"#utility.yul\":5105:5112   */\n      dup6\n        /* \"#utility.yul\":5101:5124   */\n      sub\n        /* \"#utility.yul\":5097:5129   */\n      slt\n        /* \"#utility.yul\":5094:5213   */\n      iszero\n      tag_399\n      jumpi\n        /* \"#utility.yul\":5132:5211   */\n      tag_400\n      tag_252\n      jump\t// in\n    tag_400:\n        /* \"#utility.yul\":5094:5213   */\n    tag_399:\n        /* \"#utility.yul\":5252:5253   */\n      0x00\n        /* \"#utility.yul\":5277:5330   */\n      tag_401\n        /* \"#utility.yul\":5322:5329   */\n      dup6\n        /* \"#utility.yul\":5313:5319   */\n      dup3\n        /* \"#utility.yul\":5302:5311   */\n      dup7\n        /* \"#utility.yul\":5298:5320   */\n      add\n        /* \"#utility.yul\":5277:5330   */\n      tag_262\n      jump\t// in\n    tag_401:\n        /* \"#utility.yul\":5267:5330   */\n      swap3\n      pop\n        /* \"#utility.yul\":5223:5340   */\n      pop\n        /* \"#utility.yul\":5379:5381   */\n      0x20\n        /* \"#utility.yul\":5405:5458   */\n      tag_402\n        /* \"#utility.yul\":5450:5457   */\n      dup6\n        /* \"#utility.yul\":5441:5447   */\n      dup3\n        /* \"#utility.yul\":5430:5439   */\n      dup7\n        /* \"#utility.yul\":5426:5448   */\n      add\n        /* \"#utility.yul\":5405:5458   */\n      tag_256\n      jump\t// in\n    tag_402:\n        /* \"#utility.yul\":5395:5458   */\n      swap2\n      pop\n        /* \"#utility.yul\":5350:5468   */\n      pop\n        /* \"#utility.yul\":5001:5475   */\n      swap3\n      pop\n      swap3\n      swap1\n      pop\n      jump\t// out\n        /* \"#utility.yul\":5481:5589   */\n    tag_271:\n        /* \"#utility.yul\":5558:5582   */\n      tag_404\n        /* \"#utility.yul\":5576:5581   */\n      dup2\n        /* \"#utility.yul\":5558:5582   */\n      tag_254\n      jump\t// in\n    tag_404:\n        /* \"#utility.yul\":5553:5556   */\n      dup3\n        /* \"#utility.yul\":5546:5583   */\n      mstore\n        /* \"#utility.yul\":5481:5589   */\n      pop\n      pop\n      jump\t// out\n        /* \"#utility.yul\":5595:5703   */\n    tag_272:\n        /* \"#utility.yul\":5672:5696   */\n      tag_406\n        /* \"#utility.yul\":5690:5695   */\n      dup2\n        /* \"#utility.yul\":5672:5696   */\n      tag_260\n      jump\t// in\n    tag_406:\n        /* \"#utility.yul\":5667:5670   */\n      dup3\n        /* \"#utility.yul\":5660:5697   */\n      mstore\n        /* \"#utility.yul\":5595:5703   */\n      pop\n      pop\n      jump\t// out\n        /* \"#utility.yul\":5709:5868   */\n    tag_273:\n        /* \"#utility.yul\":5783:5794   */\n      0x00\n        /* \"#utility.yul\":5817:5823   */\n      dup3\n        /* \"#utility.yul\":5812:5815   */\n      dup3\n        /* \"#utility.yul\":5805:5824   */\n      mstore\n        /* \"#utility.yul\":5857:5861   */\n      0x20\n        /* \"#utility.yul\":5852:5855   */\n      dup3\n        /* \"#utility.yul\":5848:5862   */\n      add\n        /* \"#utility.yul\":5833:5862   */\n      swap1\n      pop\n        /* \"#utility.yul\":5709:5868   */\n      swap3\n      swap2\n      pop\n      pop\n      jump\t// out\n        /* \"#utility.yul\":5874:6231   */\n    tag_274:\n        /* \"#utility.yul\":5952:5955   */\n      0x00\n        /* \"#utility.yul\":5980:6019   */\n      tag_409\n        /* \"#utility.yul\":6013:6018   */\n      dup3\n        /* \"#utility.yul\":5980:6019   */\n      tag_265\n      jump\t// in\n    tag_409:\n        /* \"#utility.yul\":6035:6096   */\n      tag_410\n        /* \"#utility.yul\":6089:6095   */\n      dup2\n        /* \"#utility.yul\":6084:6087   */\n      dup6\n        /* \"#utility.yul\":6035:6096   */\n      tag_273\n      jump\t// in\n    tag_410:\n        /* \"#utility.yul\":6028:6096   */\n      swap4\n      pop\n        /* \"#utility.yul\":6105:6170   */\n      tag_411\n        /* \"#utility.yul\":6163:6169   */\n      dup2\n        /* \"#utility.yul\":6158:6161   */\n      dup6\n        /* \"#utility.yul\":6151:6155   */\n      0x20\n        /* \"#utility.yul\":6144:6149   */\n      dup7\n        /* \"#utility.yul\":6140:6156   */\n      add\n        /* \"#utility.yul\":6105:6170   */\n      tag_267\n      jump\t// in\n    tag_411:\n        /* \"#utility.yul\":6195:6224   */\n      tag_412\n        /* \"#utility.yul\":6217:6223   */\n      dup2\n        /* \"#utility.yul\":6195:6224   */\n      tag_268\n      jump\t// in\n    tag_412:\n        /* \"#utility.yul\":6190:6193   */\n      dup5\n        /* \"#utility.yul\":6186:6225   */\n      add\n        /* \"#utility.yul\":6179:6225   */\n      swap2\n      pop\n        /* \"#utility.yul\":5956:6231   */\n      pop\n        /* \"#utility.yul\":5874:6231   */\n      swap3\n      swap2\n      pop\n      pop\n      jump\t// out\n        /* \"#utility.yul\":6237:6417   */\n    tag_114:\n        /* \"#utility.yul\":6285:6362   */\n      0x4e487b7100000000000000000000000000000000000000000000000000000000\n        /* \"#utility.yul\":6282:6283   */\n      0x00\n        /* \"#utility.yul\":6275:6363   */\n      mstore\n        /* \"#utility.yul\":6382:6386   */\n      0x21\n        /* \"#utility.yul\":6379:6380   */\n      0x04\n        /* \"#utility.yul\":6372:6387   */\n      mstore\n        /* \"#utility.yul\":6406:6410   */\n      0x24\n        /* \"#utility.yul\":6403:6404   */\n      0x00\n        /* \"#utility.yul\":6396:6411   */\n      revert\n        /* \"#utility.yul\":6423:6543   */\n    tag_275:\n        /* \"#utility.yul\":6511:6512   */\n      0x05\n        /* \"#utility.yul\":6504:6509   */\n      dup2\n        /* \"#utility.yul\":6501:6513   */\n      lt\n        /* \"#utility.yul\":6491:6537   */\n      tag_415\n      jumpi\n        /* \"#utility.yul\":6517:6535   */\n      tag_416\n      tag_114\n      jump\t// in\n    tag_416:\n        /* \"#utility.yul\":6491:6537   */\n    tag_415:\n        /* \"#utility.yul\":6423:6543   */\n      pop\n      jump\t// out\n        /* \"#utility.yul\":6549:6690   */\n    tag_276:\n        /* \"#utility.yul\":6601:6608   */\n      0x00\n        /* \"#utility.yul\":6630:6635   */\n      dup2\n        /* \"#utility.yul\":6619:6635   */\n      swap1\n      pop\n        /* \"#utility.yul\":6636:6684   */\n      tag_418\n        /* \"#utility.yul\":6678:6683   */\n      dup3\n        /* \"#utility.yul\":6636:6684   */\n      tag_275\n      jump\t// in\n    tag_418:\n        /* \"#utility.yul\":6549:6690   */\n      swap2\n      swap1\n      pop\n      jump\t// out\n        /* \"#utility.yul\":6696:6837   */\n    tag_277:\n        /* \"#utility.yul\":6759:6768   */\n      0x00\n        /* \"#utility.yul\":6792:6831   */\n      tag_420\n        /* \"#utility.yul\":6825:6830   */\n      dup3\n        /* \"#utility.yul\":6792:6831   */\n      tag_276\n      jump\t// in\n    tag_420:\n        /* \"#utility.yul\":6779:6831   */\n      swap1\n      pop\n        /* \"#utility.yul\":6696:6837   */\n      swap2\n      swap1\n      pop\n      jump\t// out\n        /* \"#utility.yul\":6843:6990   */\n    tag_278:\n        /* \"#utility.yul\":6933:6983   */\n      tag_422\n        /* \"#utility.yul\":6977:6982   */\n      dup2\n        /* \"#utility.yul\":6933:6983   */\n      tag_277\n      jump\t// in\n    tag_422:\n        /* \"#utility.yul\":6928:6931   */\n      dup3\n        /* \"#utility.yul\":6921:6984   */\n      mstore\n        /* \"#utility.yul\":6843:6990   */\n      pop\n      pop\n      jump\t// out\n        /* \"#utility.yul\":6996:7120   */\n    tag_279:\n        /* \"#utility.yul\":7073:7079   */\n      0x00\n        /* \"#utility.yul\":7107:7112   */\n      dup2\n        /* \"#utility.yul\":7101:7113   */\n      mload\n        /* \"#utility.yul\":7091:7113   */\n      swap1\n      pop\n        /* \"#utility.yul\":6996:7120   */\n      swap2\n      swap1\n      pop\n      jump\t// out\n        /* \"#utility.yul\":7126:7310   */\n    tag_280:\n        /* \"#utility.yul\":7225:7236   */\n      0x00\n        /* \"#utility.yul\":7259:7265   */\n      dup3\n        /* \"#utility.yul\":7254:7257   */\n      dup3\n        /* \"#utility.yul\":7247:7266   */\n      mstore\n        /* \"#utility.yul\":7299:7303   */\n      0x20\n        /* \"#utility.yul\":7294:7297   */\n      dup3\n        /* \"#utility.yul\":7290:7304   */\n      add\n        /* \"#utility.yul\":7275:7304   */\n      swap1\n      pop\n        /* \"#utility.yul\":7126:7310   */\n      swap3\n      swap2\n      pop\n      pop\n      jump\t// out\n        /* \"#utility.yul\":7316:7458   */\n    tag_281:\n        /* \"#utility.yul\":7393:7397   */\n      0x00\n        /* \"#utility.yul\":7416:7419   */\n      dup2\n        /* \"#utility.yul\":7408:7419   */\n      swap1\n      pop\n        /* \"#utility.yul\":7446:7450   */\n      0x20\n        /* \"#utility.yul\":7441:7444   */\n      dup3\n        /* \"#utility.yul\":7437:7451   */\n      add\n        /* \"#utility.yul\":7429:7451   */\n      swap1\n      pop\n        /* \"#utility.yul\":7316:7458   */\n      swap2\n      swap1\n      pop\n      jump\t// out\n        /* \"#utility.yul\":7464:7660   */\n    tag_282:\n        /* \"#utility.yul\":7553:7563   */\n      0x00\n        /* \"#utility.yul\":7588:7654   */\n      tag_427\n        /* \"#utility.yul\":7650:7653   */\n      dup4\n        /* \"#utility.yul\":7642:7648   */\n      dup4\n        /* \"#utility.yul\":7588:7654   */\n      tag_274\n      jump\t// in\n    tag_427:\n        /* \"#utility.yul\":7574:7654   */\n      swap1\n      pop\n        /* \"#utility.yul\":7464:7660   */\n      swap3\n      swap2\n      pop\n      pop\n      jump\t// out\n        /* \"#utility.yul\":7666:7789   */\n    tag_283:\n        /* \"#utility.yul\":7746:7750   */\n      0x00\n        /* \"#utility.yul\":7778:7782   */\n      0x20\n        /* \"#utility.yul\":7773:7776   */\n      dup3\n        /* \"#utility.yul\":7769:7783   */\n      add\n        /* \"#utility.yul\":7761:7783   */\n      swap1\n      pop\n        /* \"#utility.yul\":7666:7789   */\n      swap2\n      swap1\n      pop\n      jump\t// out\n        /* \"#utility.yul\":7823:8794   */\n    tag_284:\n        /* \"#utility.yul\":7952:7955   */\n      0x00\n        /* \"#utility.yul\":7981:8045   */\n      tag_430\n        /* \"#utility.yul\":8039:8044   */\n      dup3\n        /* \"#utility.yul\":7981:8045   */\n      tag_279\n      jump\t// in\n    tag_430:\n        /* \"#utility.yul\":8061:8147   */\n      tag_431\n        /* \"#utility.yul\":8140:8146   */\n      dup2\n        /* \"#utility.yul\":8135:8138   */\n      dup6\n        /* \"#utility.yul\":8061:8147   */\n      tag_280\n      jump\t// in\n    tag_431:\n        /* \"#utility.yul\":8054:8147   */\n      swap4\n      pop\n        /* \"#utility.yul\":8173:8176   */\n      dup4\n        /* \"#utility.yul\":8218:8222   */\n      0x20\n        /* \"#utility.yul\":8210:8216   */\n      dup3\n        /* \"#utility.yul\":8206:8223   */\n      mul\n        /* \"#utility.yul\":8201:8204   */\n      dup6\n        /* \"#utility.yul\":8197:8224   */\n      add\n        /* \"#utility.yul\":8248:8314   */\n      tag_432\n        /* \"#utility.yul\":8308:8313   */\n      dup6\n        /* \"#utility.yul\":8248:8314   */\n      tag_281\n      jump\t// in\n    tag_432:\n        /* \"#utility.yul\":8337:8344   */\n      dup1\n        /* \"#utility.yul\":8368:8369   */\n      0x00\n        /* \"#utility.yul\":8353:8749   */\n    tag_433:\n        /* \"#utility.yul\":8378:8384   */\n      dup6\n        /* \"#utility.yul\":8375:8376   */\n      dup2\n        /* \"#utility.yul\":8372:8385   */\n      lt\n        /* \"#utility.yul\":8353:8749   */\n      iszero\n      tag_435\n      jumpi\n        /* \"#utility.yul\":8449:8458   */\n      dup5\n        /* \"#utility.yul\":8443:8447   */\n      dup5\n        /* \"#utility.yul\":8439:8459   */\n      sub\n        /* \"#utility.yul\":8434:8437   */\n      dup10\n        /* \"#utility.yul\":8427:8460   */\n      mstore\n        /* \"#utility.yul\":8500:8506   */\n      dup2\n        /* \"#utility.yul\":8494:8507   */\n      mload\n        /* \"#utility.yul\":8528:8612   */\n      tag_436\n        /* \"#utility.yul\":8607:8611   */\n      dup6\n        /* \"#utility.yul\":8592:8605   */\n      dup3\n        /* \"#utility.yul\":8528:8612   */\n      tag_282\n      jump\t// in\n    tag_436:\n        /* \"#utility.yul\":8520:8612   */\n      swap5\n      pop\n        /* \"#utility.yul\":8635:8705   */\n      tag_437\n        /* \"#utility.yul\":8698:8704   */\n      dup4\n        /* \"#utility.yul\":8635:8705   */\n      tag_283\n      jump\t// in\n    tag_437:\n        /* \"#utility.yul\":8625:8705   */\n      swap3\n      pop\n        /* \"#utility.yul\":8734:8738   */\n      0x20\n        /* \"#utility.yul\":8729:8732   */\n      dup11\n        /* \"#utility.yul\":8725:8739   */\n      add\n        /* \"#utility.yul\":8718:8739   */\n      swap10\n      pop\n        /* \"#utility.yul\":8413:8749   */\n      pop\n        /* \"#utility.yul\":8400:8401   */\n      0x01\n        /* \"#utility.yul\":8397:8398   */\n      dup2\n        /* \"#utility.yul\":8393:8402   */\n      add\n        /* \"#utility.yul\":8388:8402   */\n      swap1\n      pop\n        /* \"#utility.yul\":8353:8749   */\n      jump(tag_433)\n    tag_435:\n        /* \"#utility.yul\":8357:8371   */\n      pop\n        /* \"#utility.yul\":8765:8769   */\n      dup3\n        /* \"#utility.yul\":8758:8769   */\n      swap8\n      pop\n        /* \"#utility.yul\":8785:8788   */\n      dup8\n        /* \"#utility.yul\":8778:8788   */\n      swap6\n      pop\n        /* \"#utility.yul\":7957:8794   */\n      pop\n      pop\n      pop\n      pop\n      pop\n        /* \"#utility.yul\":7823:8794   */\n      swap3\n      swap2\n      pop\n      pop\n      jump\t// out\n        /* \"#utility.yul\":8868:10997   */\n    tag_285:\n        /* \"#utility.yul\":8981:8984   */\n      0x00\n        /* \"#utility.yul\":9017:9023   */\n      0x0120\n        /* \"#utility.yul\":9012:9015   */\n      dup4\n        /* \"#utility.yul\":9008:9024   */\n      add\n        /* \"#utility.yul\":9104:9108   */\n      0x00\n        /* \"#utility.yul\":9097:9102   */\n      dup4\n        /* \"#utility.yul\":9093:9109   */\n      add\n        /* \"#utility.yul\":9087:9110   */\n      mload\n        /* \"#utility.yul\":9123:9186   */\n      tag_439\n        /* \"#utility.yul\":9180:9184   */\n      0x00\n        /* \"#utility.yul\":9175:9178   */\n      dup7\n        /* \"#utility.yul\":9171:9185   */\n      add\n        /* \"#utility.yul\":9157:9169   */\n      dup3\n        /* \"#utility.yul\":9123:9186   */\n      tag_271\n      jump\t// in\n    tag_439:\n        /* \"#utility.yul\":9034:9196   */\n      pop\n        /* \"#utility.yul\":9279:9283   */\n      0x20\n        /* \"#utility.yul\":9272:9277   */\n      dup4\n        /* \"#utility.yul\":9268:9284   */\n      add\n        /* \"#utility.yul\":9262:9285   */\n      mload\n        /* \"#utility.yul\":9298:9361   */\n      tag_440\n        /* \"#utility.yul\":9355:9359   */\n      0x20\n        /* \"#utility.yul\":9350:9353   */\n      dup7\n        /* \"#utility.yul\":9346:9360   */\n      add\n        /* \"#utility.yul\":9332:9344   */\n      dup3\n        /* \"#utility.yul\":9298:9361   */\n      tag_272\n      jump\t// in\n    tag_440:\n        /* \"#utility.yul\":9206:9371   */\n      pop\n        /* \"#utility.yul\":9457:9461   */\n      0x40\n        /* \"#utility.yul\":9450:9455   */\n      dup4\n        /* \"#utility.yul\":9446:9462   */\n      add\n        /* \"#utility.yul\":9440:9463   */\n      mload\n        /* \"#utility.yul\":9510:9513   */\n      dup5\n        /* \"#utility.yul\":9504:9508   */\n      dup3\n        /* \"#utility.yul\":9500:9514   */\n      sub\n        /* \"#utility.yul\":9493:9497   */\n      0x40\n        /* \"#utility.yul\":9488:9491   */\n      dup7\n        /* \"#utility.yul\":9484:9498   */\n      add\n        /* \"#utility.yul\":9477:9515   */\n      mstore\n        /* \"#utility.yul\":9536:9609   */\n      tag_441\n        /* \"#utility.yul\":9604:9608   */\n      dup3\n        /* \"#utility.yul\":9590:9602   */\n      dup3\n        /* \"#utility.yul\":9536:9609   */\n      tag_274\n      jump\t// in\n    tag_441:\n        /* \"#utility.yul\":9528:9609   */\n      swap2\n      pop\n        /* \"#utility.yul\":9381:9620   */\n      pop\n        /* \"#utility.yul\":9703:9707   */\n      0x60\n        /* \"#utility.yul\":9696:9701   */\n      dup4\n        /* \"#utility.yul\":9692:9708   */\n      add\n        /* \"#utility.yul\":9686:9709   */\n      mload\n        /* \"#utility.yul\":9756:9759   */\n      dup5\n        /* \"#utility.yul\":9750:9754   */\n      dup3\n        /* \"#utility.yul\":9746:9760   */\n      sub\n        /* \"#utility.yul\":9739:9743   */\n      0x60\n        /* \"#utility.yul\":9734:9737   */\n      dup7\n        /* \"#utility.yul\":9730:9744   */\n      add\n        /* \"#utility.yul\":9723:9761   */\n      mstore\n        /* \"#utility.yul\":9782:9855   */\n      tag_442\n        /* \"#utility.yul\":9850:9854   */\n      dup3\n        /* \"#utility.yul\":9836:9848   */\n      dup3\n        /* \"#utility.yul\":9782:9855   */\n      tag_274\n      jump\t// in\n    tag_442:\n        /* \"#utility.yul\":9774:9855   */\n      swap2\n      pop\n        /* \"#utility.yul\":9630:9866   */\n      pop\n        /* \"#utility.yul\":9955:9959   */\n      0x80\n        /* \"#utility.yul\":9948:9953   */\n      dup4\n        /* \"#utility.yul\":9944:9960   */\n      add\n        /* \"#utility.yul\":9938:9961   */\n      mload\n        /* \"#utility.yul\":10008:10011   */\n      dup5\n        /* \"#utility.yul\":10002:10006   */\n      dup3\n        /* \"#utility.yul\":9998:10012   */\n      sub\n        /* \"#utility.yul\":9991:9995   */\n      0x80\n        /* \"#utility.yul\":9986:9989   */\n      dup7\n        /* \"#utility.yul\":9982:9996   */\n      add\n        /* \"#utility.yul\":9975:10013   */\n      mstore\n        /* \"#utility.yul\":10034:10107   */\n      tag_443\n        /* \"#utility.yul\":10102:10106   */\n      dup3\n        /* \"#utility.yul\":10088:10100   */\n      dup3\n        /* \"#utility.yul\":10034:10107   */\n      tag_274\n      jump\t// in\n    tag_443:\n        /* \"#utility.yul\":10026:10107   */\n      swap2\n      pop\n        /* \"#utility.yul\":9876:10118   */\n      pop\n        /* \"#utility.yul\":10206:10210   */\n      0xa0\n        /* \"#utility.yul\":10199:10204   */\n      dup4\n        /* \"#utility.yul\":10195:10211   */\n      add\n        /* \"#utility.yul\":10189:10212   */\n      mload\n        /* \"#utility.yul\":10225:10288   */\n      tag_444\n        /* \"#utility.yul\":10282:10286   */\n      0xa0\n        /* \"#utility.yul\":10277:10280   */\n      dup7\n        /* \"#utility.yul\":10273:10287   */\n      add\n        /* \"#utility.yul\":10259:10271   */\n      dup3\n        /* \"#utility.yul\":10225:10288   */\n      tag_271\n      jump\t// in\n    tag_444:\n        /* \"#utility.yul\":10128:10298   */\n      pop\n        /* \"#utility.yul\":10382:10386   */\n      0xc0\n        /* \"#utility.yul\":10375:10380   */\n      dup4\n        /* \"#utility.yul\":10371:10387   */\n      add\n        /* \"#utility.yul\":10365:10388   */\n      mload\n        /* \"#utility.yul\":10401:10477   */\n      tag_445\n        /* \"#utility.yul\":10471:10475   */\n      0xc0\n        /* \"#utility.yul\":10466:10469   */\n      dup7\n        /* \"#utility.yul\":10462:10476   */\n      add\n        /* \"#utility.yul\":10448:10460   */\n      dup3\n        /* \"#utility.yul\":10401:10477   */\n      tag_278\n      jump\t// in\n    tag_445:\n        /* \"#utility.yul\":10308:10487   */\n      pop\n        /* \"#utility.yul\":10573:10577   */\n      0xe0\n        /* \"#utility.yul\":10566:10571   */\n      dup4\n        /* \"#utility.yul\":10562:10578   */\n      add\n        /* \"#utility.yul\":10556:10579   */\n      mload\n        /* \"#utility.yul\":10626:10629   */\n      dup5\n        /* \"#utility.yul\":10620:10624   */\n      dup3\n        /* \"#utility.yul\":10616:10630   */\n      sub\n        /* \"#utility.yul\":10609:10613   */\n      0xe0\n        /* \"#utility.yul\":10604:10607   */\n      dup7\n        /* \"#utility.yul\":10600:10614   */\n      add\n        /* \"#utility.yul\":10593:10631   */\n      mstore\n        /* \"#utility.yul\":10652:10775   */\n      tag_446\n        /* \"#utility.yul\":10770:10774   */\n      dup3\n        /* \"#utility.yul\":10756:10768   */\n      dup3\n        /* \"#utility.yul\":10652:10775   */\n      tag_284\n      jump\t// in\n    tag_446:\n        /* \"#utility.yul\":10644:10775   */\n      swap2\n      pop\n        /* \"#utility.yul\":10497:10786   */\n      pop\n        /* \"#utility.yul\":10874:10880   */\n      0x0100\n        /* \"#utility.yul\":10867:10872   */\n      dup4\n        /* \"#utility.yul\":10863:10881   */\n      add\n        /* \"#utility.yul\":10857:10882   */\n      mload\n        /* \"#utility.yul\":10895:10960   */\n      tag_447\n        /* \"#utility.yul\":10952:10958   */\n      0x0100\n        /* \"#utility.yul\":10947:10950   */\n      dup7\n        /* \"#utility.yul\":10943:10959   */\n      add\n        /* \"#utility.yul\":10929:10941   */\n      dup3\n        /* \"#utility.yul\":10895:10960   */\n      tag_271\n      jump\t// in\n    tag_447:\n        /* \"#utility.yul\":10796:10970   */\n      pop\n        /* \"#utility.yul\":10987:10991   */\n      dup1\n        /* \"#utility.yul\":10980:10991   */\n      swap2\n      pop\n        /* \"#utility.yul\":8986:10997   */\n      pop\n        /* \"#utility.yul\":8868:10997   */\n      swap3\n      swap2\n      pop\n      pop\n      jump\t// out\n        /* \"#utility.yul\":11003:11364   */\n    tag_67:\n        /* \"#utility.yul\":11140:11144   */\n      0x00\n        /* \"#utility.yul\":11178:11180   */\n      0x20\n        /* \"#utility.yul\":11167:11176   */\n      dup3\n        /* \"#utility.yul\":11163:11181   */\n      add\n        /* \"#utility.yul\":11155:11181   */\n      swap1\n      pop\n        /* \"#utility.yul\":11227:11236   */\n      dup2\n        /* \"#utility.yul\":11221:11225   */\n      dup2\n        /* \"#utility.yul\":11217:11237   */\n      sub\n        /* \"#utility.yul\":11213:11214   */\n      0x00\n        /* \"#utility.yul\":11202:11211   */\n      dup4\n        /* \"#utility.yul\":11198:11215   */\n      add\n        /* \"#utility.yul\":11191:11238   */\n      mstore\n        /* \"#utility.yul\":11255:11357   */\n      tag_449\n        /* \"#utility.yul\":11352:11356   */\n      dup2\n        /* \"#utility.yul\":11343:11349   */\n      dup5\n        /* \"#utility.yul\":11255:11357   */\n      tag_285\n      jump\t// in\n    tag_449:\n        /* \"#utility.yul\":11247:11357   */\n      swap1\n      pop\n        /* \"#utility.yul\":11003:11364   */\n      swap3\n      swap2\n      pop\n      pop\n      jump\t// out\n        /* \"#utility.yul\":11370:11487   */\n    tag_286:\n        /* \"#utility.yul\":11479:11480   */\n      0x00\n        /* \"#utility.yul\":11476:11477   */\n      dup1\n        /* \"#utility.yul\":11469:11481   */\n      revert\n        /* \"#utility.yul\":11493:11610   */\n    tag_287:\n        /* \"#utility.yul\":11602:11603   */\n      0x00\n        /* \"#utility.yul\":11599:11600   */\n      dup1\n        /* \"#utility.yul\":11592:11604   */\n      revert\n        /* \"#utility.yul\":11616:11796   */\n    tag_288:\n        /* \"#utility.yul\":11664:11741   */\n      0x4e487b7100000000000000000000000000000000000000000000000000000000\n        /* \"#utility.yul\":11661:11662   */\n      0x00\n        /* \"#utility.yul\":11654:11742   */\n      mstore\n        /* \"#utility.yul\":11761:11765   */\n      0x41\n        /* \"#utility.yul\":11758:11759   */\n      0x04\n        /* \"#utility.yul\":11751:11766   */\n      mstore\n        /* \"#utility.yul\":11785:11789   */\n      0x24\n        /* \"#utility.yul\":11782:11783   */\n      0x00\n        /* \"#utility.yul\":11775:11790   */\n      revert\n        /* \"#utility.yul\":11802:12083   */\n    tag_289:\n        /* \"#utility.yul\":11885:11912   */\n      tag_454\n        /* \"#utility.yul\":11907:11911   */\n      dup3\n        /* \"#utility.yul\":11885:11912   */\n      tag_268\n      jump\t// in\n    tag_454:\n        /* \"#utility.yul\":11877:11883   */\n      dup2\n        /* \"#utility.yul\":11873:11913   */\n      add\n        /* \"#utility.yul\":12015:12021   */\n      dup2\n        /* \"#utility.yul\":12003:12013   */\n      dup2\n        /* \"#utility.yul\":12000:12022   */\n      lt\n        /* \"#utility.yul\":11979:11997   */\n      0xffffffffffffffff\n        /* \"#utility.yul\":11967:11977   */\n      dup3\n        /* \"#utility.yul\":11964:11998   */\n      gt\n        /* \"#utility.yul\":11961:12023   */\n      or\n        /* \"#utility.yul\":11958:12046   */\n      iszero\n      tag_455\n      jumpi\n        /* \"#utility.yul\":12026:12044   */\n      tag_456\n      tag_288\n      jump\t// in\n    tag_456:\n        /* \"#utility.yul\":11958:12046   */\n    tag_455:\n        /* \"#utility.yul\":12066:12076   */\n      dup1\n        /* \"#utility.yul\":12062:12064   */\n      0x40\n        /* \"#utility.yul\":12055:12077   */\n      mstore\n        /* \"#utility.yul\":11845:12083   */\n      pop\n        /* \"#utility.yul\":11802:12083   */\n      pop\n      pop\n      jump\t// out\n        /* \"#utility.yul\":12089:12218   */\n    tag_290:\n        /* \"#utility.yul\":12123:12129   */\n      0x00\n        /* \"#utility.yul\":12150:12170   */\n      tag_458\n      tag_251\n      jump\t// in\n    tag_458:\n        /* \"#utility.yul\":12140:12170   */\n      swap1\n      pop\n        /* \"#utility.yul\":12179:12212   */\n      tag_459\n        /* \"#utility.yul\":12207:12211   */\n      dup3\n        /* \"#utility.yul\":12199:12205   */\n      dup3\n        /* \"#utility.yul\":12179:12212   */\n      tag_289\n      jump\t// in\n    tag_459:\n        /* \"#utility.yul\":12089:12218   */\n      swap2\n      swap1\n      pop\n      jump\t// out\n        /* \"#utility.yul\":12224:12532   */\n    tag_291:\n        /* \"#utility.yul\":12286:12290   */\n      0x00\n        /* \"#utility.yul\":12376:12394   */\n      0xffffffffffffffff\n        /* \"#utility.yul\":12368:12374   */\n      dup3\n        /* \"#utility.yul\":12365:12395   */\n      gt\n        /* \"#utility.yul\":12362:12418   */\n      iszero\n      tag_461\n      jumpi\n        /* \"#utility.yul\":12398:12416   */\n      tag_462\n      tag_288\n      jump\t// in\n    tag_462:\n        /* \"#utility.yul\":12362:12418   */\n    tag_461:\n        /* \"#utility.yul\":12436:12465   */\n      tag_463\n        /* \"#utility.yul\":12458:12464   */\n      dup3\n        /* \"#utility.yul\":12436:12465   */\n      tag_268\n      jump\t// in\n    tag_463:\n        /* \"#utility.yul\":12428:12465   */\n      swap1\n      pop\n        /* \"#utility.yul\":12520:12524   */\n      0x20\n        /* \"#utility.yul\":12514:12518   */\n      dup2\n        /* \"#utility.yul\":12510:12525   */\n      add\n        /* \"#utility.yul\":12502:12525   */\n      swap1\n      pop\n        /* \"#utility.yul\":12224:12532   */\n      swap2\n      swap1\n      pop\n      jump\t// out\n        /* \"#utility.yul\":12538:12684   */\n    tag_292:\n        /* \"#utility.yul\":12635:12641   */\n      dup3\n        /* \"#utility.yul\":12630:12633   */\n      dup2\n        /* \"#utility.yul\":12625:12628   */\n      dup4\n        /* \"#utility.yul\":12612:12642   */\n      calldatacopy\n        /* \"#utility.yul\":12676:12677   */\n      0x00\n        /* \"#utility.yul\":12667:12673   */\n      dup4\n        /* \"#utility.yul\":12662:12665   */\n      dup4\n        /* \"#utility.yul\":12658:12674   */\n      add\n        /* \"#utility.yul\":12651:12678   */\n      mstore\n        /* \"#utility.yul\":12538:12684   */\n      pop\n      pop\n      pop\n      jump\t// out\n        /* \"#utility.yul\":12690:13115   */\n    tag_293:\n        /* \"#utility.yul\":12768:12773   */\n      0x00\n        /* \"#utility.yul\":12793:12859   */\n      tag_466\n        /* \"#utility.yul\":12809:12858   */\n      tag_467\n        /* \"#utility.yul\":12851:12857   */\n      dup5\n        /* \"#utility.yul\":12809:12858   */\n      tag_291\n      jump\t// in\n    tag_467:\n        /* \"#utility.yul\":12793:12859   */\n      tag_290\n      jump\t// in\n    tag_466:\n        /* \"#utility.yul\":12784:12859   */\n      swap1\n      pop\n        /* \"#utility.yul\":12882:12888   */\n      dup3\n        /* \"#utility.yul\":12875:12880   */\n      dup2\n        /* \"#utility.yul\":12868:12889   */\n      mstore\n        /* \"#utility.yul\":12920:12924   */\n      0x20\n        /* \"#utility.yul\":12913:12918   */\n      dup2\n        /* \"#utility.yul\":12909:12925   */\n      add\n        /* \"#utility.yul\":12958:12961   */\n      dup5\n        /* \"#utility.yul\":12949:12955   */\n      dup5\n        /* \"#utility.yul\":12944:12947   */\n      dup5\n        /* \"#utility.yul\":12940:12956   */\n      add\n        /* \"#utility.yul\":12937:12962   */\n      gt\n        /* \"#utility.yul\":12934:13046   */\n      iszero\n      tag_468\n      jumpi\n        /* \"#utility.yul\":12965:13044   */\n      tag_469\n      tag_287\n      jump\t// in\n    tag_469:\n        /* \"#utility.yul\":12934:13046   */\n    tag_468:\n        /* \"#utility.yul\":13055:13109   */\n      tag_470\n        /* \"#utility.yul\":13102:13108   */\n      dup5\n        /* \"#utility.yul\":13097:13100   */\n      dup3\n        /* \"#utility.yul\":13092:13095   */\n      dup6\n        /* \"#utility.yul\":13055:13109   */\n      tag_292\n      jump\t// in\n    tag_470:\n        /* \"#utility.yul\":12774:13115   */\n      pop\n        /* \"#utility.yul\":12690:13115   */\n      swap4\n      swap3\n      pop\n      pop\n      pop\n      jump\t// out\n        /* \"#utility.yul\":13135:13475   */\n    tag_294:\n        /* \"#utility.yul\":13191:13196   */\n      0x00\n        /* \"#utility.yul\":13240:13243   */\n      dup3\n        /* \"#utility.yul\":13233:13237   */\n      0x1f\n        /* \"#utility.yul\":13225:13231   */\n      dup4\n        /* \"#utility.yul\":13221:13238   */\n      add\n        /* \"#utility.yul\":13217:13244   */\n      slt\n        /* \"#utility.yul\":13207:13329   */\n      tag_472\n      jumpi\n        /* \"#utility.yul\":13248:13327   */\n      tag_473\n      tag_286\n      jump\t// in\n    tag_473:\n        /* \"#utility.yul\":13207:13329   */\n    tag_472:\n        /* \"#utility.yul\":13365:13371   */\n      dup2\n        /* \"#utility.yul\":13352:13372   */\n      calldataload\n        /* \"#utility.yul\":13390:13469   */\n      tag_474\n        /* \"#utility.yul\":13465:13468   */\n      dup5\n        /* \"#utility.yul\":13457:13463   */\n      dup3\n        /* \"#utility.yul\":13450:13454   */\n      0x20\n        /* \"#utility.yul\":13442:13448   */\n      dup7\n        /* \"#utility.yul\":13438:13455   */\n      add\n        /* \"#utility.yul\":13390:13469   */\n      tag_293\n      jump\t// in\n    tag_474:\n        /* \"#utility.yul\":13381:13469   */\n      swap2\n      pop\n        /* \"#utility.yul\":13197:13475   */\n      pop\n        /* \"#utility.yul\":13135:13475   */\n      swap3\n      swap2\n      pop\n      pop\n      jump\t// out\n        /* \"#utility.yul\":13481:13802   */\n    tag_295:\n        /* \"#utility.yul\":13568:13572   */\n      0x00\n        /* \"#utility.yul\":13658:13676   */\n      0xffffffffffffffff\n        /* \"#utility.yul\":13650:13656   */\n      dup3\n        /* \"#utility.yul\":13647:13677   */\n      gt\n        /* \"#utility.yul\":13644:13700   */\n      iszero\n      tag_476\n      jumpi\n        /* \"#utility.yul\":13680:13698   */\n      tag_477\n      tag_288\n      jump\t// in\n    tag_477:\n        /* \"#utility.yul\":13644:13700   */\n    tag_476:\n        /* \"#utility.yul\":13730:13734   */\n      0x20\n        /* \"#utility.yul\":13722:13728   */\n      dup3\n        /* \"#utility.yul\":13718:13735   */\n      mul\n        /* \"#utility.yul\":13710:13735   */\n      swap1\n      pop\n        /* \"#utility.yul\":13790:13794   */\n      0x20\n        /* \"#utility.yul\":13784:13788   */\n      dup2\n        /* \"#utility.yul\":13780:13795   */\n      add\n        /* \"#utility.yul\":13772:13795   */\n      swap1\n      pop\n        /* \"#utility.yul\":13481:13802   */\n      swap2\n      swap1\n      pop\n      jump\t// out\n        /* \"#utility.yul\":13808:13925   */\n    tag_296:\n        /* \"#utility.yul\":13917:13918   */\n      0x00\n        /* \"#utility.yul\":13914:13915   */\n      dup1\n        /* \"#utility.yul\":13907:13919   */\n      revert\n        /* \"#utility.yul\":13947:14892   */\n    tag_297:\n        /* \"#utility.yul\":14053:14058   */\n      0x00\n        /* \"#utility.yul\":14078:14169   */\n      tag_480\n        /* \"#utility.yul\":14094:14168   */\n      tag_481\n        /* \"#utility.yul\":14161:14167   */\n      dup5\n        /* \"#utility.yul\":14094:14168   */\n      tag_295\n      jump\t// in\n    tag_481:\n        /* \"#utility.yul\":14078:14169   */\n      tag_290\n      jump\t// in\n    tag_480:\n        /* \"#utility.yul\":14069:14169   */\n      swap1\n      pop\n        /* \"#utility.yul\":14189:14194   */\n      dup1\n        /* \"#utility.yul\":14218:14224   */\n      dup4\n        /* \"#utility.yul\":14211:14216   */\n      dup3\n        /* \"#utility.yul\":14204:14225   */\n      mstore\n        /* \"#utility.yul\":14252:14256   */\n      0x20\n        /* \"#utility.yul\":14245:14250   */\n      dup3\n        /* \"#utility.yul\":14241:14257   */\n      add\n        /* \"#utility.yul\":14234:14257   */\n      swap1\n      pop\n        /* \"#utility.yul\":14305:14309   */\n      0x20\n        /* \"#utility.yul\":14297:14303   */\n      dup5\n        /* \"#utility.yul\":14293:14310   */\n      mul\n        /* \"#utility.yul\":14285:14291   */\n      dup4\n        /* \"#utility.yul\":14281:14311   */\n      add\n        /* \"#utility.yul\":14334:14337   */\n      dup6\n        /* \"#utility.yul\":14326:14332   */\n      dup2\n        /* \"#utility.yul\":14323:14338   */\n      gt\n        /* \"#utility.yul\":14320:14442   */\n      iszero\n      tag_482\n      jumpi\n        /* \"#utility.yul\":14353:14432   */\n      tag_483\n      tag_296\n      jump\t// in\n    tag_483:\n        /* \"#utility.yul\":14320:14442   */\n    tag_482:\n        /* \"#utility.yul\":14468:14474   */\n      dup4\n        /* \"#utility.yul\":14451:14886   */\n    tag_484:\n        /* \"#utility.yul\":14485:14491   */\n      dup2\n        /* \"#utility.yul\":14480:14483   */\n      dup2\n        /* \"#utility.yul\":14477:14492   */\n      lt\n        /* \"#utility.yul\":14451:14886   */\n      iszero\n      tag_486\n      jumpi\n        /* \"#utility.yul\":14574:14577   */\n      dup1\n        /* \"#utility.yul\":14561:14578   */\n      calldataload\n        /* \"#utility.yul\":14610:14628   */\n      0xffffffffffffffff\n        /* \"#utility.yul\":14597:14608   */\n      dup2\n        /* \"#utility.yul\":14594:14629   */\n      gt\n        /* \"#utility.yul\":14591:14713   */\n      iszero\n      tag_487\n      jumpi\n        /* \"#utility.yul\":14632:14711   */\n      tag_488\n      tag_286\n      jump\t// in\n    tag_488:\n        /* \"#utility.yul\":14591:14713   */\n    tag_487:\n        /* \"#utility.yul\":14756:14767   */\n      dup1\n        /* \"#utility.yul\":14748:14754   */\n      dup7\n        /* \"#utility.yul\":14744:14768   */\n      add\n        /* \"#utility.yul\":14794:14841   */\n      tag_489\n        /* \"#utility.yul\":14837:14840   */\n      dup10\n        /* \"#utility.yul\":14825:14835   */\n      dup3\n        /* \"#utility.yul\":14794:14841   */\n      tag_294\n      jump\t// in\n    tag_489:\n        /* \"#utility.yul\":14789:14792   */\n      dup6\n        /* \"#utility.yul\":14782:14842   */\n      mstore\n        /* \"#utility.yul\":14871:14875   */\n      0x20\n        /* \"#utility.yul\":14866:14869   */\n      dup6\n        /* \"#utility.yul\":14862:14876   */\n      add\n        /* \"#utility.yul\":14855:14876   */\n      swap5\n      pop\n        /* \"#utility.yul\":14527:14886   */\n      pop\n      pop\n        /* \"#utility.yul\":14511:14515   */\n      0x20\n        /* \"#utility.yul\":14506:14509   */\n      dup2\n        /* \"#utility.yul\":14502:14516   */\n      add\n        /* \"#utility.yul\":14495:14516   */\n      swap1\n      pop\n        /* \"#utility.yul\":14451:14886   */\n      jump(tag_484)\n    tag_486:\n        /* \"#utility.yul\":14455:14476   */\n      pop\n        /* \"#utility.yul\":14059:14892   */\n      pop\n      pop\n        /* \"#utility.yul\":13947:14892   */\n      swap4\n      swap3\n      pop\n      pop\n      pop\n      jump\t// out\n        /* \"#utility.yul\":14914:15304   */\n    tag_298:\n        /* \"#utility.yul\":14995:15000   */\n      0x00\n        /* \"#utility.yul\":15044:15047   */\n      dup3\n        /* \"#utility.yul\":15037:15041   */\n      0x1f\n        /* \"#utility.yul\":15029:15035   */\n      dup4\n        /* \"#utility.yul\":15025:15042   */\n      add\n        /* \"#utility.yul\":15021:15048   */\n      slt\n        /* \"#utility.yul\":15011:15133   */\n      tag_491\n      jumpi\n        /* \"#utility.yul\":15052:15131   */\n      tag_492\n      tag_286\n      jump\t// in\n    tag_492:\n        /* \"#utility.yul\":15011:15133   */\n    tag_491:\n        /* \"#utility.yul\":15169:15175   */\n      dup2\n        /* \"#utility.yul\":15156:15176   */\n      calldataload\n        /* \"#utility.yul\":15194:15298   */\n      tag_493\n        /* \"#utility.yul\":15294:15297   */\n      dup5\n        /* \"#utility.yul\":15286:15292   */\n      dup3\n        /* \"#utility.yul\":15279:15283   */\n      0x20\n        /* \"#utility.yul\":15271:15277   */\n      dup7\n        /* \"#utility.yul\":15267:15284   */\n      add\n        /* \"#utility.yul\":15194:15298   */\n      tag_297\n      jump\t// in\n    tag_493:\n        /* \"#utility.yul\":15185:15298   */\n      swap2\n      pop\n        /* \"#utility.yul\":15001:15304   */\n      pop\n        /* \"#utility.yul\":14914:15304   */\n      swap3\n      swap2\n      pop\n      pop\n      jump\t// out\n        /* \"#utility.yul\":15310:16845   */\n    tag_74:\n        /* \"#utility.yul\":15461:15467   */\n      0x00\n        /* \"#utility.yul\":15469:15475   */\n      dup1\n        /* \"#utility.yul\":15477:15483   */\n      0x00\n        /* \"#utility.yul\":15485:15491   */\n      dup1\n        /* \"#utility.yul\":15534:15537   */\n      0x80\n        /* \"#utility.yul\":15522:15531   */\n      dup6\n        /* \"#utility.yul\":15513:15520   */\n      dup8\n        /* \"#utility.yul\":15509:15532   */\n      sub\n        /* \"#utility.yul\":15505:15538   */\n      slt\n        /* \"#utility.yul\":15502:15622   */\n      iszero\n      tag_495\n      jumpi\n        /* \"#utility.yul\":15541:15620   */\n      tag_496\n      tag_252\n      jump\t// in\n    tag_496:\n        /* \"#utility.yul\":15502:15622   */\n    tag_495:\n        /* \"#utility.yul\":15689:15690   */\n      0x00\n        /* \"#utility.yul\":15678:15687   */\n      dup6\n        /* \"#utility.yul\":15674:15691   */\n      add\n        /* \"#utility.yul\":15661:15692   */\n      calldataload\n        /* \"#utility.yul\":15719:15737   */\n      0xffffffffffffffff\n        /* \"#utility.yul\":15711:15717   */\n      dup2\n        /* \"#utility.yul\":15708:15738   */\n      gt\n        /* \"#utility.yul\":15705:15822   */\n      iszero\n      tag_497\n      jumpi\n        /* \"#utility.yul\":15741:15820   */\n      tag_498\n      tag_253\n      jump\t// in\n    tag_498:\n        /* \"#utility.yul\":15705:15822   */\n    tag_497:\n        /* \"#utility.yul\":15846:15909   */\n      tag_499\n        /* \"#utility.yul\":15901:15908   */\n      dup8\n        /* \"#utility.yul\":15892:15898   */\n      dup3\n        /* \"#utility.yul\":15881:15890   */\n      dup9\n        /* \"#utility.yul\":15877:15899   */\n      add\n        /* \"#utility.yul\":15846:15909   */\n      tag_294\n      jump\t// in\n    tag_499:\n        /* \"#utility.yul\":15836:15909   */\n      swap5\n      pop\n        /* \"#utility.yul\":15632:15919   */\n      pop\n        /* \"#utility.yul\":15986:15988   */\n      0x20\n        /* \"#utility.yul\":15975:15984   */\n      dup6\n        /* \"#utility.yul\":15971:15989   */\n      add\n        /* \"#utility.yul\":15958:15990   */\n      calldataload\n        /* \"#utility.yul\":16017:16035   */\n      0xffffffffffffffff\n        /* \"#utility.yul\":16009:16015   */\n      dup2\n        /* \"#utility.yul\":16006:16036   */\n      gt\n        /* \"#utility.yul\":16003:16120   */\n      iszero\n      tag_500\n      jumpi\n        /* \"#utility.yul\":16039:16118   */\n      tag_501\n      tag_253\n      jump\t// in\n    tag_501:\n        /* \"#utility.yul\":16003:16120   */\n    tag_500:\n        /* \"#utility.yul\":16144:16207   */\n      tag_502\n        /* \"#utility.yul\":16199:16206   */\n      dup8\n        /* \"#utility.yul\":16190:16196   */\n      dup3\n        /* \"#utility.yul\":16179:16188   */\n      dup9\n        /* \"#utility.yul\":16175:16197   */\n      add\n        /* \"#utility.yul\":16144:16207   */\n      tag_294\n      jump\t// in\n    tag_502:\n        /* \"#utility.yul\":16134:16207   */\n      swap4\n      pop\n        /* \"#utility.yul\":15929:16217   */\n      pop\n        /* \"#utility.yul\":16284:16286   */\n      0x40\n        /* \"#utility.yul\":16273:16282   */\n      dup6\n        /* \"#utility.yul\":16269:16287   */\n      add\n        /* \"#utility.yul\":16256:16288   */\n      calldataload\n        /* \"#utility.yul\":16315:16333   */\n      0xffffffffffffffff\n        /* \"#utility.yul\":16307:16313   */\n      dup2\n        /* \"#utility.yul\":16304:16334   */\n      gt\n        /* \"#utility.yul\":16301:16418   */\n      iszero\n      tag_503\n      jumpi\n        /* \"#utility.yul\":16337:16416   */\n      tag_504\n      tag_253\n      jump\t// in\n    tag_504:\n        /* \"#utility.yul\":16301:16418   */\n    tag_503:\n        /* \"#utility.yul\":16442:16505   */\n      tag_505\n        /* \"#utility.yul\":16497:16504   */\n      dup8\n        /* \"#utility.yul\":16488:16494   */\n      dup3\n        /* \"#utility.yul\":16477:16486   */\n      dup9\n        /* \"#utility.yul\":16473:16495   */\n      add\n        /* \"#utility.yul\":16442:16505   */\n      tag_294\n      jump\t// in\n    tag_505:\n        /* \"#utility.yul\":16432:16505   */\n      swap3\n      pop\n        /* \"#utility.yul\":16227:16515   */\n      pop\n        /* \"#utility.yul\":16582:16584   */\n      0x60\n        /* \"#utility.yul\":16571:16580   */\n      dup6\n        /* \"#utility.yul\":16567:16585   */\n      add\n        /* \"#utility.yul\":16554:16586   */\n      calldataload\n        /* \"#utility.yul\":16613:16631   */\n      0xffffffffffffffff\n        /* \"#utility.yul\":16605:16611   */\n      dup2\n        /* \"#utility.yul\":16602:16632   */\n      gt\n        /* \"#utility.yul\":16599:16716   */\n      iszero\n      tag_506\n      jumpi\n        /* \"#utility.yul\":16635:16714   */\n      tag_507\n      tag_253\n      jump\t// in\n    tag_507:\n        /* \"#utility.yul\":16599:16716   */\n    tag_506:\n        /* \"#utility.yul\":16740:16828   */\n      tag_508\n        /* \"#utility.yul\":16820:16827   */\n      dup8\n        /* \"#utility.yul\":16811:16817   */\n      dup3\n        /* \"#utility.yul\":16800:16809   */\n      dup9\n        /* \"#utility.yul\":16796:16818   */\n      add\n        /* \"#utility.yul\":16740:16828   */\n      tag_298\n      jump\t// in\n    tag_508:\n        /* \"#utility.yul\":16730:16828   */\n      swap2\n      pop\n        /* \"#utility.yul\":16525:16838   */\n      pop\n        /* \"#utility.yul\":15310:16845   */\n      swap3\n      swap6\n      swap2\n      swap5\n      pop\n      swap3\n      pop\n      jump\t// out\n        /* \"#utility.yul\":16851:17505   */\n    tag_79:\n        /* \"#utility.yul\":16929:16935   */\n      0x00\n        /* \"#utility.yul\":16937:16943   */\n      dup1\n        /* \"#utility.yul\":16986:16988   */\n      0x40\n        /* \"#utility.yul\":16974:16983   */\n      dup4\n        /* \"#utility.yul\":16965:16972   */\n      dup6\n        /* \"#utility.yul\":16961:16984   */\n      sub\n        /* \"#utility.yul\":16957:16989   */\n      slt\n        /* \"#utility.yul\":16954:17073   */\n      iszero\n      tag_510\n      jumpi\n        /* \"#utility.yul\":16992:17071   */\n      tag_511\n      tag_252\n      jump\t// in\n    tag_511:\n        /* \"#utility.yul\":16954:17073   */\n    tag_510:\n        /* \"#utility.yul\":17112:17113   */\n      0x00\n        /* \"#utility.yul\":17137:17190   */\n      tag_512\n        /* \"#utility.yul\":17182:17189   */\n      dup6\n        /* \"#utility.yul\":17173:17179   */\n      dup3\n        /* \"#utility.yul\":17162:17171   */\n      dup7\n        /* \"#utility.yul\":17158:17180   */\n      add\n        /* \"#utility.yul\":17137:17190   */\n      tag_262\n      jump\t// in\n    tag_512:\n        /* \"#utility.yul\":17127:17190   */\n      swap3\n      pop\n        /* \"#utility.yul\":17083:17200   */\n      pop\n        /* \"#utility.yul\":17267:17269   */\n      0x20\n        /* \"#utility.yul\":17256:17265   */\n      dup4\n        /* \"#utility.yul\":17252:17270   */\n      add\n        /* \"#utility.yul\":17239:17271   */\n      calldataload\n        /* \"#utility.yul\":17298:17316   */\n      0xffffffffffffffff\n        /* \"#utility.yul\":17290:17296   */\n      dup2\n        /* \"#utility.yul\":17287:17317   */\n      gt\n        /* \"#utility.yul\":17284:17401   */\n      iszero\n      tag_513\n      jumpi\n        /* \"#utility.yul\":17320:17399   */\n      tag_514\n      tag_253\n      jump\t// in\n    tag_514:\n        /* \"#utility.yul\":17284:17401   */\n    tag_513:\n        /* \"#utility.yul\":17425:17488   */\n      tag_515\n        /* \"#utility.yul\":17480:17487   */\n      dup6\n        /* \"#utility.yul\":17471:17477   */\n      dup3\n        /* \"#utility.yul\":17460:17469   */\n      dup7\n        /* \"#utility.yul\":17456:17478   */\n      add\n        /* \"#utility.yul\":17425:17488   */\n      tag_294\n      jump\t// in\n    tag_515:\n        /* \"#utility.yul\":17415:17488   */\n      swap2\n      pop\n        /* \"#utility.yul\":17210:17498   */\n      pop\n        /* \"#utility.yul\":16851:17505   */\n      swap3\n      pop\n      swap3\n      swap1\n      pop\n      jump\t// out\n        /* \"#utility.yul\":17511:17625   */\n    tag_299:\n        /* \"#utility.yul\":17578:17584   */\n      0x00\n        /* \"#utility.yul\":17612:17617   */\n      dup2\n        /* \"#utility.yul\":17606:17618   */\n      mload\n        /* \"#utility.yul\":17596:17618   */\n      swap1\n      pop\n        /* \"#utility.yul\":17511:17625   */\n      swap2\n      swap1\n      pop\n      jump\t// out\n        /* \"#utility.yul\":17631:17815   */\n    tag_300:\n        /* \"#utility.yul\":17730:17741   */\n      0x00\n        /* \"#utility.yul\":17764:17770   */\n      dup3\n        /* \"#utility.yul\":17759:17762   */\n      dup3\n        /* \"#utility.yul\":17752:17771   */\n      mstore\n        /* \"#utility.yul\":17804:17808   */\n      0x20\n        /* \"#utility.yul\":17799:17802   */\n      dup3\n        /* \"#utility.yul\":17795:17809   */\n      add\n        /* \"#utility.yul\":17780:17809   */\n      swap1\n      pop\n        /* \"#utility.yul\":17631:17815   */\n      swap3\n      swap2\n      pop\n      pop\n      jump\t// out\n        /* \"#utility.yul\":17821:17953   */\n    tag_301:\n        /* \"#utility.yul\":17888:17892   */\n      0x00\n        /* \"#utility.yul\":17911:17914   */\n      dup2\n        /* \"#utility.yul\":17903:17914   */\n      swap1\n      pop\n        /* \"#utility.yul\":17941:17945   */\n      0x20\n        /* \"#utility.yul\":17936:17939   */\n      dup3\n        /* \"#utility.yul\":17932:17946   */\n      add\n        /* \"#utility.yul\":17924:17946   */\n      swap1\n      pop\n        /* \"#utility.yul\":17821:17953   */\n      swap2\n      swap1\n      pop\n      jump\t// out\n        /* \"#utility.yul\":17959:18138   */\n    tag_302:\n        /* \"#utility.yul\":18028:18038   */\n      0x00\n        /* \"#utility.yul\":18049:18095   */\n      tag_520\n        /* \"#utility.yul\":18091:18094   */\n      dup4\n        /* \"#utility.yul\":18083:18089   */\n      dup4\n        /* \"#utility.yul\":18049:18095   */\n      tag_271\n      jump\t// in\n    tag_520:\n        /* \"#utility.yul\":18127:18131   */\n      0x20\n        /* \"#utility.yul\":18122:18125   */\n      dup4\n        /* \"#utility.yul\":18118:18132   */\n      add\n        /* \"#utility.yul\":18104:18132   */\n      swap1\n      pop\n        /* \"#utility.yul\":17959:18138   */\n      swap3\n      swap2\n      pop\n      pop\n      jump\t// out\n        /* \"#utility.yul\":18144:18257   */\n    tag_303:\n        /* \"#utility.yul\":18214:18218   */\n      0x00\n        /* \"#utility.yul\":18246:18250   */\n      0x20\n        /* \"#utility.yul\":18241:18244   */\n      dup3\n        /* \"#utility.yul\":18237:18251   */\n      add\n        /* \"#utility.yul\":18229:18251   */\n      swap1\n      pop\n        /* \"#utility.yul\":18144:18257   */\n      swap2\n      swap1\n      pop\n      jump\t// out\n        /* \"#utility.yul\":18293:19025   */\n    tag_304:\n        /* \"#utility.yul\":18412:18415   */\n      0x00\n        /* \"#utility.yul\":18441:18495   */\n      tag_523\n        /* \"#utility.yul\":18489:18494   */\n      dup3\n        /* \"#utility.yul\":18441:18495   */\n      tag_299\n      jump\t// in\n    tag_523:\n        /* \"#utility.yul\":18511:18597   */\n      tag_524\n        /* \"#utility.yul\":18590:18596   */\n      dup2\n        /* \"#utility.yul\":18585:18588   */\n      dup6\n        /* \"#utility.yul\":18511:18597   */\n      tag_300\n      jump\t// in\n    tag_524:\n        /* \"#utility.yul\":18504:18597   */\n      swap4\n      pop\n        /* \"#utility.yul\":18621:18677   */\n      tag_525\n        /* \"#utility.yul\":18671:18676   */\n      dup4\n        /* \"#utility.yul\":18621:18677   */\n      tag_301\n      jump\t// in\n    tag_525:\n        /* \"#utility.yul\":18700:18707   */\n      dup1\n        /* \"#utility.yul\":18731:18732   */\n      0x00\n        /* \"#utility.yul\":18716:19000   */\n    tag_526:\n        /* \"#utility.yul\":18741:18747   */\n      dup4\n        /* \"#utility.yul\":18738:18739   */\n      dup2\n        /* \"#utility.yul\":18735:18748   */\n      lt\n        /* \"#utility.yul\":18716:19000   */\n      iszero\n      tag_528\n      jumpi\n        /* \"#utility.yul\":18817:18823   */\n      dup2\n        /* \"#utility.yul\":18811:18824   */\n      mload\n        /* \"#utility.yul\":18844:18907   */\n      tag_529\n        /* \"#utility.yul\":18903:18906   */\n      dup9\n        /* \"#utility.yul\":18888:18901   */\n      dup3\n        /* \"#utility.yul\":18844:18907   */\n      tag_302\n      jump\t// in\n    tag_529:\n        /* \"#utility.yul\":18837:18907   */\n      swap8\n      pop\n        /* \"#utility.yul\":18930:18990   */\n      tag_530\n        /* \"#utility.yul\":18983:18989   */\n      dup4\n        /* \"#utility.yul\":18930:18990   */\n      tag_303\n      jump\t// in\n    tag_530:\n        /* \"#utility.yul\":18920:18990   */\n      swap3\n      pop\n        /* \"#utility.yul\":18776:19000   */\n      pop\n        /* \"#utility.yul\":18763:18764   */\n      0x01\n        /* \"#utility.yul\":18760:18761   */\n      dup2\n        /* \"#utility.yul\":18756:18765   */\n      add\n        /* \"#utility.yul\":18751:18765   */\n      swap1\n      pop\n        /* \"#utility.yul\":18716:19000   */\n      jump(tag_526)\n    tag_528:\n        /* \"#utility.yul\":18720:18734   */\n      pop\n        /* \"#utility.yul\":19016:19019   */\n      dup6\n        /* \"#utility.yul\":19009:19019   */\n      swap4\n      pop\n        /* \"#utility.yul\":18417:19025   */\n      pop\n      pop\n      pop\n        /* \"#utility.yul\":18293:19025   */\n      swap3\n      swap2\n      pop\n      pop\n      jump\t// out\n        /* \"#utility.yul\":19031:19404   */\n    tag_86:\n        /* \"#utility.yul\":19174:19178   */\n      0x00\n        /* \"#utility.yul\":19212:19214   */\n      0x20\n        /* \"#utility.yul\":19201:19210   */\n      dup3\n        /* \"#utility.yul\":19197:19215   */\n      add\n        /* \"#utility.yul\":19189:19215   */\n      swap1\n      pop\n        /* \"#utility.yul\":19261:19270   */\n      dup2\n        /* \"#utility.yul\":19255:19259   */\n      dup2\n        /* \"#utility.yul\":19251:19271   */\n      sub\n        /* \"#utility.yul\":19247:19248   */\n      0x00\n        /* \"#utility.yul\":19236:19245   */\n      dup4\n        /* \"#utility.yul\":19232:19249   */\n      add\n        /* \"#utility.yul\":19225:19272   */\n      mstore\n        /* \"#utility.yul\":19289:19397   */\n      tag_532\n        /* \"#utility.yul\":19392:19396   */\n      dup2\n        /* \"#utility.yul\":19383:19389   */\n      dup5\n        /* \"#utility.yul\":19289:19397   */\n      tag_304\n      jump\t// in\n    tag_532:\n        /* \"#utility.yul\":19281:19397   */\n      swap1\n      pop\n        /* \"#utility.yul\":19031:19404   */\n      swap3\n      swap2\n      pop\n      pop\n      jump\t// out\n        /* \"#utility.yul\":19410:19528   */\n    tag_305:\n        /* \"#utility.yul\":19497:19521   */\n      tag_534\n        /* \"#utility.yul\":19515:19520   */\n      dup2\n        /* \"#utility.yul\":19497:19521   */\n      tag_260\n      jump\t// in\n    tag_534:\n        /* \"#utility.yul\":19492:19495   */\n      dup3\n        /* \"#utility.yul\":19485:19522   */\n      mstore\n        /* \"#utility.yul\":19410:19528   */\n      pop\n      pop\n      jump\t// out\n        /* \"#utility.yul\":19534:19691   */\n    tag_306:\n        /* \"#utility.yul\":19634:19684   */\n      tag_536\n        /* \"#utility.yul\":19678:19683   */\n      dup2\n        /* \"#utility.yul\":19634:19684   */\n      tag_277\n      jump\t// in\n    tag_536:\n        /* \"#utility.yul\":19629:19632   */\n      dup3\n        /* \"#utility.yul\":19622:19685   */\n      mstore\n        /* \"#utility.yul\":19534:19691   */\n      pop\n      pop\n      jump\t// out\n        /* \"#utility.yul\":19697:20993   */\n    tag_96:\n        /* \"#utility.yul\":20059:20063   */\n      0x00\n        /* \"#utility.yul\":20097:20100   */\n      0x0100\n        /* \"#utility.yul\":20086:20095   */\n      dup3\n        /* \"#utility.yul\":20082:20101   */\n      add\n        /* \"#utility.yul\":20074:20101   */\n      swap1\n      pop\n        /* \"#utility.yul\":20111:20182   */\n      tag_538\n        /* \"#utility.yul\":20179:20180   */\n      0x00\n        /* \"#utility.yul\":20168:20177   */\n      dup4\n        /* \"#utility.yul\":20164:20181   */\n      add\n        /* \"#utility.yul\":20155:20161   */\n      dup12\n        /* \"#utility.yul\":20111:20182   */\n      tag_270\n      jump\t// in\n    tag_538:\n        /* \"#utility.yul\":20192:20264   */\n      tag_539\n        /* \"#utility.yul\":20260:20262   */\n      0x20\n        /* \"#utility.yul\":20249:20258   */\n      dup4\n        /* \"#utility.yul\":20245:20263   */\n      add\n        /* \"#utility.yul\":20236:20242   */\n      dup11\n        /* \"#utility.yul\":20192:20264   */\n      tag_305\n      jump\t// in\n    tag_539:\n        /* \"#utility.yul\":20311:20320   */\n      dup2\n        /* \"#utility.yul\":20305:20309   */\n      dup2\n        /* \"#utility.yul\":20301:20321   */\n      sub\n        /* \"#utility.yul\":20296:20298   */\n      0x40\n        /* \"#utility.yul\":20285:20294   */\n      dup4\n        /* \"#utility.yul\":20281:20299   */\n      add\n        /* \"#utility.yul\":20274:20322   */\n      mstore\n        /* \"#utility.yul\":20339:20417   */\n      tag_540\n        /* \"#utility.yul\":20412:20416   */\n      dup2\n        /* \"#utility.yul\":20403:20409   */\n      dup10\n        /* \"#utility.yul\":20339:20417   */\n      tag_269\n      jump\t// in\n    tag_540:\n        /* \"#utility.yul\":20331:20417   */\n      swap1\n      pop\n        /* \"#utility.yul\":20464:20473   */\n      dup2\n        /* \"#utility.yul\":20458:20462   */\n      dup2\n        /* \"#utility.yul\":20454:20474   */\n      sub\n        /* \"#utility.yul\":20449:20451   */\n      0x60\n        /* \"#utility.yul\":20438:20447   */\n      dup4\n        /* \"#utility.yul\":20434:20452   */\n      add\n        /* \"#utility.yul\":20427:20475   */\n      mstore\n        /* \"#utility.yul\":20492:20570   */\n      tag_541\n        /* \"#utility.yul\":20565:20569   */\n      dup2\n        /* \"#utility.yul\":20556:20562   */\n      dup9\n        /* \"#utility.yul\":20492:20570   */\n      tag_269\n      jump\t// in\n    tag_541:\n        /* \"#utility.yul\":20484:20570   */\n      swap1\n      pop\n        /* \"#utility.yul\":20618:20627   */\n      dup2\n        /* \"#utility.yul\":20612:20616   */\n      dup2\n        /* \"#utility.yul\":20608:20628   */\n      sub\n        /* \"#utility.yul\":20602:20605   */\n      0x80\n        /* \"#utility.yul\":20591:20600   */\n      dup4\n        /* \"#utility.yul\":20587:20606   */\n      add\n        /* \"#utility.yul\":20580:20629   */\n      mstore\n        /* \"#utility.yul\":20646:20724   */\n      tag_542\n        /* \"#utility.yul\":20719:20723   */\n      dup2\n        /* \"#utility.yul\":20710:20716   */\n      dup8\n        /* \"#utility.yul\":20646:20724   */\n      tag_269\n      jump\t// in\n    tag_542:\n        /* \"#utility.yul\":20638:20724   */\n      swap1\n      pop\n        /* \"#utility.yul\":20734:20807   */\n      tag_543\n        /* \"#utility.yul\":20802:20805   */\n      0xa0\n        /* \"#utility.yul\":20791:20800   */\n      dup4\n        /* \"#utility.yul\":20787:20806   */\n      add\n        /* \"#utility.yul\":20778:20784   */\n      dup7\n        /* \"#utility.yul\":20734:20807   */\n      tag_270\n      jump\t// in\n    tag_543:\n        /* \"#utility.yul\":20817:20903   */\n      tag_544\n        /* \"#utility.yul\":20898:20901   */\n      0xc0\n        /* \"#utility.yul\":20887:20896   */\n      dup4\n        /* \"#utility.yul\":20883:20902   */\n      add\n        /* \"#utility.yul\":20874:20880   */\n      dup6\n        /* \"#utility.yul\":20817:20903   */\n      tag_306\n      jump\t// in\n    tag_544:\n        /* \"#utility.yul\":20913:20986   */\n      tag_545\n        /* \"#utility.yul\":20981:20984   */\n      0xe0\n        /* \"#utility.yul\":20970:20979   */\n      dup4\n        /* \"#utility.yul\":20966:20985   */\n      add\n        /* \"#utility.yul\":20957:20963   */\n      dup5\n        /* \"#utility.yul\":20913:20986   */\n      tag_270\n      jump\t// in\n    tag_545:\n        /* \"#utility.yul\":19697:20993   */\n      swap10\n      swap9\n      pop\n      pop\n      pop\n      pop\n      pop\n      pop\n      pop\n      pop\n      pop\n      jump\t// out\n        /* \"#utility.yul\":20999:21221   */\n    tag_101:\n        /* \"#utility.yul\":21092:21096   */\n      0x00\n        /* \"#utility.yul\":21130:21132   */\n      0x20\n        /* \"#utility.yul\":21119:21128   */\n      dup3\n        /* \"#utility.yul\":21115:21133   */\n      add\n        /* \"#utility.yul\":21107:21133   */\n      swap1\n      pop\n        /* \"#utility.yul\":21143:21214   */\n      tag_547\n        /* \"#utility.yul\":21211:21212   */\n      0x00\n        /* \"#utility.yul\":21200:21209   */\n      dup4\n        /* \"#utility.yul\":21196:21213   */\n      add\n        /* \"#utility.yul\":21187:21193   */\n      dup5\n        /* \"#utility.yul\":21143:21214   */\n      tag_305\n      jump\t// in\n    tag_547:\n        /* \"#utility.yul\":20999:21221   */\n      swap3\n      swap2\n      pop\n      pop\n      jump\t// out\n        /* \"#utility.yul\":21227:21458   */\n    tag_307:\n        /* \"#utility.yul\":21367:21401   */\n      0x4f6e6c7920706174656e74206f666669636572732063616e20706572666f726d\n        /* \"#utility.yul\":21363:21364   */\n      0x00\n        /* \"#utility.yul\":21355:21361   */\n      dup3\n        /* \"#utility.yul\":21351:21365   */\n      add\n        /* \"#utility.yul\":21344:21402   */\n      mstore\n        /* \"#utility.yul\":21436:21450   */\n      0x207468697320616374696f6e0000000000000000000000000000000000000000\n        /* \"#utility.yul\":21431:21433   */\n      0x20\n        /* \"#utility.yul\":21423:21429   */\n      dup3\n        /* \"#utility.yul\":21419:21434   */\n      add\n        /* \"#utility.yul\":21412:21451   */\n      mstore\n        /* \"#utility.yul\":21227:21458   */\n      pop\n      jump\t// out\n        /* \"#utility.yul\":21464:21830   */\n    tag_308:\n        /* \"#utility.yul\":21606:21609   */\n      0x00\n        /* \"#utility.yul\":21627:21694   */\n      tag_550\n        /* \"#utility.yul\":21691:21693   */\n      0x2c\n        /* \"#utility.yul\":21686:21689   */\n      dup4\n        /* \"#utility.yul\":21627:21694   */\n      tag_266\n      jump\t// in\n    tag_550:\n        /* \"#utility.yul\":21620:21694   */\n      swap2\n      pop\n        /* \"#utility.yul\":21703:21796   */\n      tag_551\n        /* \"#utility.yul\":21792:21795   */\n      dup3\n        /* \"#utility.yul\":21703:21796   */\n      tag_307\n      jump\t// in\n    tag_551:\n        /* \"#utility.yul\":21821:21823   */\n      0x40\n        /* \"#utility.yul\":21816:21819   */\n      dup3\n        /* \"#utility.yul\":21812:21824   */\n      add\n        /* \"#utility.yul\":21805:21824   */\n      swap1\n      pop\n        /* \"#utility.yul\":21464:21830   */\n      swap2\n      swap1\n      pop\n      jump\t// out\n        /* \"#utility.yul\":21836:22255   */\n    tag_105:\n        /* \"#utility.yul\":22002:22006   */\n      0x00\n        /* \"#utility.yul\":22040:22042   */\n      0x20\n        /* \"#utility.yul\":22029:22038   */\n      dup3\n        /* \"#utility.yul\":22025:22043   */\n      add\n        /* \"#utility.yul\":22017:22043   */\n      swap1\n      pop\n        /* \"#utility.yul\":22089:22098   */\n      dup2\n        /* \"#utility.yul\":22083:22087   */\n      dup2\n        /* \"#utility.yul\":22079:22099   */\n      sub\n        /* \"#utility.yul\":22075:22076   */\n      0x00\n        /* \"#utility.yul\":22064:22073   */\n      dup4\n        /* \"#utility.yul\":22060:22077   */\n      add\n        /* \"#utility.yul\":22053:22100   */\n      mstore\n        /* \"#utility.yul\":22117:22248   */\n      tag_553\n        /* \"#utility.yul\":22243:22247   */\n      dup2\n        /* \"#utility.yul\":22117:22248   */\n      tag_308\n      jump\t// in\n    tag_553:\n        /* \"#utility.yul\":22109:22248   */\n      swap1\n      pop\n        /* \"#utility.yul\":21836:22255   */\n      swap2\n      swap1\n      pop\n      jump\t// out\n        /* \"#utility.yul\":22261:22428   */\n    tag_309:\n        /* \"#utility.yul\":22401:22420   */\n      0x496e76616c696420706174656e74204944000000000000000000000000000000\n        /* \"#utility.yul\":22397:22398   */\n      0x00\n        /* \"#utility.yul\":22389:22395   */\n      dup3\n        /* \"#utility.yul\":22385:22399   */\n      add\n        /* \"#utility.yul\":22378:22421   */\n      mstore\n        /* \"#utility.yul\":22261:22428   */\n      pop\n      jump\t// out\n        /* \"#utility.yul\":22434:22800   */\n    tag_310:\n        /* \"#utility.yul\":22576:22579   */\n      0x00\n        /* \"#utility.yul\":22597:22664   */\n      tag_556\n        /* \"#utility.yul\":22661:22663   */\n      0x11\n        /* \"#utility.yul\":22656:22659   */\n      dup4\n        /* \"#utility.yul\":22597:22664   */\n      tag_266\n      jump\t// in\n    tag_556:\n        /* \"#utility.yul\":22590:22664   */\n      swap2\n      pop\n        /* \"#utility.yul\":22673:22766   */\n      tag_557\n        /* \"#utility.yul\":22762:22765   */\n      dup3\n        /* \"#utility.yul\":22673:22766   */\n      tag_309\n      jump\t// in\n    tag_557:\n        /* \"#utility.yul\":22791:22793   */\n      0x20\n        /* \"#utility.yul\":22786:22789   */\n      dup3\n        /* \"#utility.yul\":22782:22794   */\n      add\n        /* \"#utility.yul\":22775:22794   */\n      swap1\n      pop\n        /* \"#utility.yul\":22434:22800   */\n      swap2\n      swap1\n      pop\n      jump\t// out\n        /* \"#utility.yul\":22806:23225   */\n    tag_110:\n        /* \"#utility.yul\":22972:22976   */\n      0x00\n        /* \"#utility.yul\":23010:23012   */\n      0x20\n        /* \"#utility.yul\":22999:23008   */\n      dup3\n        /* \"#utility.yul\":22995:23013   */\n      add\n        /* \"#utility.yul\":22987:23013   */\n      swap1\n      pop\n        /* \"#utility.yul\":23059:23068   */\n      dup2\n        /* \"#utility.yul\":23053:23057   */\n      dup2\n        /* \"#utility.yul\":23049:23069   */\n      sub\n        /* \"#utility.yul\":23045:23046   */\n      0x00\n        /* \"#utility.yul\":23034:23043   */\n      dup4\n        /* \"#utility.yul\":23030:23047   */\n      add\n        /* \"#utility.yul\":23023:23070   */\n      mstore\n        /* \"#utility.yul\":23087:23218   */\n      tag_559\n        /* \"#utility.yul\":23213:23217   */\n      dup2\n        /* \"#utility.yul\":23087:23218   */\n      tag_310\n      jump\t// in\n    tag_559:\n        /* \"#utility.yul\":23079:23218   */\n      swap1\n      pop\n        /* \"#utility.yul\":22806:23225   */\n      swap2\n      swap1\n      pop\n      jump\t// out\n        /* \"#utility.yul\":23231:23451   */\n    tag_311:\n        /* \"#utility.yul\":23371:23405   */\n      0x43616e6e6f742073657420737461747573206261636b20746f2070656e64696e\n        /* \"#utility.yul\":23367:23368   */\n      0x00\n        /* \"#utility.yul\":23359:23365   */\n      dup3\n        /* \"#utility.yul\":23355:23369   */\n      add\n        /* \"#utility.yul\":23348:23406   */\n      mstore\n        /* \"#utility.yul\":23440:23443   */\n      0x6700000000000000000000000000000000000000000000000000000000000000\n        /* \"#utility.yul\":23435:23437   */\n      0x20\n        /* \"#utility.yul\":23427:23433   */\n      dup3\n        /* \"#utility.yul\":23423:23438   */\n      add\n        /* \"#utility.yul\":23416:23444   */\n      mstore\n        /* \"#utility.yul\":23231:23451   */\n      pop\n      jump\t// out\n        /* \"#utility.yul\":23457:23823   */\n    tag_312:\n        /* \"#utility.yul\":23599:23602   */\n      0x00\n        /* \"#utility.yul\":23620:23687   */\n      tag_562\n        /* \"#utility.yul\":23684:23686   */\n      0x21\n        /* \"#utility.yul\":23679:23682   */\n      dup4\n        /* \"#utility.yul\":23620:23687   */\n      tag_266\n      jump\t// in\n    tag_562:\n        /* \"#utility.yul\":23613:23687   */\n      swap2\n      pop\n        /* \"#utility.yul\":23696:23789   */\n      tag_563\n        /* \"#utility.yul\":23785:23788   */\n      dup3\n        /* \"#utility.yul\":23696:23789   */\n      tag_311\n      jump\t// in\n    tag_563:\n        /* \"#utility.yul\":23814:23816   */\n      0x40\n        /* \"#utility.yul\":23809:23812   */\n      dup3\n        /* \"#utility.yul\":23805:23817   */\n      add\n        /* \"#utility.yul\":23798:23817   */\n      swap1\n      pop\n        /* \"#utility.yul\":23457:23823   */\n      swap2\n      swap1\n      pop\n      jump\t// out\n        /* \"#utility.yul\":23829:24248   */\n    tag_119:\n        /* \"#utility.yul\":23995:23999   */\n      0x00\n        /* \"#utility.yul\":24033:24035   */\n      0x20\n        /* \"#utility.yul\":24022:24031   */\n      dup3\n        /* \"#utility.yul\":24018:24036   */\n      add\n        /* \"#utility.yul\":24010:24036   */\n      swap1\n      pop\n        /* \"#utility.yul\":24082:24091   */\n      dup2\n        /* \"#utility.yul\":24076:24080   */\n      dup2\n        /* \"#utility.yul\":24072:24092   */\n      sub\n        /* \"#utility.yul\":24068:24069   */\n      0x00\n        /* \"#utility.yul\":24057:24066   */\n      dup4\n        /* \"#utility.yul\":24053:24070   */\n      add\n        /* \"#utility.yul\":24046:24093   */\n      mstore\n        /* \"#utility.yul\":24110:24241   */\n      tag_565\n        /* \"#utility.yul\":24236:24240   */\n      dup2\n        /* \"#utility.yul\":24110:24241   */\n      tag_312\n      jump\t// in\n    tag_565:\n        /* \"#utility.yul\":24102:24241   */\n      swap1\n      pop\n        /* \"#utility.yul\":23829:24248   */\n      swap2\n      swap1\n      pop\n      jump\t// out\n        /* \"#utility.yul\":24254:24502   */\n    tag_123:\n        /* \"#utility.yul\":24360:24364   */\n      0x00\n        /* \"#utility.yul\":24398:24400   */\n      0x20\n        /* \"#utility.yul\":24387:24396   */\n      dup3\n        /* \"#utility.yul\":24383:24401   */\n      add\n        /* \"#utility.yul\":24375:24401   */\n      swap1\n      pop\n        /* \"#utility.yul\":24411:24495   */\n      tag_567\n        /* \"#utility.yul\":24492:24493   */\n      0x00\n        /* \"#utility.yul\":24481:24490   */\n      dup4\n        /* \"#utility.yul\":24477:24494   */\n      add\n        /* \"#utility.yul\":24468:24474   */\n      dup5\n        /* \"#utility.yul\":24411:24495   */\n      tag_306\n      jump\t// in\n    tag_567:\n        /* \"#utility.yul\":24254:24502   */\n      swap3\n      swap2\n      pop\n      pop\n      jump\t// out\n        /* \"#utility.yul\":24508:24688   */\n    tag_313:\n        /* \"#utility.yul\":24556:24633   */\n      0x4e487b7100000000000000000000000000000000000000000000000000000000\n        /* \"#utility.yul\":24553:24554   */\n      0x00\n        /* \"#utility.yul\":24546:24634   */\n      mstore\n        /* \"#utility.yul\":24653:24657   */\n      0x22\n        /* \"#utility.yul\":24650:24651   */\n      0x04\n        /* \"#utility.yul\":24643:24658   */\n      mstore\n        /* \"#utility.yul\":24677:24681   */\n      0x24\n        /* \"#utility.yul\":24674:24675   */\n      0x00\n        /* \"#utility.yul\":24667:24682   */\n      revert\n        /* \"#utility.yul\":24694:25014   */\n    tag_125:\n        /* \"#utility.yul\":24738:24744   */\n      0x00\n        /* \"#utility.yul\":24775:24776   */\n      0x02\n        /* \"#utility.yul\":24769:24773   */\n      dup3\n        /* \"#utility.yul\":24765:24777   */\n      div\n        /* \"#utility.yul\":24755:24777   */\n      swap1\n      pop\n        /* \"#utility.yul\":24822:24823   */\n      0x01\n        /* \"#utility.yul\":24816:24820   */\n      dup3\n        /* \"#utility.yul\":24812:24824   */\n      and\n        /* \"#utility.yul\":24843:24861   */\n      dup1\n        /* \"#utility.yul\":24833:24914   */\n      tag_570\n      jumpi\n        /* \"#utility.yul\":24899:24903   */\n      0x7f\n        /* \"#utility.yul\":24891:24897   */\n      dup3\n        /* \"#utility.yul\":24887:24904   */\n      and\n        /* \"#utility.yul\":24877:24904   */\n      swap2\n      pop\n        /* \"#utility.yul\":24833:24914   */\n    tag_570:\n        /* \"#utility.yul\":24961:24963   */\n      0x20\n        /* \"#utility.yul\":24953:24959   */\n      dup3\n        /* \"#utility.yul\":24950:24964   */\n      lt\n        /* \"#utility.yul\":24930:24948   */\n      dup2\n        /* \"#utility.yul\":24927:24965   */\n      sub\n        /* \"#utility.yul\":24924:25008   */\n      tag_571\n      jumpi\n        /* \"#utility.yul\":24980:24998   */\n      tag_572\n      tag_313\n      jump\t// in\n    tag_572:\n        /* \"#utility.yul\":24924:25008   */\n    tag_571:\n        /* \"#utility.yul\":24745:25014   */\n      pop\n        /* \"#utility.yul\":24694:25014   */\n      swap2\n      swap1\n      pop\n      jump\t// out\n        /* \"#utility.yul\":25020:25241   */\n    tag_314:\n        /* \"#utility.yul\":25160:25194   */\n      0x4f6e6c792061646d696e2063616e20706572666f726d20746869732061637469\n        /* \"#utility.yul\":25156:25157   */\n      0x00\n        /* \"#utility.yul\":25148:25154   */\n      dup3\n        /* \"#utility.yul\":25144:25158   */\n      add\n        /* \"#utility.yul\":25137:25195   */\n      mstore\n        /* \"#utility.yul\":25229:25233   */\n      0x6f6e000000000000000000000000000000000000000000000000000000000000\n        /* \"#utility.yul\":25224:25226   */\n      0x20\n        /* \"#utility.yul\":25216:25222   */\n      dup3\n        /* \"#utility.yul\":25212:25227   */\n      add\n        /* \"#utility.yul\":25205:25234   */\n      mstore\n        /* \"#utility.yul\":25020:25241   */\n      pop\n      jump\t// out\n        /* \"#utility.yul\":25247:25613   */\n    tag_315:\n        /* \"#utility.yul\":25389:25392   */\n      0x00\n        /* \"#utility.yul\":25410:25477   */\n      tag_575\n        /* \"#utility.yul\":25474:25476   */\n      0x22\n        /* \"#utility.yul\":25469:25472   */\n      dup4\n        /* \"#utility.yul\":25410:25477   */\n      tag_266\n      jump\t// in\n    tag_575:\n        /* \"#utility.yul\":25403:25477   */\n      swap2\n      pop\n        /* \"#utility.yul\":25486:25579   */\n      tag_576\n        /* \"#utility.yul\":25575:25578   */\n      dup3\n        /* \"#utility.yul\":25486:25579   */\n      tag_314\n      jump\t// in\n    tag_576:\n        /* \"#utility.yul\":25604:25606   */\n      0x40\n        /* \"#utility.yul\":25599:25602   */\n      dup3\n        /* \"#utility.yul\":25595:25607   */\n      add\n        /* \"#utility.yul\":25588:25607   */\n      swap1\n      pop\n        /* \"#utility.yul\":25247:25613   */\n      swap2\n      swap1\n      pop\n      jump\t// out\n        /* \"#utility.yul\":25619:26038   */\n    tag_133:\n        /* \"#utility.yul\":25785:25789   */\n      0x00\n        /* \"#utility.yul\":25823:25825   */\n      0x20\n        /* \"#utility.yul\":25812:25821   */\n      dup3\n        /* \"#utility.yul\":25808:25826   */\n      add\n        /* \"#utility.yul\":25800:25826   */\n      swap1\n      pop\n        /* \"#utility.yul\":25872:25881   */\n      dup2\n        /* \"#utility.yul\":25866:25870   */\n      dup2\n        /* \"#utility.yul\":25862:25882   */\n      sub\n        /* \"#utility.yul\":25858:25859   */\n      0x00\n        /* \"#utility.yul\":25847:25856   */\n      dup4\n        /* \"#utility.yul\":25843:25860   */\n      add\n        /* \"#utility.yul\":25836:25883   */\n      mstore\n        /* \"#utility.yul\":25900:26031   */\n      tag_578\n        /* \"#utility.yul\":26026:26030   */\n      dup2\n        /* \"#utility.yul\":25900:26031   */\n      tag_315\n      jump\t// in\n    tag_578:\n        /* \"#utility.yul\":25892:26031   */\n      swap1\n      pop\n        /* \"#utility.yul\":25619:26038   */\n      swap2\n      swap1\n      pop\n      jump\t// out\n        /* \"#utility.yul\":26044:26216   */\n    tag_316:\n        /* \"#utility.yul\":26184:26208   */\n      0x4f66666963657220646f6573206e6f7420657869737400000000000000000000\n        /* \"#utility.yul\":26180:26181   */\n      0x00\n        /* \"#utility.yul\":26172:26178   */\n      dup3\n        /* \"#utility.yul\":26168:26182   */\n      add\n        /* \"#utility.yul\":26161:26209   */\n      mstore\n        /* \"#utility.yul\":26044:26216   */\n      pop\n      jump\t// out\n        /* \"#utility.yul\":26222:26588   */\n    tag_317:\n        /* \"#utility.yul\":26364:26367   */\n      0x00\n        /* \"#utility.yul\":26385:26452   */\n      tag_581\n        /* \"#utility.yul\":26449:26451   */\n      0x16\n        /* \"#utility.yul\":26444:26447   */\n      dup4\n        /* \"#utility.yul\":26385:26452   */\n      tag_266\n      jump\t// in\n    tag_581:\n        /* \"#utility.yul\":26378:26452   */\n      swap2\n      pop\n        /* \"#utility.yul\":26461:26554   */\n      tag_582\n        /* \"#utility.yul\":26550:26553   */\n      dup3\n        /* \"#utility.yul\":26461:26554   */\n      tag_316\n      jump\t// in\n    tag_582:\n        /* \"#utility.yul\":26579:26581   */\n      0x20\n        /* \"#utility.yul\":26574:26577   */\n      dup3\n        /* \"#utility.yul\":26570:26582   */\n      add\n        /* \"#utility.yul\":26563:26582   */\n      swap1\n      pop\n        /* \"#utility.yul\":26222:26588   */\n      swap2\n      swap1\n      pop\n      jump\t// out\n        /* \"#utility.yul\":26594:27013   */\n    tag_137:\n        /* \"#utility.yul\":26760:26764   */\n      0x00\n        /* \"#utility.yul\":26798:26800   */\n      0x20\n        /* \"#utility.yul\":26787:26796   */\n      dup3\n        /* \"#utility.yul\":26783:26801   */\n      add\n        /* \"#utility.yul\":26775:26801   */\n      swap1\n      pop\n        /* \"#utility.yul\":26847:26856   */\n      dup2\n        /* \"#utility.yul\":26841:26845   */\n      dup2\n        /* \"#utility.yul\":26837:26857   */\n      sub\n        /* \"#utility.yul\":26833:26834   */\n      0x00\n        /* \"#utility.yul\":26822:26831   */\n      dup4\n        /* \"#utility.yul\":26818:26835   */\n      add\n        /* \"#utility.yul\":26811:26858   */\n      mstore\n        /* \"#utility.yul\":26875:27006   */\n      tag_584\n        /* \"#utility.yul\":27001:27005   */\n      dup2\n        /* \"#utility.yul\":26875:27006   */\n      tag_317\n      jump\t// in\n    tag_584:\n        /* \"#utility.yul\":26867:27006   */\n      swap1\n      pop\n        /* \"#utility.yul\":26594:27013   */\n      swap2\n      swap1\n      pop\n      jump\t// out\n        /* \"#utility.yul\":27019:27189   */\n    tag_318:\n        /* \"#utility.yul\":27159:27181   */\n      0x496e636f72726563742066696c696e6720666565000000000000000000000000\n        /* \"#utility.yul\":27155:27156   */\n      0x00\n        /* \"#utility.yul\":27147:27153   */\n      dup3\n        /* \"#utility.yul\":27143:27157   */\n      add\n        /* \"#utility.yul\":27136:27182   */\n      mstore\n        /* \"#utility.yul\":27019:27189   */\n      pop\n      jump\t// out\n        /* \"#utility.yul\":27195:27561   */\n    tag_319:\n        /* \"#utility.yul\":27337:27340   */\n      0x00\n        /* \"#utility.yul\":27358:27425   */\n      tag_587\n        /* \"#utility.yul\":27422:27424   */\n      0x14\n        /* \"#utility.yul\":27417:27420   */\n      dup4\n        /* \"#utility.yul\":27358:27425   */\n      tag_266\n      jump\t// in\n    tag_587:\n        /* \"#utility.yul\":27351:27425   */\n      swap2\n      pop\n        /* \"#utility.yul\":27434:27527   */\n      tag_588\n        /* \"#utility.yul\":27523:27526   */\n      dup3\n        /* \"#utility.yul\":27434:27527   */\n      tag_318\n      jump\t// in\n    tag_588:\n        /* \"#utility.yul\":27552:27554   */\n      0x20\n        /* \"#utility.yul\":27547:27550   */\n      dup3\n        /* \"#utility.yul\":27543:27555   */\n      add\n        /* \"#utility.yul\":27536:27555   */\n      swap1\n      pop\n        /* \"#utility.yul\":27195:27561   */\n      swap2\n      swap1\n      pop\n      jump\t// out\n        /* \"#utility.yul\":27567:27986   */\n    tag_188:\n        /* \"#utility.yul\":27733:27737   */\n      0x00\n        /* \"#utility.yul\":27771:27773   */\n      0x20\n        /* \"#utility.yul\":27760:27769   */\n      dup3\n        /* \"#utility.yul\":27756:27774   */\n      add\n        /* \"#utility.yul\":27748:27774   */\n      swap1\n      pop\n        /* \"#utility.yul\":27820:27829   */\n      dup2\n        /* \"#utility.yul\":27814:27818   */\n      dup2\n        /* \"#utility.yul\":27810:27830   */\n      sub\n        /* \"#utility.yul\":27806:27807   */\n      0x00\n        /* \"#utility.yul\":27795:27804   */\n      dup4\n        /* \"#utility.yul\":27791:27808   */\n      add\n        /* \"#utility.yul\":27784:27831   */\n      mstore\n        /* \"#utility.yul\":27848:27979   */\n      tag_590\n        /* \"#utility.yul\":27974:27978   */\n      dup2\n        /* \"#utility.yul\":27848:27979   */\n      tag_319\n      jump\t// in\n    tag_590:\n        /* \"#utility.yul\":27840:27979   */\n      swap1\n      pop\n        /* \"#utility.yul\":27567:27986   */\n      swap2\n      swap1\n      pop\n      jump\t// out\n        /* \"#utility.yul\":27992:28172   */\n    tag_320:\n        /* \"#utility.yul\":28040:28117   */\n      0x4e487b7100000000000000000000000000000000000000000000000000000000\n        /* \"#utility.yul\":28037:28038   */\n      0x00\n        /* \"#utility.yul\":28030:28118   */\n      mstore\n        /* \"#utility.yul\":28137:28141   */\n      0x11\n        /* \"#utility.yul\":28134:28135   */\n      0x04\n        /* \"#utility.yul\":28127:28142   */\n      mstore\n        /* \"#utility.yul\":28161:28165   */\n      0x24\n        /* \"#utility.yul\":28158:28159   */\n      0x00\n        /* \"#utility.yul\":28151:28166   */\n      revert\n        /* \"#utility.yul\":28178:28411   */\n    tag_190:\n        /* \"#utility.yul\":28217:28220   */\n      0x00\n        /* \"#utility.yul\":28240:28264   */\n      tag_593\n        /* \"#utility.yul\":28258:28263   */\n      dup3\n        /* \"#utility.yul\":28240:28264   */\n      tag_254\n      jump\t// in\n    tag_593:\n        /* \"#utility.yul\":28231:28264   */\n      swap2\n      pop\n        /* \"#utility.yul\":28286:28352   */\n      0xffffffffffffffffffffffffffffffffffffffffffffffffffffffffffffffff\n        /* \"#utility.yul\":28279:28284   */\n      dup3\n        /* \"#utility.yul\":28276:28353   */\n      sub\n        /* \"#utility.yul\":28273:28376   */\n      tag_594\n      jumpi\n        /* \"#utility.yul\":28356:28374   */\n      tag_595\n      tag_320\n      jump\t// in\n    tag_595:\n        /* \"#utility.yul\":28273:28376   */\n    tag_594:\n        /* \"#utility.yul\":28403:28404   */\n      0x01\n        /* \"#utility.yul\":28396:28401   */\n      dup3\n        /* \"#utility.yul\":28392:28405   */\n      add\n        /* \"#utility.yul\":28385:28405   */\n      swap1\n      pop\n        /* \"#utility.yul\":28178:28411   */\n      swap2\n      swap1\n      pop\n      jump\t// out\n        /* \"#utility.yul\":28417:28558   */\n    tag_321:\n        /* \"#utility.yul\":28466:28470   */\n      0x00\n        /* \"#utility.yul\":28489:28492   */\n      dup2\n        /* \"#utility.yul\":28481:28492   */\n      swap1\n      pop\n        /* \"#utility.yul\":28512:28515   */\n      dup2\n        /* \"#utility.yul\":28509:28510   */\n      0x00\n        /* \"#utility.yul\":28502:28516   */\n      mstore\n        /* \"#utility.yul\":28546:28550   */\n      0x20\n        /* \"#utility.yul\":28543:28544   */\n      0x00\n        /* \"#utility.yul\":28533:28551   */\n      keccak256\n        /* \"#utility.yul\":28525:28551   */\n      swap1\n      pop\n        /* \"#utility.yul\":28417:28558   */\n      swap2\n      swap1\n      pop\n      jump\t// out\n        /* \"#utility.yul\":28564:28657   */\n    tag_322:\n        /* \"#utility.yul\":28601:28607   */\n      0x00\n        /* \"#utility.yul\":28648:28650   */\n      0x20\n        /* \"#utility.yul\":28643:28645   */\n      0x1f\n        /* \"#utility.yul\":28636:28641   */\n      dup4\n        /* \"#utility.yul\":28632:28646   */\n      add\n        /* \"#utility.yul\":28628:28651   */\n      div\n        /* \"#utility.yul\":28618:28651   */\n      swap1\n      pop\n        /* \"#utility.yul\":28564:28657   */\n      swap2\n      swap1\n      pop\n      jump\t// out\n        /* \"#utility.yul\":28663:28770   */\n    tag_323:\n        /* \"#utility.yul\":28707:28715   */\n      0x00\n        /* \"#utility.yul\":28757:28762   */\n      dup3\n        /* \"#utility.yul\":28751:28755   */\n      dup3\n        /* \"#utility.yul\":28747:28763   */\n      shl\n        /* \"#utility.yul\":28726:28763   */\n      swap1\n      pop\n        /* \"#utility.yul\":28663:28770   */\n      swap3\n      swap2\n      pop\n      pop\n      jump\t// out\n        /* \"#utility.yul\":28776:29169   */\n    tag_324:\n        /* \"#utility.yul\":28845:28851   */\n      0x00\n        /* \"#utility.yul\":28895:28896   */\n      0x08\n        /* \"#utility.yul\":28883:28893   */\n      dup4\n        /* \"#utility.yul\":28879:28897   */\n      mul\n        /* \"#utility.yul\":28918:29015   */\n      tag_600\n        /* \"#utility.yul\":28948:29014   */\n      0xffffffffffffffffffffffffffffffffffffffffffffffffffffffffffffffff\n        /* \"#utility.yul\":28937:28946   */\n      dup3\n        /* \"#utility.yul\":28918:29015   */\n      tag_323\n      jump\t// in\n    tag_600:\n        /* \"#utility.yul\":29036:29075   */\n      tag_601\n        /* \"#utility.yul\":29066:29074   */\n      dup7\n        /* \"#utility.yul\":29055:29064   */\n      dup4\n        /* \"#utility.yul\":29036:29075   */\n      tag_323\n      jump\t// in\n    tag_601:\n        /* \"#utility.yul\":29024:29075   */\n      swap6\n      pop\n        /* \"#utility.yul\":29108:29112   */\n      dup1\n        /* \"#utility.yul\":29104:29113   */\n      not\n        /* \"#utility.yul\":29097:29102   */\n      dup5\n        /* \"#utility.yul\":29093:29114   */\n      and\n        /* \"#utility.yul\":29084:29114   */\n      swap4\n      pop\n        /* \"#utility.yul\":29157:29161   */\n      dup1\n        /* \"#utility.yul\":29147:29155   */\n      dup7\n        /* \"#utility.yul\":29143:29162   */\n      and\n        /* \"#utility.yul\":29136:29141   */\n      dup5\n        /* \"#utility.yul\":29133:29163   */\n      or\n        /* \"#utility.yul\":29123:29163   */\n      swap3\n      pop\n        /* \"#utility.yul\":28852:29169   */\n      pop\n      pop\n        /* \"#utility.yul\":28776:29169   */\n      swap4\n      swap3\n      pop\n      pop\n      pop\n      jump\t// out\n        /* \"#utility.yul\":29175:29235   */\n    tag_325:\n        /* \"#utility.yul\":29203:29206   */\n      0x00\n        /* \"#utility.yul\":29224:29229   */\n      dup2\n        /* \"#utility.yul\":29217:29229   */\n      swap1\n      pop\n        /* \"#utility.yul\":29175:29235   */\n      swap2\n      swap1\n      pop\n      jump\t// out\n        /* \"#utility.yul\":29241:29383   */\n    tag_326:\n        /* \"#utility.yul\":29291:29300   */\n      0x00\n        /* \"#utility.yul\":29324:29377   */\n      tag_604\n        /* \"#utility.yul\":29342:29376   */\n      tag_605\n        /* \"#utility.yul\":29351:29375   */\n      tag_606\n        /* \"#utility.yul\":29369:29374   */\n      dup5\n        /* \"#utility.yul\":29351:29375   */\n      tag_254\n      jump\t// in\n    tag_606:\n        /* \"#utility.yul\":29342:29376   */\n      tag_325\n      jump\t// in\n    tag_605:\n        /* \"#utility.yul\":29324:29377   */\n      tag_254\n      jump\t// in\n    tag_604:\n        /* \"#utility.yul\":29311:29377   */\n      swap1\n      pop\n        /* \"#utility.yul\":29241:29383   */\n      swap2\n      swap1\n      pop\n      jump\t// out\n        /* \"#utility.yul\":29389:29464   */\n    tag_327:\n        /* \"#utility.yul\":29432:29435   */\n      0x00\n        /* \"#utility.yul\":29453:29458   */\n      dup2\n        /* \"#utility.yul\":29446:29458   */\n      swap1\n      pop\n        /* \"#utility.yul\":29389:29464   */\n      swap2\n      swap1\n      pop\n      jump\t// out\n        /* \"#utility.yul\":29470:29739   */\n    tag_328:\n        /* \"#utility.yul\":29580:29619   */\n      tag_609\n        /* \"#utility.yul\":29611:29618   */\n      dup4\n        /* \"#utility.yul\":29580:29619   */\n      tag_326\n      jump\t// in\n    tag_609:\n        /* \"#utility.yul\":29641:29732   */\n      tag_610\n        /* \"#utility.yul\":29690:29731   */\n      tag_611\n        /* \"#utility.yul\":29714:29730   */\n      dup3\n        /* \"#utility.yul\":29690:29731   */\n      tag_327\n      jump\t// in\n    tag_611:\n        /* \"#utility.yul\":29682:29688   */\n      dup5\n        /* \"#utility.yul\":29675:29679   */\n      dup5\n        /* \"#utility.yul\":29669:29680   */\n      sload\n        /* \"#utility.yul\":29641:29732   */\n      tag_324\n      jump\t// in\n    tag_610:\n        /* \"#utility.yul\":29635:29639   */\n      dup3\n        /* \"#utility.yul\":29628:29733   */\n      sstore\n        /* \"#utility.yul\":29546:29739   */\n      pop\n        /* \"#utility.yul\":29470:29739   */\n      pop\n      pop\n      pop\n      jump\t// out\n        /* \"#utility.yul\":29745:29818   */\n    tag_329:\n        /* \"#utility.yul\":29790:29793   */\n      0x00\n        /* \"#utility.yul\":29745:29818   */\n      swap1\n      jump\t// out\n        /* \"#utility.yul\":29824:30013   */\n    tag_330:\n        /* \"#utility.yul\":29901:29933   */\n      tag_614\n      tag_329\n      jump\t// in\n    tag_614:\n        /* \"#utility.yul\":29942:30007   */\n      tag_615\n        /* \"#utility.yul\":30000:30006   */\n      dup2\n        /* \"#utility.yul\":29992:29998   */\n      dup5\n        /* \"#utility.yul\":29986:29990   */\n      dup5\n        /* \"#utility.yul\":29942:30007   */\n      tag_328\n      jump\t// in\n    tag_615:\n        /* \"#utility.yul\":29877:30013   */\n      pop\n        /* \"#utility.yul\":29824:30013   */\n      pop\n      pop\n      jump\t// out\n        /* \"#utility.yul\":30019:30205   */\n    tag_331:\n        /* \"#utility.yul\":30079:30199   */\n    tag_617:\n        /* \"#utility.yul\":30096:30099   */\n      dup2\n        /* \"#utility.yul\":30089:30094   */\n      dup2\n        /* \"#utility.yul\":30086:30100   */\n      lt\n        /* \"#utility.yul\":30079:30199   */\n      iszero\n      tag_619\n      jumpi\n        /* \"#utility.yul\":30150:30189   */\n      tag_620\n        /* \"#utility.yul\":30187:30188   */\n      0x00\n        /* \"#utility.yul\":30180:30185   */\n      dup3\n        /* \"#utility.yul\":30150:30189   */\n      tag_330\n      jump\t// in\n    tag_620:\n        /* \"#utility.yul\":30123:30124   */\n      0x01\n        /* \"#utility.yul\":30116:30121   */\n      dup2\n        /* \"#utility.yul\":30112:30125   */\n      add\n        /* \"#utility.yul\":30103:30125   */\n      swap1\n      pop\n        /* \"#utility.yul\":30079:30199   */\n      jump(tag_617)\n    tag_619:\n        /* \"#utility.yul\":30019:30205   */\n      pop\n      pop\n      jump\t// out\n        /* \"#utility.yul\":30211:30754   */\n    tag_332:\n        /* \"#utility.yul\":30312:30314   */\n      0x1f\n        /* \"#utility.yul\":30307:30310   */\n      dup3\n        /* \"#utility.yul\":30304:30315   */\n      gt\n        /* \"#utility.yul\":30301:30747   */\n      iszero\n      tag_622\n      jumpi\n        /* \"#utility.yul\":30346:30384   */\n      tag_623\n        /* \"#utility.yul\":30378:30383   */\n      dup2\n        /* \"#utility.yul\":30346:30384   */\n      tag_321\n      jump\t// in\n    tag_623:\n        /* \"#utility.yul\":30430:30459   */\n      tag_624\n        /* \"#utility.yul\":30448:30458   */\n      dup5\n        /* \"#utility.yul\":30430:30459   */\n      tag_322\n      jump\t// in\n    tag_624:\n        /* \"#utility.yul\":30420:30428   */\n      dup2\n        /* \"#utility.yul\":30416:30460   */\n      add\n        /* \"#utility.yul\":30613:30615   */\n      0x20\n        /* \"#utility.yul\":30601:30611   */\n      dup6\n        /* \"#utility.yul\":30598:30616   */\n      lt\n        /* \"#utility.yul\":30595:30644   */\n      iszero\n      tag_625\n      jumpi\n        /* \"#utility.yul\":30634:30642   */\n      dup2\n        /* \"#utility.yul\":30619:30642   */\n      swap1\n      pop\n        /* \"#utility.yul\":30595:30644   */\n    tag_625:\n        /* \"#utility.yul\":30657:30737   */\n      tag_626\n        /* \"#utility.yul\":30713:30735   */\n      tag_627\n        /* \"#utility.yul\":30731:30734   */\n      dup6\n        /* \"#utility.yul\":30713:30735   */\n      tag_322\n      jump\t// in\n    tag_627:\n        /* \"#utility.yul\":30703:30711   */\n      dup4\n        /* \"#utility.yul\":30699:30736   */\n      add\n        /* \"#utility.yul\":30686:30697   */\n      dup3\n        /* \"#utility.yul\":30657:30737   */\n      tag_331\n      jump\t// in\n    tag_626:\n        /* \"#utility.yul\":30316:30747   */\n      pop\n      pop\n        /* \"#utility.yul\":30301:30747   */\n    tag_622:\n        /* \"#utility.yul\":30211:30754   */\n      pop\n      pop\n      pop\n      jump\t// out\n        /* \"#utility.yul\":30760:30877   */\n    tag_333:\n        /* \"#utility.yul\":30814:30822   */\n      0x00\n        /* \"#utility.yul\":30864:30869   */\n      dup3\n        /* \"#utility.yul\":30858:30862   */\n      dup3\n        /* \"#utility.yul\":30854:30870   */\n      shr\n        /* \"#utility.yul\":30833:30870   */\n      swap1\n      pop\n        /* \"#utility.yul\":30760:30877   */\n      swap3\n      swap2\n      pop\n      pop\n      jump\t// out\n        /* \"#utility.yul\":30883:31052   */\n    tag_334:\n        /* \"#utility.yul\":30927:30933   */\n      0x00\n        /* \"#utility.yul\":30960:31011   */\n      tag_630\n        /* \"#utility.yul\":31008:31009   */\n      0x00\n        /* \"#utility.yul\":31004:31010   */\n      not\n        /* \"#utility.yul\":30996:31001   */\n      dup5\n        /* \"#utility.yul\":30993:30994   */\n      0x08\n        /* \"#utility.yul\":30989:31002   */\n      mul\n        /* \"#utility.yul\":30960:31011   */\n      tag_333\n      jump\t// in\n    tag_630:\n        /* \"#utility.yul\":30956:31012   */\n      not\n        /* \"#utility.yul\":31041:31045   */\n      dup1\n        /* \"#utility.yul\":31035:31039   */\n      dup4\n        /* \"#utility.yul\":31031:31046   */\n      and\n        /* \"#utility.yul\":31021:31046   */\n      swap2\n      pop\n        /* \"#utility.yul\":30934:31052   */\n      pop\n        /* \"#utility.yul\":30883:31052   */\n      swap3\n      swap2\n      pop\n      pop\n      jump\t// out\n        /* \"#utility.yul\":31057:31352   */\n    tag_335:\n        /* \"#utility.yul\":31133:31137   */\n      0x00\n        /* \"#utility.yul\":31279:31308   */\n      tag_632\n        /* \"#utility.yul\":31304:31307   */\n      dup4\n        /* \"#utility.yul\":31298:31302   */\n      dup4\n        /* \"#utility.yul\":31279:31308   */\n      tag_334\n      jump\t// in\n    tag_632:\n        /* \"#utility.yul\":31271:31308   */\n      swap2\n      pop\n        /* \"#utility.yul\":31341:31344   */\n      dup3\n        /* \"#utility.yul\":31338:31339   */\n      0x02\n        /* \"#utility.yul\":31334:31345   */\n      mul\n        /* \"#utility.yul\":31328:31332   */\n      dup3\n        /* \"#utility.yul\":31325:31346   */\n      or\n        /* \"#utility.yul\":31317:31346   */\n      swap1\n      pop\n        /* \"#utility.yul\":31057:31352   */\n      swap3\n      swap2\n      pop\n      pop\n      jump\t// out\n        /* \"#utility.yul\":31357:32752   */\n    tag_192:\n        /* \"#utility.yul\":31474:31511   */\n      tag_634\n        /* \"#utility.yul\":31507:31510   */\n      dup3\n        /* \"#utility.yul\":31474:31511   */\n      tag_265\n      jump\t// in\n    tag_634:\n        /* \"#utility.yul\":31576:31594   */\n      0xffffffffffffffff\n        /* \"#utility.yul\":31568:31574   */\n      dup2\n        /* \"#utility.yul\":31565:31595   */\n      gt\n        /* \"#utility.yul\":31562:31618   */\n      iszero\n      tag_635\n      jumpi\n        /* \"#utility.yul\":31598:31616   */\n      tag_636\n      tag_288\n      jump\t// in\n    tag_636:\n        /* \"#utility.yul\":31562:31618   */\n    tag_635:\n        /* \"#utility.yul\":31642:31680   */\n      tag_637\n        /* \"#utility.yul\":31674:31678   */\n      dup3\n        /* \"#utility.yul\":31668:31679   */\n      sload\n        /* \"#utility.yul\":31642:31680   */\n      tag_125\n      jump\t// in\n    tag_637:\n        /* \"#utility.yul\":31727:31794   */\n      tag_638\n        /* \"#utility.yul\":31787:31793   */\n      dup3\n        /* \"#utility.yul\":31779:31785   */\n      dup3\n        /* \"#utility.yul\":31773:31777   */\n      dup6\n        /* \"#utility.yul\":31727:31794   */\n      tag_332\n      jump\t// in\n    tag_638:\n        /* \"#utility.yul\":31821:31822   */\n      0x00\n        /* \"#utility.yul\":31845:31849   */\n      0x20\n        /* \"#utility.yul\":31832:31849   */\n      swap1\n      pop\n        /* \"#utility.yul\":31877:31879   */\n      0x1f\n        /* \"#utility.yul\":31869:31875   */\n      dup4\n        /* \"#utility.yul\":31866:31880   */\n      gt\n        /* \"#utility.yul\":31894:31895   */\n      0x01\n        /* \"#utility.yul\":31889:32507   */\n      dup2\n      eq\n      tag_640\n      jumpi\n        /* \"#utility.yul\":32551:32552   */\n      0x00\n        /* \"#utility.yul\":32568:32574   */\n      dup5\n        /* \"#utility.yul\":32565:32642   */\n      iszero\n      tag_641\n      jumpi\n        /* \"#utility.yul\":32617:32626   */\n      dup3\n        /* \"#utility.yul\":32612:32615   */\n      dup8\n        /* \"#utility.yul\":32608:32627   */\n      add\n        /* \"#utility.yul\":32602:32628   */\n      mload\n        /* \"#utility.yul\":32593:32628   */\n      swap1\n      pop\n        /* \"#utility.yul\":32565:32642   */\n    tag_641:\n        /* \"#utility.yul\":32668:32735   */\n      tag_642\n        /* \"#utility.yul\":32728:32734   */\n      dup6\n        /* \"#utility.yul\":32721:32726   */\n      dup3\n        /* \"#utility.yul\":32668:32735   */\n      tag_335\n      jump\t// in\n    tag_642:\n        /* \"#utility.yul\":32662:32666   */\n      dup7\n        /* \"#utility.yul\":32655:32736   */\n      sstore\n        /* \"#utility.yul\":32524:32746   */\n      pop\n        /* \"#utility.yul\":31859:32746   */\n      jump(tag_639)\n        /* \"#utility.yul\":31889:32507   */\n    tag_640:\n        /* \"#utility.yul\":31941:31945   */\n      0x1f\n        /* \"#utility.yul\":31937:31946   */\n      not\n        /* \"#utility.yul\":31929:31935   */\n      dup5\n        /* \"#utility.yul\":31925:31947   */\n      and\n        /* \"#utility.yul\":31975:32012   */\n      tag_643\n        /* \"#utility.yul\":32007:32011   */\n      dup7\n        /* \"#utility.yul\":31975:32012   */\n      tag_321\n      jump\t// in\n    tag_643:\n        /* \"#utility.yul\":32034:32035   */\n      0x00\n        /* \"#utility.yul\":32048:32256   */\n    tag_644:\n        /* \"#utility.yul\":32062:32069   */\n      dup3\n        /* \"#utility.yul\":32059:32060   */\n      dup2\n        /* \"#utility.yul\":32056:32070   */\n      lt\n        /* \"#utility.yul\":32048:32256   */\n      iszero\n      tag_646\n      jumpi\n        /* \"#utility.yul\":32141:32150   */\n      dup5\n        /* \"#utility.yul\":32136:32139   */\n      dup10\n        /* \"#utility.yul\":32132:32151   */\n      add\n        /* \"#utility.yul\":32126:32152   */\n      mload\n        /* \"#utility.yul\":32118:32124   */\n      dup3\n        /* \"#utility.yul\":32111:32153   */\n      sstore\n        /* \"#utility.yul\":32192:32193   */\n      0x01\n        /* \"#utility.yul\":32184:32190   */\n      dup3\n        /* \"#utility.yul\":32180:32194   */\n      add\n        /* \"#utility.yul\":32170:32194   */\n      swap2\n      pop\n        /* \"#utility.yul\":32239:32241   */\n      0x20\n        /* \"#utility.yul\":32228:32237   */\n      dup6\n        /* \"#utility.yul\":32224:32242   */\n      add\n        /* \"#utility.yul\":32211:32242   */\n      swap5\n      pop\n        /* \"#utility.yul\":32085:32089   */\n      0x20\n        /* \"#utility.yul\":32082:32083   */\n      dup2\n        /* \"#utility.yul\":32078:32090   */\n      add\n        /* \"#utility.yul\":32073:32090   */\n      swap1\n      pop\n        /* \"#utility.yul\":32048:32256   */\n      jump(tag_644)\n    tag_646:\n        /* \"#utility.yul\":32284:32290   */\n      dup7\n        /* \"#utility.yul\":32275:32282   */\n      dup4\n        /* \"#utility.yul\":32272:32291   */\n      lt\n        /* \"#utility.yul\":32269:32448   */\n      iszero\n      tag_647\n      jumpi\n        /* \"#utility.yul\":32342:32351   */\n      dup5\n        /* \"#utility.yul\":32337:32340   */\n      dup10\n        /* \"#utility.yul\":32333:32352   */\n      add\n        /* \"#utility.yul\":32327:32353   */\n      mload\n        /* \"#utility.yul\":32385:32433   */\n      tag_648\n        /* \"#utility.yul\":32427:32431   */\n      0x1f\n        /* \"#utility.yul\":32419:32425   */\n      dup10\n        /* \"#utility.yul\":32415:32432   */\n      and\n        /* \"#utility.yul\":32404:32413   */\n      dup3\n        /* \"#utility.yul\":32385:32433   */\n      tag_334\n      jump\t// in\n    tag_648:\n        /* \"#utility.yul\":32377:32383   */\n      dup4\n        /* \"#utility.yul\":32370:32434   */\n      sstore\n        /* \"#utility.yul\":32292:32448   */\n      pop\n        /* \"#utility.yul\":32269:32448   */\n    tag_647:\n        /* \"#utility.yul\":32494:32495   */\n      0x01\n        /* \"#utility.yul\":32490:32491   */\n      0x02\n        /* \"#utility.yul\":32482:32488   */\n      dup9\n        /* \"#utility.yul\":32478:32492   */\n      mul\n        /* \"#utility.yul\":32474:32496   */\n      add\n        /* \"#utility.yul\":32468:32472   */\n      dup9\n        /* \"#utility.yul\":32461:32497   */\n      sstore\n        /* \"#utility.yul\":31896:32507   */\n      pop\n      pop\n      pop\n        /* \"#utility.yul\":31859:32746   */\n    tag_639:\n      pop\n        /* \"#utility.yul\":31449:32752   */\n      pop\n      pop\n      pop\n        /* \"#utility.yul\":31357:32752   */\n      pop\n      pop\n      jump\t// out\n        /* \"#utility.yul\":32758:32949   */\n    tag_200:\n        /* \"#utility.yul\":32798:32801   */\n      0x00\n        /* \"#utility.yul\":32817:32837   */\n      tag_650\n        /* \"#utility.yul\":32835:32836   */\n      dup3\n        /* \"#utility.yul\":32817:32837   */\n      tag_254\n      jump\t// in\n    tag_650:\n        /* \"#utility.yul\":32812:32837   */\n      swap2\n      pop\n        /* \"#utility.yul\":32851:32871   */\n      tag_651\n        /* \"#utility.yul\":32869:32870   */\n      dup4\n        /* \"#utility.yul\":32851:32871   */\n      tag_254\n      jump\t// in\n    tag_651:\n        /* \"#utility.yul\":32846:32871   */\n      swap3\n      pop\n        /* \"#utility.yul\":32894:32895   */\n      dup3\n        /* \"#utility.yul\":32891:32892   */\n      dup3\n        /* \"#utility.yul\":32887:32896   */\n      add\n        /* \"#utility.yul\":32880:32896   */\n      swap1\n      pop\n        /* \"#utility.yul\":32915:32918   */\n      dup1\n        /* \"#utility.yul\":32912:32913   */\n      dup3\n        /* \"#utility.yul\":32909:32919   */\n      gt\n        /* \"#utility.yul\":32906:32942   */\n      iszero\n      tag_652\n      jumpi\n        /* \"#utility.yul\":32922:32940   */\n      tag_653\n      tag_320\n      jump\t// in\n    tag_653:\n        /* \"#utility.yul\":32906:32942   */\n    tag_652:\n        /* \"#utility.yul\":32758:32949   */\n      swap3\n      swap2\n      pop\n      pop\n      jump\t// out\n        /* \"#utility.yul\":32955:33469   */\n    tag_203:\n        /* \"#utility.yul\":33116:33120   */\n      0x00\n        /* \"#utility.yul\":33154:33156   */\n      0x40\n        /* \"#utility.yul\":33143:33152   */\n      dup3\n        /* \"#utility.yul\":33139:33157   */\n      add\n        /* \"#utility.yul\":33131:33157   */\n      swap1\n      pop\n        /* \"#utility.yul\":33203:33212   */\n      dup2\n        /* \"#utility.yul\":33197:33201   */\n      dup2\n        /* \"#utility.yul\":33193:33213   */\n      sub\n        /* \"#utility.yul\":33189:33190   */\n      0x00\n        /* \"#utility.yul\":33178:33187   */\n      dup4\n        /* \"#utility.yul\":33174:33191   */\n      add\n        /* \"#utility.yul\":33167:33214   */\n      mstore\n        /* \"#utility.yul\":33231:33309   */\n      tag_655\n        /* \"#utility.yul\":33304:33308   */\n      dup2\n        /* \"#utility.yul\":33295:33301   */\n      dup6\n        /* \"#utility.yul\":33231:33309   */\n      tag_269\n      jump\t// in\n    tag_655:\n        /* \"#utility.yul\":33223:33309   */\n      swap1\n      pop\n        /* \"#utility.yul\":33356:33365   */\n      dup2\n        /* \"#utility.yul\":33350:33354   */\n      dup2\n        /* \"#utility.yul\":33346:33366   */\n      sub\n        /* \"#utility.yul\":33341:33343   */\n      0x20\n        /* \"#utility.yul\":33330:33339   */\n      dup4\n        /* \"#utility.yul\":33326:33344   */\n      add\n        /* \"#utility.yul\":33319:33367   */\n      mstore\n        /* \"#utility.yul\":33384:33462   */\n      tag_656\n        /* \"#utility.yul\":33457:33461   */\n      dup2\n        /* \"#utility.yul\":33448:33454   */\n      dup5\n        /* \"#utility.yul\":33384:33462   */\n      tag_269\n      jump\t// in\n    tag_656:\n        /* \"#utility.yul\":33376:33462   */\n      swap1\n      pop\n        /* \"#utility.yul\":32955:33469   */\n      swap4\n      swap3\n      pop\n      pop\n      pop\n      jump\t// out\n        /* \"#utility.yul\":33475:33647   */\n    tag_336:\n        /* \"#utility.yul\":33615:33639   */\n      0x4f66666963657220616c72656164792065786973747300000000000000000000\n        /* \"#utility.yul\":33611:33612   */\n      0x00\n        /* \"#utility.yul\":33603:33609   */\n      dup3\n        /* \"#utility.yul\":33599:33613   */\n      add\n        /* \"#utility.yul\":33592:33640   */\n      mstore\n        /* \"#utility.yul\":33475:33647   */\n      pop\n      jump\t// out\n        /* \"#utility.yul\":33653:34019   */\n    tag_337:\n        /* \"#utility.yul\":33795:33798   */\n      0x00\n        /* \"#utility.yul\":33816:33883   */\n      tag_659\n        /* \"#utility.yul\":33880:33882   */\n      0x16\n        /* \"#utility.yul\":33875:33878   */\n      dup4\n        /* \"#utility.yul\":33816:33883   */\n      tag_266\n      jump\t// in\n    tag_659:\n        /* \"#utility.yul\":33809:33883   */\n      swap2\n      pop\n        /* \"#utility.yul\":33892:33985   */\n      tag_660\n        /* \"#utility.yul\":33981:33984   */\n      dup3\n        /* \"#utility.yul\":33892:33985   */\n      tag_336\n      jump\t// in\n    tag_660:\n        /* \"#utility.yul\":34010:34012   */\n      0x20\n        /* \"#utility.yul\":34005:34008   */\n      dup3\n        /* \"#utility.yul\":34001:34013   */\n      add\n        /* \"#utility.yul\":33994:34013   */\n      swap1\n      pop\n        /* \"#utility.yul\":33653:34019   */\n      swap2\n      swap1\n      pop\n      jump\t// out\n        /* \"#utility.yul\":34025:34444   */\n    tag_210:\n        /* \"#utility.yul\":34191:34195   */\n      0x00\n        /* \"#utility.yul\":34229:34231   */\n      0x20\n        /* \"#utility.yul\":34218:34227   */\n      dup3\n        /* \"#utility.yul\":34214:34232   */\n      add\n        /* \"#utility.yul\":34206:34232   */\n      swap1\n      pop\n        /* \"#utility.yul\":34278:34287   */\n      dup2\n        /* \"#utility.yul\":34272:34276   */\n      dup2\n        /* \"#utility.yul\":34268:34288   */\n      sub\n        /* \"#utility.yul\":34264:34265   */\n      0x00\n        /* \"#utility.yul\":34253:34262   */\n      dup4\n        /* \"#utility.yul\":34249:34266   */\n      add\n        /* \"#utility.yul\":34242:34289   */\n      mstore\n        /* \"#utility.yul\":34306:34437   */\n      tag_662\n        /* \"#utility.yul\":34432:34436   */\n      dup2\n        /* \"#utility.yul\":34306:34437   */\n      tag_337\n      jump\t// in\n    tag_662:\n        /* \"#utility.yul\":34298:34437   */\n      swap1\n      pop\n        /* \"#utility.yul\":34025:34444   */\n      swap2\n      swap1\n      pop\n      jump\t// out\n        /* \"#utility.yul\":34450:34763   */\n    tag_213:\n        /* \"#utility.yul\":34563:34567   */\n      0x00\n        /* \"#utility.yul\":34601:34603   */\n      0x20\n        /* \"#utility.yul\":34590:34599   */\n      dup3\n        /* \"#utility.yul\":34586:34604   */\n      add\n        /* \"#utility.yul\":34578:34604   */\n      swap1\n      pop\n        /* \"#utility.yul\":34650:34659   */\n      dup2\n        /* \"#utility.yul\":34644:34648   */\n      dup2\n        /* \"#utility.yul\":34640:34660   */\n      sub\n        /* \"#utility.yul\":34636:34637   */\n      0x00\n        /* \"#utility.yul\":34625:34634   */\n      dup4\n        /* \"#utility.yul\":34621:34638   */\n      add\n        /* \"#utility.yul\":34614:34661   */\n      mstore\n        /* \"#utility.yul\":34678:34756   */\n      tag_664\n        /* \"#utility.yul\":34751:34755   */\n      dup2\n        /* \"#utility.yul\":34742:34748   */\n      dup5\n        /* \"#utility.yul\":34678:34756   */\n      tag_269\n      jump\t// in\n    tag_664:\n        /* \"#utility.yul\":34670:34756   */\n      swap1\n      pop\n        /* \"#utility.yul\":34450:34763   */\n      swap3\n      swap2\n      pop\n      pop\n      jump\t// out\n\n    auxdata: 0xa2646970667358221220f231382f63ae671020c41ee0ece0e833e2d604a152829f3f8080d5b4c5b3c8a564736f6c63430008130033\n}\n",
				"bytecode": {
					"linkReferences": {},
					"object": "608060405267016345785d8a000060055534801561001c57600080fd5b5033600460006101000a81548173ffffffffffffffffffffffffffffffffffffffff021916908373ffffffffffffffffffffffffffffffffffffffff1602179055506128658061006d6000396000f3fe6080604052600436106100f35760003560e01c80639c6d0d781161008a578063ce9011c311610059578063ce9011c31461031b578063e26becc214610358578063f422bc6814610383578063f851a440146103c7576100f3565b80639c6d0d781461026e578063b084c841146102ab578063c470e97e146102d6578063c79f25ca146102f2576100f3565b80633ec991fa116100c65780633ec991fa146101b2578063476343ee146101ef5780638e5ebf531461020657806395aa359014610231576100f3565b80630ecae274146100f85780631744afec1461012157806318de52c8146101605780633c9e98f714610189575b600080fd5b34801561010457600080fd5b5061011f600480360381019061011a91906116de565b6103f2565b005b34801561012d57600080fd5b506101486004803603810190610143919061177c565b6105b4565b60405161015793929190611863565b60405180910390f35b34801561016c57600080fd5b506101876004803603810190610182919061177c565b610673565b005b34801561019557600080fd5b506101b060048036038101906101ab91906118a1565b610833565b005b3480156101be57600080fd5b506101d960048036038101906101d4919061177c565b6108cd565b6040516101e691906118ce565b60405180910390f35b3480156101fb57600080fd5b50610204610926565b005b34801561021257600080fd5b5061021b610a21565b60405161022891906118e9565b60405180910390f35b34801561023d57600080fd5b5061025860048036038101906102539190611904565b610a29565b60405161026591906118e9565b60405180910390f35b34801561027a57600080fd5b50610295600480360381019061029091906118a1565b610a5a565b6040516102a29190611bbf565b60405180910390f35b3480156102b757600080fd5b506102c0610e18565b6040516102cd91906118e9565b60405180910390f35b6102f060048036038101906102eb9190611dfc565b610e1e565b005b3480156102fe57600080fd5b5061031960048036038101906103149190611ed3565b61103f565b005b34801561032757600080fd5b50610342600480360381019061033d919061177c565b611251565b60405161034f9190611fde565b60405180910390f35b34801561036457600080fd5b5061036d6112e8565b60405161037a91906118e9565b60405180910390f35b34801561038f57600080fd5b506103aa60048036038101906103a591906118a1565b6112ee565b6040516103be98979695949392919061201e565b60405180910390f35b3480156103d357600080fd5b506103dc6114fb565b6040516103e991906120b1565b60405180910390f35b600160003373ffffffffffffffffffffffffffffffffffffffff1673ffffffffffffffffffffffffffffffffffffffff16815260200190815260200160002060000160009054906101000a900460ff16610481576040517f08c379a00000000000000000000000000000000000000000000000000000000081526004016104789061213e565b60405180910390fd5b8160008111801561049457506003548111155b6104d3576040517f08c379a00000000000000000000000000000000000000000000000000000000081526004016104ca906121aa565b60405180910390fd5b600060048111156104e7576104e66119ac565b5b8260048111156104fa576104f96119ac565b5b0361053a576040517f08c379a00000000000000000000000000000000000000000000000000000000081526004016105319061223c565b60405180910390fd5b8160008085815260200190815260200160002060060160006101000a81548160ff02191690836004811115610572576105716119ac565b5b0217905550827fd7c67ad449553c78533fe0cf74a4c33a8ce3834a94a20491487d924b222819c8836040516105a7919061225c565b60405180910390a2505050565b60016020528060005260406000206000915090508060000160009054906101000a900460ff16908060010180546105ea906122a6565b80601f0160208091040260200160405190810160405280929190818152602001828054610616906122a6565b80156106635780601f1061063857610100808354040283529160200191610663565b820191906000526020600020905b81548152906001019060200180831161064657829003601f168201915b5050505050908060020154905083565b600460009054906101000a900473ffffffffffffffffffffffffffffffffffffffff1673ffffffffffffffffffffffffffffffffffffffff163373ffffffffffffffffffffffffffffffffffffffff1614610703576040517f08c379a00000000000000000000000000000000000000000000000000000000081526004016106fa90612349565b60405180910390fd5b600160008273ffffffffffffffffffffffffffffffffffffffff1673ffffffffffffffffffffffffffffffffffffffff16815260200190815260200160002060000160009054906101000a900460ff16610792576040517f08c379a0000000000000000000000000000000000000000000000000000000008152600401610789906123b5565b60405180910390fd5b6000600160008373ffffffffffffffffffffffffffffffffffffffff1673ffffffffffffffffffffffffffffffffffffffff16815260200190815260200160002060000160006101000a81548160ff0219169083151502179055508073ffffffffffffffffffffffffffffffffffffffff167f4914a81b7f20a7f271a4740e7f39b8e5b9712cd5f5a36491d63657be736d249760405160405180910390a250565b600460009054906101000a900473ffffffffffffffffffffffffffffffffffffffff1673ffffffffffffffffffffffffffffffffffffffff163373ffffffffffffffffffffffffffffffffffffffff16146108c3576040517f08c379a00000000000000000000000000000000000000000000000000000000081526004016108ba90612349565b60405180910390fd5b8060058190555050565b6000600160008373ffffffffffffffffffffffffffffffffffffffff1673ffffffffffffffffffffffffffffffffffffffff16815260200190815260200160002060000160009054906101000a900460ff169050919050565b600460009054906101000a900473ffffffffffffffffffffffffffffffffffffffff1673ffffffffffffffffffffffffffffffffffffffff163373ffffffffffffffffffffffffffffffffffffffff16146109b6576040517f08c379a00000000000000000000000000000000000000000000000000000000081526004016109ad90612349565b60405180910390fd5b600460009054906101000a900473ffffffffffffffffffffffffffffffffffffffff1673ffffffffffffffffffffffffffffffffffffffff166108fc479081150290604051600060405180830381858888f19350505050158015610a1e573d6000803e3d6000fd5b50565b6312cc030081565b60026020528160005260406000208181548110610a4557600080fd5b90600052602060002001600091509150505481565b610a62611521565b81600081118015610a7557506003548111155b610ab4576040517f08c379a0000000000000000000000000000000000000000000000000000000008152600401610aab906121aa565b60405180910390fd5b60008084815260200190815260200160002060405180610120016040529081600082015481526020016001820160009054906101000a900473ffffffffffffffffffffffffffffffffffffffff1673ffffffffffffffffffffffffffffffffffffffff1673ffffffffffffffffffffffffffffffffffffffff168152602001600282018054610b42906122a6565b80601f0160208091040260200160405190810160405280929190818152602001828054610b6e906122a6565b8015610bbb5780601f10610b9057610100808354040283529160200191610bbb565b820191906000526020600020905b815481529060010190602001808311610b9e57829003601f168201915b50505050508152602001600382018054610bd4906122a6565b80601f0160208091040260200160405190810160405280929190818152602001828054610c00906122a6565b8015610c4d5780601f10610c2257610100808354040283529160200191610c4d565b820191906000526020600020905b815481529060010190602001808311610c3057829003601f168201915b50505050508152602001600482018054610c66906122a6565b80601f0160208091040260200160405190810160405280929190818152602001828054610c92906122a6565b8015610cdf5780601f10610cb457610100808354040283529160200191610cdf565b820191906000526020600020905b815481529060010190602001808311610cc257829003601f168201915b50505050508152602001600582015481526020016006820160009054906101000a900460ff166004811115610d1757610d166119ac565b5b6004811115610d2957610d286119ac565b5b815260200160078201805480602002602001604051908101604052809291908181526020016000905b82821015610dfe578382906000526020600020018054610d71906122a6565b80601f0160208091040260200160405190810160405280929190818152602001828054610d9d906122a6565b8015610dea5780601f10610dbf57610100808354040283529160200191610dea565b820191906000526020600020905b815481529060010190602001808311610dcd57829003601f168201915b505050505081526020019060010190610d52565b505050508152602001600882015481525050915050919050565b60035481565b6005543414610e62576040517f08c379a0000000000000000000000000000000000000000000000000000000008152600401610e5990612421565b60405180910390fd5b60036000815480929190610e7590612470565b91905055506000806000600354815260200190815260200160002090506003548160000181905550338160010160006101000a81548173ffffffffffffffffffffffffffffffffffffffff021916908373ffffffffffffffffffffffffffffffffffffffff16021790555084816003019081610ef19190612664565b5083816004019081610f039190612664565b5082816002019081610f159190612664565b5042816005018190555060008160060160006101000a81548160ff02191690836004811115610f4757610f466119ac565b5b021790555081816007019080519060200190610f64929190611595565b506312cc030042610f759190612736565b8160080181905550600260003373ffffffffffffffffffffffffffffffffffffffff1673ffffffffffffffffffffffffffffffffffffffff16815260200190815260200160002060035490806001815401808255809150506001900390600052602060002001600090919091909150553373ffffffffffffffffffffffffffffffffffffffff166003547fbd7c4dd042a73368807dfa21f246ea4baa1f108b7b4e599d4f1d85b40a91b666878660405161103092919061276a565b60405180910390a35050505050565b600460009054906101000a900473ffffffffffffffffffffffffffffffffffffffff1673ffffffffffffffffffffffffffffffffffffffff163373ffffffffffffffffffffffffffffffffffffffff16146110cf576040517f08c379a00000000000000000000000000000000000000000000000000000000081526004016110c690612349565b60405180910390fd5b600160008373ffffffffffffffffffffffffffffffffffffffff1673ffffffffffffffffffffffffffffffffffffffff16815260200190815260200160002060000160009054906101000a900460ff161561115f576040517f08c379a0000000000000000000000000000000000000000000000000000000008152600401611156906127ed565b60405180910390fd5b604051806060016040528060011515815260200182815260200142815250600160008473ffffffffffffffffffffffffffffffffffffffff1673ffffffffffffffffffffffffffffffffffffffff16815260200190815260200160002060008201518160000160006101000a81548160ff02191690831515021790555060208201518160010190816111f19190612664565b50604082015181600201559050508173ffffffffffffffffffffffffffffffffffffffff167f43429047dd0037cb1f918f0b25737727d6a6a262e1e2f200cb7004bd5807dfd082604051611245919061280d565b60405180910390a25050565b6060600260008373ffffffffffffffffffffffffffffffffffffffff1673ffffffffffffffffffffffffffffffffffffffff1681526020019081526020016000208054806020026020016040519081016040528092919081815260200182805480156112dc57602002820191906000526020600020905b8154815260200190600101908083116112c8575b50505050509050919050565b60055481565b60006020528060005260406000206000915090508060000154908060010160009054906101000a900473ffffffffffffffffffffffffffffffffffffffff169080600201805461133d906122a6565b80601f0160208091040260200160405190810160405280929190818152602001828054611369906122a6565b80156113b65780601f1061138b576101008083540402835291602001916113b6565b820191906000526020600020905b81548152906001019060200180831161139957829003601f168201915b5050505050908060030180546113cb906122a6565b80601f01602080910402602001604051908101604052809291908181526020018280546113f7906122a6565b80156114445780601f1061141957610100808354040283529160200191611444565b820191906000526020600020905b81548152906001019060200180831161142757829003601f168201915b505050505090806004018054611459906122a6565b80601f0160208091040260200160405190810160405280929190818152602001828054611485906122a6565b80156114d25780601f106114a7576101008083540402835291602001916114d2565b820191906000526020600020905b8154815290600101906020018083116114b557829003601f168201915b5050505050908060050154908060060160009054906101000a900460ff16908060080154905088565b600460009054906101000a900473ffffffffffffffffffffffffffffffffffffffff1681565b60405180610120016040528060008152602001600073ffffffffffffffffffffffffffffffffffffffff1681526020016060815260200160608152602001606081526020016000815260200160006004811115611581576115806119ac565b5b815260200160608152602001600081525090565b8280548282559060005260206000209081019282156115dd579160200282015b828111156115dc5782518290816115cc9190612664565b50916020019190600101906115b5565b5b5090506115ea91906115ee565b5090565b5b8082111561160e57600081816116059190611612565b506001016115ef565b5090565b50805461161e906122a6565b6000825580601f10611630575061164f565b601f01602090049060005260206000209081019061164e9190611652565b5b50565b5b8082111561166b576000816000905550600101611653565b5090565b6000604051905090565b600080fd5b600080fd5b6000819050919050565b61169681611683565b81146116a157600080fd5b50565b6000813590506116b38161168d565b92915050565b600581106116c657600080fd5b50565b6000813590506116d8816116b9565b92915050565b600080604083850312156116f5576116f4611679565b5b6000611703858286016116a4565b9250506020611714858286016116c9565b9150509250929050565b600073ffffffffffffffffffffffffffffffffffffffff82169050919050565b60006117498261171e565b9050919050565b6117598161173e565b811461176457600080fd5b50565b60008135905061177681611750565b92915050565b60006020828403121561179257611791611679565b5b60006117a084828501611767565b91505092915050565b60008115159050919050565b6117be816117a9565b82525050565b600081519050919050565b600082825260208201905092915050565b60005b838110156117fe5780820151818401526020810190506117e3565b60008484015250505050565b6000601f19601f8301169050919050565b6000611826826117c4565b61183081856117cf565b93506118408185602086016117e0565b6118498161180a565b840191505092915050565b61185d81611683565b82525050565b600060608201905061187860008301866117b5565b818103602083015261188a818561181b565b90506118996040830184611854565b949350505050565b6000602082840312156118b7576118b6611679565b5b60006118c5848285016116a4565b91505092915050565b60006020820190506118e360008301846117b5565b92915050565b60006020820190506118fe6000830184611854565b92915050565b6000806040838503121561191b5761191a611679565b5b600061192985828601611767565b925050602061193a858286016116a4565b9150509250929050565b61194d81611683565b82525050565b61195c8161173e565b82525050565b600082825260208201905092915050565b600061197e826117c4565b6119888185611962565b93506119988185602086016117e0565b6119a18161180a565b840191505092915050565b7f4e487b7100000000000000000000000000000000000000000000000000000000600052602160045260246000fd5b600581106119ec576119eb6119ac565b5b50565b60008190506119fd826119db565b919050565b6000611a0d826119ef565b9050919050565b611a1d81611a02565b82525050565b600081519050919050565b600082825260208201905092915050565b6000819050602082019050919050565b6000611a5b8383611973565b905092915050565b6000602082019050919050565b6000611a7b82611a23565b611a858185611a2e565b935083602082028501611a9785611a3f565b8060005b85811015611ad35784840389528151611ab48582611a4f565b9450611abf83611a63565b925060208a01995050600181019050611a9b565b50829750879550505050505092915050565b600061012083016000830151611afe6000860182611944565b506020830151611b116020860182611953565b5060408301518482036040860152611b298282611973565b91505060608301518482036060860152611b438282611973565b91505060808301518482036080860152611b5d8282611973565b91505060a0830151611b7260a0860182611944565b5060c0830151611b8560c0860182611a14565b5060e083015184820360e0860152611b9d8282611a70565b915050610100830151611bb4610100860182611944565b508091505092915050565b60006020820190508181036000830152611bd98184611ae5565b905092915050565b600080fd5b600080fd5b7f4e487b7100000000000000000000000000000000000000000000000000000000600052604160045260246000fd5b611c238261180a565b810181811067ffffffffffffffff82111715611c4257611c41611beb565b5b80604052505050565b6000611c5561166f565b9050611c618282611c1a565b919050565b600067ffffffffffffffff821115611c8157611c80611beb565b5b611c8a8261180a565b9050602081019050919050565b82818337600083830152505050565b6000611cb9611cb484611c66565b611c4b565b905082815260208101848484011115611cd557611cd4611be6565b5b611ce0848285611c97565b509392505050565b600082601f830112611cfd57611cfc611be1565b5b8135611d0d848260208601611ca6565b91505092915050565b600067ffffffffffffffff821115611d3157611d30611beb565b5b602082029050602081019050919050565b600080fd5b6000611d5a611d5584611d16565b611c4b565b90508083825260208201905060208402830185811115611d7d57611d7c611d42565b5b835b81811015611dc457803567ffffffffffffffff811115611da257611da1611be1565b5b808601611daf8982611ce8565b85526020850194505050602081019050611d7f565b5050509392505050565b600082601f830112611de357611de2611be1565b5b8135611df3848260208601611d47565b91505092915050565b60008060008060808587031215611e1657611e15611679565b5b600085013567ffffffffffffffff811115611e3457611e3361167e565b5b611e4087828801611ce8565b945050602085013567ffffffffffffffff811115611e6157611e6061167e565b5b611e6d87828801611ce8565b935050604085013567ffffffffffffffff811115611e8e57611e8d61167e565b5b611e9a87828801611ce8565b925050606085013567ffffffffffffffff811115611ebb57611eba61167e565b5b611ec787828801611dce565b91505092959194509250565b60008060408385031215611eea57611ee9611679565b5b6000611ef885828601611767565b925050602083013567ffffffffffffffff811115611f1957611f1861167e565b5b611f2585828601611ce8565b9150509250929050565b600081519050919050565b600082825260208201905092915050565b6000819050602082019050919050565b6000611f678383611944565b60208301905092915050565b6000602082019050919050565b6000611f8b82611f2f565b611f958185611f3a565b9350611fa083611f4b565b8060005b83811015611fd1578151611fb88882611f5b565b9750611fc383611f73565b925050600181019050611fa4565b5085935050505092915050565b60006020820190508181036000830152611ff88184611f80565b905092915050565b6120098161173e565b82525050565b61201881611a02565b82525050565b600061010082019050612034600083018b611854565b612041602083018a612000565b8181036040830152612053818961181b565b90508181036060830152612067818861181b565b9050818103608083015261207b818761181b565b905061208a60a0830186611854565b61209760c083018561200f565b6120a460e0830184611854565b9998505050505050505050565b60006020820190506120c66000830184612000565b92915050565b7f4f6e6c7920706174656e74206f666669636572732063616e20706572666f726d60008201527f207468697320616374696f6e0000000000000000000000000000000000000000602082015250565b6000612128602c836117cf565b9150612133826120cc565b604082019050919050565b600060208201905081810360008301526121578161211b565b9050919050565b7f496e76616c696420706174656e74204944000000000000000000000000000000600082015250565b60006121946011836117cf565b915061219f8261215e565b602082019050919050565b600060208201905081810360008301526121c381612187565b9050919050565b7f43616e6e6f742073657420737461747573206261636b20746f2070656e64696e60008201527f6700000000000000000000000000000000000000000000000000000000000000602082015250565b60006122266021836117cf565b9150612231826121ca565b604082019050919050565b6000602082019050818103600083015261225581612219565b9050919050565b6000602082019050612271600083018461200f565b92915050565b7f4e487b7100000000000000000000000000000000000000000000000000000000600052602260045260246000fd5b600060028204905060018216806122be57607f821691505b6020821081036122d1576122d0612277565b5b50919050565b7f4f6e6c792061646d696e2063616e20706572666f726d2074686973206163746960008201527f6f6e000000000000000000000000000000000000000000000000000000000000602082015250565b60006123336022836117cf565b915061233e826122d7565b604082019050919050565b6000602082019050818103600083015261236281612326565b9050919050565b7f4f66666963657220646f6573206e6f7420657869737400000000000000000000600082015250565b600061239f6016836117cf565b91506123aa82612369565b602082019050919050565b600060208201905081810360008301526123ce81612392565b9050919050565b7f496e636f72726563742066696c696e6720666565000000000000000000000000600082015250565b600061240b6014836117cf565b9150612416826123d5565b602082019050919050565b6000602082019050818103600083015261243a816123fe565b9050919050565b7f4e487b7100000000000000000000000000000000000000000000000000000000600052601160045260246000fd5b600061247b82611683565b91507fffffffffffffffffffffffffffffffffffffffffffffffffffffffffffffffff82036124ad576124ac612441565b5b600182019050919050565b60008190508160005260206000209050919050565b60006020601f8301049050919050565b600082821b905092915050565b60006008830261251a7fffffffffffffffffffffffffffffffffffffffffffffffffffffffffffffffff826124dd565b61252486836124dd565b95508019841693508086168417925050509392505050565b6000819050919050565b600061256161255c61255784611683565b61253c565b611683565b9050919050565b6000819050919050565b61257b83612546565b61258f61258782612568565b8484546124ea565b825550505050565b600090565b6125a4612597565b6125af818484612572565b505050565b5b818110156125d3576125c860008261259c565b6001810190506125b5565b5050565b601f821115612618576125e9816124b8565b6125f2846124cd565b81016020851015612601578190505b61261561260d856124cd565b8301826125b4565b50505b505050565b600082821c905092915050565b600061263b6000198460080261261d565b1980831691505092915050565b6000612654838361262a565b9150826002028217905092915050565b61266d826117c4565b67ffffffffffffffff81111561268657612685611beb565b5b61269082546122a6565b61269b8282856125d7565b600060209050601f8311600181146126ce57600084156126bc578287015190505b6126c68582612648565b86555061272e565b601f1984166126dc866124b8565b60005b82811015612704578489015182556001820191506020850194506020810190506126df565b86831015612721578489015161271d601f89168261262a565b8355505b6001600288020188555050505b505050505050565b600061274182611683565b915061274c83611683565b925082820190508082111561276457612763612441565b5b92915050565b60006040820190508181036000830152612784818561181b565b90508181036020830152612798818461181b565b90509392505050565b7f4f66666963657220616c72656164792065786973747300000000000000000000600082015250565b60006127d76016836117cf565b91506127e2826127a1565b602082019050919050565b60006020820190508181036000830152612806816127ca565b9050919050565b60006020820190508181036000830152612827818461181b565b90509291505056fea2646970667358221220f231382f63ae671020c41ee0ece0e833e2d604a152829f3f8080d5b4c5b3c8a564736f6c63430008130033",
					"opcodes": "PUSH1 0x80 PUSH1 0x40 MSTORE PUSH8 0x16345785D8A0000 PUSH1 0x5 SSTORE CALLVALUE DUP1 ISZERO PUSH2 0x1C JUMPI PUSH1 0x0 DUP1 REVERT JUMPDEST POP CALLER PUSH1 0x4 PUSH1 0x0 PUSH2 0x100 EXP DUP2 SLOAD DUP2 PUSH20 0xFFFFFFFFFFFFFFFFFFFFFFFFFFFFFFFFFFFFFFFF MUL NOT AND SWAP1 DUP4 PUSH20 0xFFFFFFFFFFFFFFFFFFFFFFFFFFFFFFFFFFFFFFFF AND MUL OR SWAP1 SSTORE POP PUSH2 0x2865 DUP1 PUSH2 0x6D PUSH1 0x0 CODECOPY PUSH1 0x0 RETURN INVALID PUSH1 0x80 PUSH1 0x40 MSTORE PUSH1 0x4 CALLDATASIZE LT PUSH2 0xF3 JUMPI PUSH1 0x0 CALLDATALOAD PUSH1 0xE0 SHR DUP1 PUSH4 0x9C6D0D78 GT PUSH2 0x8A JUMPI DUP1 PUSH4 0xCE9011C3 GT PUSH2 0x59 JUMPI DUP1 PUSH4 0xCE9011C3 EQ PUSH2 0x31B JUMPI DUP1 PUSH4 0xE26BECC2 EQ PUSH2 0x358 JUMPI DUP1 PUSH4 0xF422BC68 EQ PUSH2 0x383 JUMPI DUP1 PUSH4 0xF851A440 EQ PUSH2 0x3C7 JUMPI PUSH2 0xF3 JUMP JUMPDEST DUP1 PUSH4 0x9C6D0D78 EQ PUSH2 0x26E JUMPI DUP1 PUSH4 0xB084C841 EQ PUSH2 0x2AB JUMPI DUP1 PUSH4 0xC470E97E EQ PUSH2 0x2D6 JUMPI DUP1 PUSH4 0xC79F25CA EQ PUSH2 0x2F2 JUMPI PUSH2 0xF3 JUMP JUMPDEST DUP1 PUSH4 0x3EC991FA GT PUSH2 0xC6 JUMPI DUP1 PUSH4 0x3EC991FA EQ PUSH2 0x1B2 JUMPI DUP1 PUSH4 0x476343EE EQ PUSH2 0x1EF JUMPI DUP1 PUSH4 0x8E5EBF53 EQ PUSH2 0x206 JUMPI DUP1 PUSH4 0x95AA3590 EQ PUSH2 0x231 JUMPI PUSH2 0xF3 JUMP JUMPDEST DUP1 PUSH4 0xECAE274 EQ PUSH2 0xF8 JUMPI DUP1 PUSH4 0x1744AFEC EQ PUSH2 0x121 JUMPI DUP1 PUSH4 0x18DE52C8 EQ PUSH2 0x160 JUMPI DUP1 PUSH4 0x3C9E98F7 EQ PUSH2 0x189 JUMPI JUMPDEST PUSH1 0x0 DUP1 REVERT JUMPDEST CALLVALUE DUP1 ISZERO PUSH2 0x104 JUMPI PUSH1 0x0 DUP1 REVERT JUMPDEST POP PUSH2 0x11F PUSH1 0x4 DUP1 CALLDATASIZE SUB DUP2 ADD SWAP1 PUSH2 0x11A SWAP2 SWAP1 PUSH2 0x16DE JUMP JUMPDEST PUSH2 0x3F2 JUMP JUMPDEST STOP JUMPDEST CALLVALUE DUP1 ISZERO PUSH2 0x12D JUMPI PUSH1 0x0 DUP1 REVERT JUMPDEST POP PUSH2 0x148 PUSH1 0x4 DUP1 CALLDATASIZE SUB DUP2 ADD SWAP1 PUSH2 0x143 SWAP2 SWAP1 PUSH2 0x177C JUMP JUMPDEST PUSH2 0x5B4 JUMP JUMPDEST PUSH1 0x40 MLOAD PUSH2 0x157 SWAP4 SWAP3 SWAP2 SWAP1 PUSH2 0x1863 JUMP JUMPDEST PUSH1 0x40 MLOAD DUP1 SWAP2 SUB SWAP1 RETURN JUMPDEST CALLVALUE DUP1 ISZERO PUSH2 0x16C JUMPI PUSH1 0x0 DUP1 REVERT JUMPDEST POP PUSH2 0x187 PUSH1 0x4 DUP1 CALLDATASIZE SUB DUP2 ADD SWAP1 PUSH2 0x182 SWAP2 SWAP1 PUSH2 0x177C JUMP JUMPDEST PUSH2 0x673 JUMP JUMPDEST STOP JUMPDEST CALLVALUE DUP1 ISZERO PUSH2 0x195 JUMPI PUSH1 0x0 DUP1 REVERT JUMPDEST POP PUSH2 0x1B0 PUSH1 0x4 DUP1 CALLDATASIZE SUB DUP2 ADD SWAP1 PUSH2 0x1AB SWAP2 SWAP1 PUSH2 0x18A1 JUMP JUMPDEST PUSH2 0x833 JUMP JUMPDEST STOP JUMPDEST CALLVALUE DUP1 ISZERO PUSH2 0x1BE JUMPI PUSH1 0x0 DUP1 REVERT JUMPDEST POP PUSH2 0x1D9 PUSH1 0x4 DUP1 CALLDATASIZE SUB DUP2 ADD SWAP1 PUSH2 0x1D4 SWAP2 SWAP1 PUSH2 0x177C JUMP JUMPDEST PUSH2 0x8CD JUMP JUMPDEST PUSH1 0x40 MLOAD PUSH2 0x1E6 SWAP2 SWAP1 PUSH2 0x18CE JUMP JUMPDEST PUSH1 0x40 MLOAD DUP1 SWAP2 SUB SWAP1 RETURN JUMPDEST CALLVALUE DUP1 ISZERO PUSH2 0x1FB JUMPI PUSH1 0x0 DUP1 REVERT JUMPDEST POP PUSH2 0x204 PUSH2 0x926 JUMP JUMPDEST STOP JUMPDEST CALLVALUE DUP1 ISZERO PUSH2 0x212 JUMPI PUSH1 0x0 DUP1 REVERT JUMPDEST POP PUSH2 0x21B PUSH2 0xA21 JUMP JUMPDEST PUSH1 0x40 MLOAD PUSH2 0x228 SWAP2 SWAP1 PUSH2 0x18E9 JUMP JUMPDEST PUSH1 0x40 MLOAD DUP1 SWAP2 SUB SWAP1 RETURN JUMPDEST CALLVALUE DUP1 ISZERO PUSH2 0x23D JUMPI PUSH1 0x0 DUP1 REVERT JUMPDEST POP PUSH2 0x258 PUSH1 0x4 DUP1 CALLDATASIZE SUB DUP2 ADD SWAP1 PUSH2 0x253 SWAP2 SWAP1 PUSH2 0x1904 JUMP JUMPDEST PUSH2 0xA29 JUMP JUMPDEST PUSH1 0x40 MLOAD PUSH2 0x265 SWAP2 SWAP1 PUSH2 0x18E9 JUMP JUMPDEST PUSH1 0x40 MLOAD DUP1 SWAP2 SUB SWAP1 RETURN JUMPDEST CALLVALUE DUP1 ISZERO PUSH2 0x27A JUMPI PUSH1 0x0 DUP1 REVERT JUMPDEST POP PUSH2 0x295 PUSH1 0x4 DUP1 CALLDATASIZE SUB DUP2 ADD SWAP1 PUSH2 0x290 SWAP2 SWAP1 PUSH2 0x18A1 JUMP JUMPDEST PUSH2 0xA5A JUMP JUMPDEST PUSH1 0x40 MLOAD PUSH2 0x2A2 SWAP2 SWAP1 PUSH2 0x1BBF JUMP JUMPDEST PUSH1 0x40 MLOAD DUP1 SWAP2 SUB SWAP1 RETURN JUMPDEST CALLVALUE DUP1 ISZERO PUSH2 0x2B7 JUMPI PUSH1 0x0 DUP1 REVERT JUMPDEST POP PUSH2 0x2C0 PUSH2 0xE18 JUMP JUMPDEST PUSH1 0x40 MLOAD PUSH2 0x2CD SWAP2 SWAP1 PUSH2 0x18E9 JUMP JUMPDEST PUSH1 0x40 MLOAD DUP1 SWAP2 SUB SWAP1 RETURN JUMPDEST PUSH2 0x2F0 PUSH1 0x4 DUP1 CALLDATASIZE SUB DUP2 ADD SWAP1 PUSH2 0x2EB SWAP2 SWAP1 PUSH2 0x1DFC JUMP JUMPDEST PUSH2 0xE1E JUMP JUMPDEST STOP JUMPDEST CALLVALUE DUP1 ISZERO PUSH2 0x2FE JUMPI PUSH1 0x0 DUP1 REVERT JUMPDEST POP PUSH2 0x319 PUSH1 0x4 DUP1 CALLDATASIZE SUB DUP2 ADD SWAP1 PUSH2 0x314 SWAP2 SWAP1 PUSH2 0x1ED3 JUMP JUMPDEST PUSH2 0x103F JUMP JUMPDEST STOP JUMPDEST CALLVALUE DUP1 ISZERO PUSH2 0x327 JUMPI PUSH1 0x0 DUP1 REVERT JUMPDEST POP PUSH2 0x342 PUSH1 0x4 DUP1 CALLDATASIZE SUB DUP2 ADD SWAP1 PUSH2 0x33D SWAP2 SWAP1 PUSH2 0x177C JUMP JUMPDEST PUSH2 0x1251 JUMP JUMPDEST PUSH1 0x40 MLOAD PUSH2 0x34F SWAP2 SWAP1 PUSH2 0x1FDE JUMP JUMPDEST PUSH1 0x40 MLOAD DUP1 SWAP2 SUB SWAP1 RETURN JUMPDEST CALLVALUE DUP1 ISZERO PUSH2 0x364 JUMPI PUSH1 0x0 DUP1 REVERT JUMPDEST POP PUSH2 0x36D PUSH2 0x12E8 JUMP JUMPDEST PUSH1 0x40 MLOAD PUSH2 0x37A SWAP2 SWAP1 PUSH2 0x18E9 JUMP JUMPDEST PUSH1 0x40 MLOAD DUP1 SWAP2 SUB SWAP1 RETURN JUMPDEST CALLVALUE DUP1 ISZERO PUSH2 0x38F JUMPI PUSH1 0x0 DUP1 REVERT JUMPDEST POP PUSH2 0x3AA PUSH1 0x4 DUP1 CALLDATASIZE SUB DUP2 ADD SWAP1 PUSH2 0x3A5 SWAP2 SWAP1 PUSH2 0x18A1 JUMP JUMPDEST PUSH2 0x12EE JUMP JUMPDEST PUSH1 0x40 MLOAD PUSH2 0x3BE SWAP9 SWAP8 SWAP7 SWAP6 SWAP5 SWAP4 SWAP3 SWAP2 SWAP1 PUSH2 0x201E JUMP JUMPDEST PUSH1 0x40 MLOAD DUP1 SWAP2 SUB SWAP1 RETURN JUMPDEST CALLVALUE DUP1 ISZERO PUSH2 0x3D3 JUMPI PUSH1 0x0 DUP1 REVERT JUMPDEST POP PUSH2 0x3DC PUSH2 0x14FB JUMP JUMPDEST PUSH1 0x40 MLOAD PUSH2 0x3E9 SWAP2 SWAP1 PUSH2 0x20B1 JUMP JUMPDEST PUSH1 0x40 MLOAD DUP1 SWAP2 SUB SWAP1 RETURN JUMPDEST PUSH1 0x1 PUSH1 0x0 CALLER PUSH20 0xFFFFFFFFFFFFFFFFFFFFFFFFFFFFFFFFFFFFFFFF AND PUSH20 0xFFFFFFFFFFFFFFFFFFFFFFFFFFFFFFFFFFFFFFFF AND DUP2 MSTORE PUSH1 0x20 ADD SWAP1 DUP2 MSTORE PUSH1 0x20 ADD PUSH1 0x0 KECCAK256 PUSH1 0x0 ADD PUSH1 0x0 SWAP1 SLOAD SWAP1 PUSH2 0x100 EXP SWAP1 DIV PUSH1 0xFF AND PUSH2 0x481 JUMPI PUSH1 0x40 MLOAD PUSH32 0x8C379A000000000000000000000000000000000000000000000000000000000 DUP2 MSTORE PUSH1 0x4 ADD PUSH2 0x478 SWAP1 PUSH2 0x213E JUMP JUMPDEST PUSH1 0x40 MLOAD DUP1 SWAP2 SUB SWAP1 REVERT JUMPDEST DUP2 PUSH1 0x0 DUP2 GT DUP1 ISZERO PUSH2 0x494 JUMPI POP PUSH1 0x3 SLOAD DUP2 GT ISZERO JUMPDEST PUSH2 0x4D3 JUMPI PUSH1 0x40 MLOAD PUSH32 0x8C379A000000000000000000000000000000000000000000000000000000000 DUP2 MSTORE PUSH1 0x4 ADD PUSH2 0x4CA SWAP1 PUSH2 0x21AA JUMP JUMPDEST PUSH1 0x40 MLOAD DUP1 SWAP2 SUB SWAP1 REVERT JUMPDEST PUSH1 0x0 PUSH1 0x4 DUP2 GT ISZERO PUSH2 0x4E7 JUMPI PUSH2 0x4E6 PUSH2 0x19AC JUMP JUMPDEST JUMPDEST DUP3 PUSH1 0x4 DUP2 GT ISZERO PUSH2 0x4FA JUMPI PUSH2 0x4F9 PUSH2 0x19AC JUMP JUMPDEST JUMPDEST SUB PUSH2 0x53A JUMPI PUSH1 0x40 MLOAD PUSH32 0x8C379A000000000000000000000000000000000000000000000000000000000 DUP2 MSTORE PUSH1 0x4 ADD PUSH2 0x531 SWAP1 PUSH2 0x223C JUMP JUMPDEST PUSH1 0x40 MLOAD DUP1 SWAP2 SUB SWAP1 REVERT JUMPDEST DUP2 PUSH1 0x0 DUP1 DUP6 DUP2 MSTORE PUSH1 0x20 ADD SWAP1 DUP2 MSTORE PUSH1 0x20 ADD PUSH1 0x0 KECCAK256 PUSH1 0x6 ADD PUSH1 0x0 PUSH2 0x100 EXP DUP2 SLOAD DUP2 PUSH1 0xFF MUL NOT AND SWAP1 DUP4 PUSH1 0x4 DUP2 GT ISZERO PUSH2 0x572 JUMPI PUSH2 0x571 PUSH2 0x19AC JUMP JUMPDEST JUMPDEST MUL OR SWAP1 SSTORE POP DUP3 PUSH32 0xD7C67AD449553C78533FE0CF74A4C33A8CE3834A94A20491487D924B222819C8 DUP4 PUSH1 0x40 MLOAD PUSH2 0x5A7 SWAP2 SWAP1 PUSH2 0x225C JUMP JUMPDEST PUSH1 0x40 MLOAD DUP1 SWAP2 SUB SWAP1 LOG2 POP POP POP JUMP JUMPDEST PUSH1 0x1 PUSH1 0x20 MSTORE DUP1 PUSH1 0x0 MSTORE PUSH1 0x40 PUSH1 0x0 KECCAK256 PUSH1 0x0 SWAP2 POP SWAP1 POP DUP1 PUSH1 0x0 ADD PUSH1 0x0 SWAP1 SLOAD SWAP1 PUSH2 0x100 EXP SWAP1 DIV PUSH1 0xFF AND SWAP1 DUP1 PUSH1 0x1 ADD DUP1 SLOAD PUSH2 0x5EA SWAP1 PUSH2 0x22A6 JUMP JUMPDEST DUP1 PUSH1 0x1F ADD PUSH1 0x20 DUP1 SWAP2 DIV MUL PUSH1 0x20 ADD PUSH1 0x40 MLOAD SWAP1 DUP2 ADD PUSH1 0x40 MSTORE DUP1 SWAP3 SWAP2 SWAP1 DUP2 DUP2 MSTORE PUSH1 0x20 ADD DUP3 DUP1 SLOAD PUSH2 0x616 SWAP1 PUSH2 0x22A6 JUMP JUMPDEST DUP1 ISZERO PUSH2 0x663 JUMPI DUP1 PUSH1 0x1F LT PUSH2 0x638 JUMPI PUSH2 0x100 DUP1 DUP4 SLOAD DIV MUL DUP4 MSTORE SWAP2 PUSH1 0x20 ADD SWAP2 PUSH2 0x663 JUMP JUMPDEST DUP3 ADD SWAP2 SWAP1 PUSH1 0x0 MSTORE PUSH1 0x20 PUSH1 0x0 KECCAK256 SWAP1 JUMPDEST DUP2 SLOAD DUP2 MSTORE SWAP1 PUSH1 0x1 ADD SWAP1 PUSH1 0x20 ADD DUP1 DUP4 GT PUSH2 0x646 JUMPI DUP3 SWAP1 SUB PUSH1 0x1F AND DUP3 ADD SWAP2 JUMPDEST POP POP POP POP POP SWAP1 DUP1 PUSH1 0x2 ADD SLOAD SWAP1 POP DUP4 JUMP JUMPDEST PUSH1 0x4 PUSH1 0x0 SWAP1 SLOAD SWAP1 PUSH2 0x100 EXP SWAP1 DIV PUSH20 0xFFFFFFFFFFFFFFFFFFFFFFFFFFFFFFFFFFFFFFFF AND PUSH20 0xFFFFFFFFFFFFFFFFFFFFFFFFFFFFFFFFFFFFFFFF AND CALLER PUSH20 0xFFFFFFFFFFFFFFFFFFFFFFFFFFFFFFFFFFFFFFFF AND EQ PUSH2 0x703 JUMPI PUSH1 0x40 MLOAD PUSH32 0x8C379A000000000000000000000000000000000000000000000000000000000 DUP2 MSTORE PUSH1 0x4 ADD PUSH2 0x6FA SWAP1 PUSH2 0x2349 JUMP JUMPDEST PUSH1 0x40 MLOAD DUP1 SWAP2 SUB SWAP1 REVERT JUMPDEST PUSH1 0x1 PUSH1 0x0 DUP3 PUSH20 0xFFFFFFFFFFFFFFFFFFFFFFFFFFFFFFFFFFFFFFFF AND PUSH20 0xFFFFFFFFFFFFFFFFFFFFFFFFFFFFFFFFFFFFFFFF AND DUP2 MSTORE PUSH1 0x20 ADD SWAP1 DUP2 MSTORE PUSH1 0x20 ADD PUSH1 0x0 KECCAK256 PUSH1 0x0 ADD PUSH1 0x0 SWAP1 SLOAD SWAP1 PUSH2 0x100 EXP SWAP1 DIV PUSH1 0xFF AND PUSH2 0x792 JUMPI PUSH1 0x40 MLOAD PUSH32 0x8C379A000000000000000000000000000000000000000000000000000000000 DUP2 MSTORE PUSH1 0x4 ADD PUSH2 0x789 SWAP1 PUSH2 0x23B5 JUMP JUMPDEST PUSH1 0x40 MLOAD DUP1 SWAP2 SUB SWAP1 REVERT JUMPDEST PUSH1 0x0 PUSH1 0x1 PUSH1 0x0 DUP4 PUSH20 0xFFFFFFFFFFFFFFFFFFFFFFFFFFFFFFFFFFFFFFFF AND PUSH20 0xFFFFFFFFFFFFFFFFFFFFFFFFFFFFFFFFFFFFFFFF AND DUP2 MSTORE PUSH1 0x20 ADD SWAP1 DUP2 MSTORE PUSH1 0x20 ADD PUSH1 0x0 KECCAK256 PUSH1 0x0 ADD PUSH1 0x0 PUSH2 0x100 EXP DUP2 SLOAD DUP2 PUSH1 0xFF MUL NOT AND SWAP1 DUP4 ISZERO ISZERO MUL OR SWAP1 SSTORE POP DUP1 PUSH20 0xFFFFFFFFFFFFFFFFFFFFFFFFFFFFFFFFFFFFFFFF AND PUSH32 0x4914A81B7F20A7F271A4740E7F39B8E5B9712CD5F5A36491D63657BE736D2497 PUSH1 0x40 MLOAD PUSH1 0x40 MLOAD DUP1 SWAP2 SUB SWAP1 LOG2 POP JUMP JUMPDEST PUSH1 0x4 PUSH1 0x0 SWAP1 SLOAD SWAP1 PUSH2 0x100 EXP SWAP1 DIV PUSH20 0xFFFFFFFFFFFFFFFFFFFFFFFFFFFFFFFFFFFFFFFF AND PUSH20 0xFFFFFFFFFFFFFFFFFFFFFFFFFFFFFFFFFFFFFFFF AND CALLER PUSH20 0xFFFFFFFFFFFFFFFFFFFFFFFFFFFFFFFFFFFFFFFF AND EQ PUSH2 0x8C3 JUMPI PUSH1 0x40 MLOAD PUSH32 0x8C379A000000000000000000000000000000000000000000000000000000000 DUP2 MSTORE PUSH1 0x4 ADD PUSH2 0x8BA SWAP1 PUSH2 0x2349 JUMP JUMPDEST PUSH1 0x40 MLOAD DUP1 SWAP2 SUB SWAP1 REVERT JUMPDEST DUP1 PUSH1 0x5 DUP2 SWAP1 SSTORE POP POP JUMP JUMPDEST PUSH1 0x0 PUSH1 0x1 PUSH1 0x0 DUP4 PUSH20 0xFFFFFFFFFFFFFFFFFFFFFFFFFFFFFFFFFFFFFFFF AND PUSH20 0xFFFFFFFFFFFFFFFFFFFFFFFFFFFFFFFFFFFFFFFF AND DUP2 MSTORE PUSH1 0x20 ADD SWAP1 DUP2 MSTORE PUSH1 0x20 ADD PUSH1 0x0 KECCAK256 PUSH1 0x0 ADD PUSH1 0x0 SWAP1 SLOAD SWAP1 PUSH2 0x100 EXP SWAP1 DIV PUSH1 0xFF AND SWAP1 POP SWAP2 SWAP1 POP JUMP JUMPDEST PUSH1 0x4 PUSH1 0x0 SWAP1 SLOAD SWAP1 PUSH2 0x100 EXP SWAP1 DIV PUSH20 0xFFFFFFFFFFFFFFFFFFFFFFFFFFFFFFFFFFFFFFFF AND PUSH20 0xFFFFFFFFFFFFFFFFFFFFFFFFFFFFFFFFFFFFFFFF AND CALLER PUSH20 0xFFFFFFFFFFFFFFFFFFFFFFFFFFFFFFFFFFFFFFFF AND EQ PUSH2 0x9B6 JUMPI PUSH1 0x40 MLOAD PUSH32 0x8C379A000000000000000000000000000000000000000000000000000000000 DUP2 MSTORE PUSH1 0x4 ADD PUSH2 0x9AD SWAP1 PUSH2 0x2349 JUMP JUMPDEST PUSH1 0x40 MLOAD DUP1 SWAP2 SUB SWAP1 REVERT JUMPDEST PUSH1 0x4 PUSH1 0x0 SWAP1 SLOAD SWAP1 PUSH2 0x100 EXP SWAP1 DIV PUSH20 0xFFFFFFFFFFFFFFFFFFFFFFFFFFFFFFFFFFFFFFFF AND PUSH20 0xFFFFFFFFFFFFFFFFFFFFFFFFFFFFFFFFFFFFFFFF AND PUSH2 0x8FC SELFBALANCE SWAP1 DUP2 ISZERO MUL SWAP1 PUSH1 0x40 MLOAD PUSH1 0x0 PUSH1 0x40 MLOAD DUP1 DUP4 SUB DUP2 DUP6 DUP9 DUP9 CALL SWAP4 POP POP POP POP ISZERO DUP1 ISZERO PUSH2 0xA1E JUMPI RETURNDATASIZE PUSH1 0x0 DUP1 RETURNDATACOPY RETURNDATASIZE PUSH1 0x0 REVERT JUMPDEST POP JUMP JUMPDEST PUSH4 0x12CC0300 DUP2 JUMP JUMPDEST PUSH1 0x2 PUSH1 0x20 MSTORE DUP2 PUSH1 0x0 MSTORE PUSH1 0x40 PUSH1 0x0 KECCAK256 DUP2 DUP2 SLOAD DUP2 LT PUSH2 0xA45 JUMPI PUSH1 0x0 DUP1 REVERT JUMPDEST SWAP1 PUSH1 0x0 MSTORE PUSH1 0x20 PUSH1 0x0 KECCAK256 ADD PUSH1 0x0 SWAP2 POP SWAP2 POP POP SLOAD DUP2 JUMP JUMPDEST PUSH2 0xA62 PUSH2 0x1521 JUMP JUMPDEST DUP2 PUSH1 0x0 DUP2 GT DUP1 ISZERO PUSH2 0xA75 JUMPI POP PUSH1 0x3 SLOAD DUP2 GT ISZERO JUMPDEST PUSH2 0xAB4 JUMPI PUSH1 0x40 MLOAD PUSH32 0x8C379A000000000000000000000000000000000000000000000000000000000 DUP2 MSTORE PUSH1 0x4 ADD PUSH2 0xAAB SWAP1 PUSH2 0x21AA JUMP JUMPDEST PUSH1 0x40 MLOAD DUP1 SWAP2 SUB SWAP1 REVERT JUMPDEST PUSH1 0x0 DUP1 DUP5 DUP2 MSTORE PUSH1 0x20 ADD SWAP1 DUP2 MSTORE PUSH1 0x20 ADD PUSH1 0x0 KECCAK256 PUSH1 0x40 MLOAD DUP1 PUSH2 0x120 ADD PUSH1 0x40 MSTORE SWAP1 DUP2 PUSH1 0x0 DUP3 ADD SLOAD DUP2 MSTORE PUSH1 0x20 ADD PUSH1 0x1 DUP3 ADD PUSH1 0x0 SWAP1 SLOAD SWAP1 PUSH2 0x100 EXP SWAP1 DIV PUSH20 0xFFFFFFFFFFFFFFFFFFFFFFFFFFFFFFFFFFFFFFFF AND PUSH20 0xFFFFFFFFFFFFFFFFFFFFFFFFFFFFFFFFFFFFFFFF AND PUSH20 0xFFFFFFFFFFFFFFFFFFFFFFFFFFFFFFFFFFFFFFFF AND DUP2 MSTORE PUSH1 0x20 ADD PUSH1 0x2 DUP3 ADD DUP1 SLOAD PUSH2 0xB42 SWAP1 PUSH2 0x22A6 JUMP JUMPDEST DUP1 PUSH1 0x1F ADD PUSH1 0x20 DUP1 SWAP2 DIV MUL PUSH1 0x20 ADD PUSH1 0x40 MLOAD SWAP1 DUP2 ADD PUSH1 0x40 MSTORE DUP1 SWAP3 SWAP2 SWAP1 DUP2 DUP2 MSTORE PUSH1 0x20 ADD DUP3 DUP1 SLOAD PUSH2 0xB6E SWAP1 PUSH2 0x22A6 JUMP JUMPDEST DUP1 ISZERO PUSH2 0xBBB JUMPI DUP1 PUSH1 0x1F LT PUSH2 0xB90 JUMPI PUSH2 0x100 DUP1 DUP4 SLOAD DIV MUL DUP4 MSTORE SWAP2 PUSH1 0x20 ADD SWAP2 PUSH2 0xBBB JUMP JUMPDEST DUP3 ADD SWAP2 SWAP1 PUSH1 0x0 MSTORE PUSH1 0x20 PUSH1 0x0 KECCAK256 SWAP1 JUMPDEST DUP2 SLOAD DUP2 MSTORE SWAP1 PUSH1 0x1 ADD SWAP1 PUSH1 0x20 ADD DUP1 DUP4 GT PUSH2 0xB9E JUMPI DUP3 SWAP1 SUB PUSH1 0x1F AND DUP3 ADD SWAP2 JUMPDEST POP POP POP POP POP DUP2 MSTORE PUSH1 0x20 ADD PUSH1 0x3 DUP3 ADD DUP1 SLOAD PUSH2 0xBD4 SWAP1 PUSH2 0x22A6 JUMP JUMPDEST DUP1 PUSH1 0x1F ADD PUSH1 0x20 DUP1 SWAP2 DIV MUL PUSH1 0x20 ADD PUSH1 0x40 MLOAD SWAP1 DUP2 ADD PUSH1 0x40 MSTORE DUP1 SWAP3 SWAP2 SWAP1 DUP2 DUP2 MSTORE PUSH1 0x20 ADD DUP3 DUP1 SLOAD PUSH2 0xC00 SWAP1 PUSH2 0x22A6 JUMP JUMPDEST DUP1 ISZERO PUSH2 0xC4D JUMPI DUP1 PUSH1 0x1F LT PUSH2 0xC22 JUMPI PUSH2 0x100 DUP1 DUP4 SLOAD DIV MUL DUP4 MSTORE SWAP2 PUSH1 0x20 ADD SWAP2 PUSH2 0xC4D JUMP JUMPDEST DUP3 ADD SWAP2 SWAP1 PUSH1 0x0 MSTORE PUSH1 0x20 PUSH1 0x0 KECCAK256 SWAP1 JUMPDEST DUP2 SLOAD DUP2 MSTORE SWAP1 PUSH1 0x1 ADD SWAP1 PUSH1 0x20 ADD DUP1 DUP4 GT PUSH2 0xC30 JUMPI DUP3 SWAP1 SUB PUSH1 0x1F AND DUP3 ADD SWAP2 JUMPDEST POP POP POP POP POP DUP2 MSTORE PUSH1 0x20 ADD PUSH1 0x4 DUP3 ADD DUP1 SLOAD PUSH2 0xC66 SWAP1 PUSH2 0x22A6 JUMP JUMPDEST DUP1 PUSH1 0x1F ADD PUSH1 0x20 DUP1 SWAP2 DIV MUL PUSH1 0x20 ADD PUSH1 0x40 MLOAD SWAP1 DUP2 ADD PUSH1 0x40 MSTORE DUP1 SWAP3 SWAP2 SWAP1 DUP2 DUP2 MSTORE PUSH1 0x20 ADD DUP3 DUP1 SLOAD PUSH2 0xC92 SWAP1 PUSH2 0x22A6 JUMP JUMPDEST DUP1 ISZERO PUSH2 0xCDF JUMPI DUP1 PUSH1 0x1F LT PUSH2 0xCB4 JUMPI PUSH2 0x100 DUP1 DUP4 SLOAD DIV MUL DUP4 MSTORE SWAP2 PUSH1 0x20 ADD SWAP2 PUSH2 0xCDF JUMP JUMPDEST DUP3 ADD SWAP2 SWAP1 PUSH1 0x0 MSTORE PUSH1 0x20 PUSH1 0x0 KECCAK256 SWAP1 JUMPDEST DUP2 SLOAD DUP2 MSTORE SWAP1 PUSH1 0x1 ADD SWAP1 PUSH1 0x20 ADD DUP1 DUP4 GT PUSH2 0xCC2 JUMPI DUP3 SWAP1 SUB PUSH1 0x1F AND DUP3 ADD SWAP2 JUMPDEST POP POP POP POP POP DUP2 MSTORE PUSH1 0x20 ADD PUSH1 0x5 DUP3 ADD SLOAD DUP2 MSTORE PUSH1 0x20 ADD PUSH1 0x6 DUP3 ADD PUSH1 0x0 SWAP1 SLOAD SWAP1 PUSH2 0x100 EXP SWAP1 DIV PUSH1 0xFF AND PUSH1 0x4 DUP2 GT ISZERO PUSH2 0xD17 JUMPI PUSH2 0xD16 PUSH2 0x19AC JUMP JUMPDEST JUMPDEST PUSH1 0x4 DUP2 GT ISZERO PUSH2 0xD29 JUMPI PUSH2 0xD28 PUSH2 0x19AC JUMP JUMPDEST JUMPDEST DUP2 MSTORE PUSH1 0x20 ADD PUSH1 0x7 DUP3 ADD DUP1 SLOAD DUP1 PUSH1 0x20 MUL PUSH1 0x20 ADD PUSH1 0x40 MLOAD SWAP1 DUP2 ADD PUSH1 0x40 MSTORE DUP1 SWAP3 SWAP2 SWAP1 DUP2 DUP2 MSTORE PUSH1 0x20 ADD PUSH1 0x0 SWAP1 JUMPDEST DUP3 DUP3 LT ISZERO PUSH2 0xDFE JUMPI DUP4 DUP3 SWAP1 PUSH1 0x0 MSTORE PUSH1 0x20 PUSH1 0x0 KECCAK256 ADD DUP1 SLOAD PUSH2 0xD71 SWAP1 PUSH2 0x22A6 JUMP JUMPDEST DUP1 PUSH1 0x1F ADD PUSH1 0x20 DUP1 SWAP2 DIV MUL PUSH1 0x20 ADD PUSH1 0x40 MLOAD SWAP1 DUP2 ADD PUSH1 0x40 MSTORE DUP1 SWAP3 SWAP2 SWAP1 DUP2 DUP2 MSTORE PUSH1 0x20 ADD DUP3 DUP1 SLOAD PUSH2 0xD9D SWAP1 PUSH2 0x22A6 JUMP JUMPDEST DUP1 ISZERO PUSH2 0xDEA JUMPI DUP1 PUSH1 0x1F LT PUSH2 0xDBF JUMPI PUSH2 0x100 DUP1 DUP4 SLOAD DIV MUL DUP4 MSTORE SWAP2 PUSH1 0x20 ADD SWAP2 PUSH2 0xDEA JUMP JUMPDEST DUP3 ADD SWAP2 SWAP1 PUSH1 0x0 MSTORE PUSH1 0x20 PUSH1 0x0 KECCAK256 SWAP1 JUMPDEST DUP2 SLOAD DUP2 MSTORE SWAP1 PUSH1 0x1 ADD SWAP1 PUSH1 0x20 ADD DUP1 DUP4 GT PUSH2 0xDCD JUMPI DUP3 SWAP1 SUB PUSH1 0x1F AND DUP3 ADD SWAP2 JUMPDEST POP POP POP POP POP DUP2 MSTORE PUSH1 0x20 ADD SWAP1 PUSH1 0x1 ADD SWAP1 PUSH2 0xD52 JUMP JUMPDEST POP POP POP POP DUP2 MSTORE PUSH1 0x20 ADD PUSH1 0x8 DUP3 ADD SLOAD DUP2 MSTORE POP POP SWAP2 POP POP SWAP2 SWAP1 POP JUMP JUMPDEST PUSH1 0x3 SLOAD DUP2 JUMP JUMPDEST PUSH1 0x5 SLOAD CALLVALUE EQ PUSH2 0xE62 JUMPI PUSH1 0x40 MLOAD PUSH32 0x8C379A000000000000000000000000000000000000000000000000000000000 DUP2 MSTORE PUSH1 0x4 ADD PUSH2 0xE59 SWAP1 PUSH2 0x2421 JUMP JUMPDEST PUSH1 0x40 MLOAD DUP1 SWAP2 SUB SWAP1 REVERT JUMPDEST PUSH1 0x3 PUSH1 0x0 DUP2 SLOAD DUP1 SWAP3 SWAP2 SWAP1 PUSH2 0xE75 SWAP1 PUSH2 0x2470 JUMP JUMPDEST SWAP2 SWAP1 POP SSTORE POP PUSH1 0x0 DUP1 PUSH1 0x0 PUSH1 0x3 SLOAD DUP2 MSTORE PUSH1 0x20 ADD SWAP1 DUP2 MSTORE PUSH1 0x20 ADD PUSH1 0x0 KECCAK256 SWAP1 POP PUSH1 0x3 SLOAD DUP2 PUSH1 0x0 ADD DUP2 SWAP1 SSTORE POP CALLER DUP2 PUSH1 0x1 ADD PUSH1 0x0 PUSH2 0x100 EXP DUP2 SLOAD DUP2 PUSH20 0xFFFFFFFFFFFFFFFFFFFFFFFFFFFFFFFFFFFFFFFF MUL NOT AND SWAP1 DUP4 PUSH20 0xFFFFFFFFFFFFFFFFFFFFFFFFFFFFFFFFFFFFFFFF AND MUL OR SWAP1 SSTORE POP DUP5 DUP2 PUSH1 0x3 ADD SWAP1 DUP2 PUSH2 0xEF1 SWAP2 SWAP1 PUSH2 0x2664 JUMP JUMPDEST POP DUP4 DUP2 PUSH1 0x4 ADD SWAP1 DUP2 PUSH2 0xF03 SWAP2 SWAP1 PUSH2 0x2664 JUMP JUMPDEST POP DUP3 DUP2 PUSH1 0x2 ADD SWAP1 DUP2 PUSH2 0xF15 SWAP2 SWAP1 PUSH2 0x2664 JUMP JUMPDEST POP TIMESTAMP DUP2 PUSH1 0x5 ADD DUP2 SWAP1 SSTORE POP PUSH1 0x0 DUP2 PUSH1 0x6 ADD PUSH1 0x0 PUSH2 0x100 EXP DUP2 SLOAD DUP2 PUSH1 0xFF MUL NOT AND SWAP1 DUP4 PUSH1 0x4 DUP2 GT ISZERO PUSH2 0xF47 JUMPI PUSH2 0xF46 PUSH2 0x19AC JUMP JUMPDEST JUMPDEST MUL OR SWAP1 SSTORE POP DUP2 DUP2 PUSH1 0x7 ADD SWAP1 DUP1 MLOAD SWAP1 PUSH1 0x20 ADD SWAP1 PUSH2 0xF64 SWAP3 SWAP2 SWAP1 PUSH2 0x1595 JUMP JUMPDEST POP PUSH4 0x12CC0300 TIMESTAMP PUSH2 0xF75 SWAP2 SWAP1 PUSH2 0x2736 JUMP JUMPDEST DUP2 PUSH1 0x8 ADD DUP2 SWAP1 SSTORE POP PUSH1 0x2 PUSH1 0x0 CALLER PUSH20 0xFFFFFFFFFFFFFFFFFFFFFFFFFFFFFFFFFFFFFFFF AND PUSH20 0xFFFFFFFFFFFFFFFFFFFFFFFFFFFFFFFFFFFFFFFF AND DUP2 MSTORE PUSH1 0x20 ADD SWAP1 DUP2 MSTORE PUSH1 0x20 ADD PUSH1 0x0 KECCAK256 PUSH1 0x3 SLOAD SWAP1 DUP1 PUSH1 0x1 DUP2 SLOAD ADD DUP1 DUP3 SSTORE DUP1 SWAP2 POP POP PUSH1 0x1 SWAP1 SUB SWAP1 PUSH1 0x0 MSTORE PUSH1 0x20 PUSH1 0x0 KECCAK256 ADD PUSH1 0x0 SWAP1 SWAP2 SWAP1 SWAP2 SWAP1 SWAP2 POP SSTORE CALLER PUSH20 0xFFFFFFFFFFFFFFFFFFFFFFFFFFFFFFFFFFFFFFFF AND PUSH1 0x3 SLOAD PUSH32 0xBD7C4DD042A73368807DFA21F246EA4BAA1F108B7B4E599D4F1D85B40A91B666 DUP8 DUP7 PUSH1 0x40 MLOAD PUSH2 0x1030 SWAP3 SWAP2 SWAP1 PUSH2 0x276A JUMP JUMPDEST PUSH1 0x40 MLOAD DUP1 SWAP2 SUB SWAP1 LOG3 POP POP POP POP POP JUMP JUMPDEST PUSH1 0x4 PUSH1 0x0 SWAP1 SLOAD SWAP1 PUSH2 0x100 EXP SWAP1 DIV PUSH20 0xFFFFFFFFFFFFFFFFFFFFFFFFFFFFFFFFFFFFFFFF AND PUSH20 0xFFFFFFFFFFFFFFFFFFFFFFFFFFFFFFFFFFFFFFFF AND CALLER PUSH20 0xFFFFFFFFFFFFFFFFFFFFFFFFFFFFFFFFFFFFFFFF AND EQ PUSH2 0x10CF JUMPI PUSH1 0x40 MLOAD PUSH32 0x8C379A000000000000000000000000000000000000000000000000000000000 DUP2 MSTORE PUSH1 0x4 ADD PUSH2 0x10C6 SWAP1 PUSH2 0x2349 JUMP JUMPDEST PUSH1 0x40 MLOAD DUP1 SWAP2 SUB SWAP1 REVERT JUMPDEST PUSH1 0x1 PUSH1 0x0 DUP4 PUSH20 0xFFFFFFFFFFFFFFFFFFFFFFFFFFFFFFFFFFFFFFFF AND PUSH20 0xFFFFFFFFFFFFFFFFFFFFFFFFFFFFFFFFFFFFFFFF AND DUP2 MSTORE PUSH1 0x20 ADD SWAP1 DUP2 MSTORE PUSH1 0x20 ADD PUSH1 0x0 KECCAK256 PUSH1 0x0 ADD PUSH1 0x0 SWAP1 SLOAD SWAP1 PUSH2 0x100 EXP SWAP1 DIV PUSH1 0xFF AND ISZERO PUSH2 0x115F JUMPI PUSH1 0x40 MLOAD PUSH32 0x8C379A000000000000000000000000000000000000000000000000000000000 DUP2 MSTORE PUSH1 0x4 ADD PUSH2 0x1156 SWAP1 PUSH2 0x27ED JUMP JUMPDEST PUSH1 0x40 MLOAD DUP1 SWAP2 SUB SWAP1 REVERT JUMPDEST PUSH1 0x40 MLOAD DUP1 PUSH1 0x60 ADD PUSH1 0x40 MSTORE DUP1 PUSH1 0x1 ISZERO ISZERO DUP2 MSTORE PUSH1 0x20 ADD DUP3 DUP2 MSTORE PUSH1 0x20 ADD TIMESTAMP DUP2 MSTORE POP PUSH1 0x1 PUSH1 0x0 DUP5 PUSH20 0xFFFFFFFFFFFFFFFFFFFFFFFFFFFFFFFFFFFFFFFF AND PUSH20 0xFFFFFFFFFFFFFFFFFFFFFFFFFFFFFFFFFFFFFFFF AND DUP2 MSTORE PUSH1 0x20 ADD SWAP1 DUP2 MSTORE PUSH1 0x20 ADD PUSH1 0x0 KECCAK256 PUSH1 0x0 DUP3 ADD MLOAD DUP2 PUSH1 0x0 ADD PUSH1 0x0 PUSH2 0x100 EXP DUP2 SLOAD DUP2 PUSH1 0xFF MUL NOT AND SWAP1 DUP4 ISZERO ISZERO MUL OR SWAP1 SSTORE POP PUSH1 0x20 DUP3 ADD MLOAD DUP2 PUSH1 0x1 ADD SWAP1 DUP2 PUSH2 0x11F1 SWAP2 SWAP1 PUSH2 0x2664 JUMP JUMPDEST POP PUSH1 0x40 DUP3 ADD MLOAD DUP2 PUSH1 0x2 ADD SSTORE SWAP1 POP POP DUP2 PUSH20 0xFFFFFFFFFFFFFFFFFFFFFFFFFFFFFFFFFFFFFFFF AND PUSH32 0x43429047DD0037CB1F918F0B25737727D6A6A262E1E2F200CB7004BD5807DFD0 DUP3 PUSH1 0x40 MLOAD PUSH2 0x1245 SWAP2 SWAP1 PUSH2 0x280D JUMP JUMPDEST PUSH1 0x40 MLOAD DUP1 SWAP2 SUB SWAP1 LOG2 POP POP JUMP JUMPDEST PUSH1 0x60 PUSH1 0x2 PUSH1 0x0 DUP4 PUSH20 0xFFFFFFFFFFFFFFFFFFFFFFFFFFFFFFFFFFFFFFFF AND PUSH20 0xFFFFFFFFFFFFFFFFFFFFFFFFFFFFFFFFFFFFFFFF AND DUP2 MSTORE PUSH1 0x20 ADD SWAP1 DUP2 MSTORE PUSH1 0x20 ADD PUSH1 0x0 KECCAK256 DUP1 SLOAD DUP1 PUSH1 0x20 MUL PUSH1 0x20 ADD PUSH1 0x40 MLOAD SWAP1 DUP2 ADD PUSH1 0x40 MSTORE DUP1 SWAP3 SWAP2 SWAP1 DUP2 DUP2 MSTORE PUSH1 0x20 ADD DUP3 DUP1 SLOAD DUP1 ISZERO PUSH2 0x12DC JUMPI PUSH1 0x20 MUL DUP3 ADD SWAP2 SWAP1 PUSH1 0x0 MSTORE PUSH1 0x20 PUSH1 0x0 KECCAK256 SWAP1 JUMPDEST DUP2 SLOAD DUP2 MSTORE PUSH1 0x20 ADD SWAP1 PUSH1 0x1 ADD SWAP1 DUP1 DUP4 GT PUSH2 0x12C8 JUMPI JUMPDEST POP POP POP POP POP SWAP1 POP SWAP2 SWAP1 POP JUMP JUMPDEST PUSH1 0x5 SLOAD DUP2 JUMP JUMPDEST PUSH1 0x0 PUSH1 0x20 MSTORE DUP1 PUSH1 0x0 MSTORE PUSH1 0x40 PUSH1 0x0 KECCAK256 PUSH1 0x0 SWAP2 POP SWAP1 POP DUP1 PUSH1 0x0 ADD SLOAD SWAP1 DUP1 PUSH1 0x1 ADD PUSH1 0x0 SWAP1 SLOAD SWAP1 PUSH2 0x100 EXP SWAP1 DIV PUSH20 0xFFFFFFFFFFFFFFFFFFFFFFFFFFFFFFFFFFFFFFFF AND SWAP1 DUP1 PUSH1 0x2 ADD DUP1 SLOAD PUSH2 0x133D SWAP1 PUSH2 0x22A6 JUMP JUMPDEST DUP1 PUSH1 0x1F ADD PUSH1 0x20 DUP1 SWAP2 DIV MUL PUSH1 0x20 ADD PUSH1 0x40 MLOAD SWAP1 DUP2 ADD PUSH1 0x40 MSTORE DUP1 SWAP3 SWAP2 SWAP1 DUP2 DUP2 MSTORE PUSH1 0x20 ADD DUP3 DUP1 SLOAD PUSH2 0x1369 SWAP1 PUSH2 0x22A6 JUMP JUMPDEST DUP1 ISZERO PUSH2 0x13B6 JUMPI DUP1 PUSH1 0x1F LT PUSH2 0x138B JUMPI PUSH2 0x100 DUP1 DUP4 SLOAD DIV MUL DUP4 MSTORE SWAP2 PUSH1 0x20 ADD SWAP2 PUSH2 0x13B6 JUMP JUMPDEST DUP3 ADD SWAP2 SWAP1 PUSH1 0x0 MSTORE PUSH1 0x20 PUSH1 0x0 KECCAK256 SWAP1 JUMPDEST DUP2 SLOAD DUP2 MSTORE SWAP1 PUSH1 0x1 ADD SWAP1 PUSH1 0x20 ADD DUP1 DUP4 GT PUSH2 0x1399 JUMPI DUP3 SWAP1 SUB PUSH1 0x1F AND DUP3 ADD SWAP2 JUMPDEST POP POP POP POP POP SWAP1 DUP1 PUSH1 0x3 ADD DUP1 SLOAD PUSH2 0x13CB SWAP1 PUSH2 0x22A6 JUMP JUMPDEST DUP1 PUSH1 0x1F ADD PUSH1 0x20 DUP1 SWAP2 DIV MUL PUSH1 0x20 ADD PUSH1 0x40 MLOAD SWAP1 DUP2 ADD PUSH1 0x40 MSTORE DUP1 SWAP3 SWAP2 SWAP1 DUP2 DUP2 MSTORE PUSH1 0x20 ADD DUP3 DUP1 SLOAD PUSH2 0x13F7 SWAP1 PUSH2 0x22A6 JUMP JUMPDEST DUP1 ISZERO PUSH2 0x1444 JUMPI DUP1 PUSH1 0x1F LT PUSH2 0x1419 JUMPI PUSH2 0x100 DUP1 DUP4 SLOAD DIV MUL DUP4 MSTORE SWAP2 PUSH1 0x20 ADD SWAP2 PUSH2 0x1444 JUMP JUMPDEST DUP3 ADD SWAP2 SWAP1 PUSH1 0x0 MSTORE PUSH1 0x20 PUSH1 0x0 KECCAK256 SWAP1 JUMPDEST DUP2 SLOAD DUP2 MSTORE SWAP1 PUSH1 0x1 ADD SWAP1 PUSH1 0x20 ADD DUP1 DUP4 GT PUSH2 0x1427 JUMPI DUP3 SWAP1 SUB PUSH1 0x1F AND DUP3 ADD SWAP2 JUMPDEST POP POP POP POP POP SWAP1 DUP1 PUSH1 0x4 ADD DUP1 SLOAD PUSH2 0x1459 SWAP1 PUSH2 0x22A6 JUMP JUMPDEST DUP1 PUSH1 0x1F ADD PUSH1 0x20 DUP1 SWAP2 DIV MUL PUSH1 0x20 ADD PUSH1 0x40 MLOAD SWAP1 DUP2 ADD PUSH1 0x40 MSTORE DUP1 SWAP3 SWAP2 SWAP1 DUP2 DUP2 MSTORE PUSH1 0x20 ADD DUP3 DUP1 SLOAD PUSH2 0x1485 SWAP1 PUSH2 0x22A6 JUMP JUMPDEST DUP1 ISZERO PUSH2 0x14D2 JUMPI DUP1 PUSH1 0x1F LT PUSH2 0x14A7 JUMPI PUSH2 0x100 DUP1 DUP4 SLOAD DIV MUL DUP4 MSTORE SWAP2 PUSH1 0x20 ADD SWAP2 PUSH2 0x14D2 JUMP JUMPDEST DUP3 ADD SWAP2 SWAP1 PUSH1 0x0 MSTORE PUSH1 0x20 PUSH1 0x0 KECCAK256 SWAP1 JUMPDEST DUP2 SLOAD DUP2 MSTORE SWAP1 PUSH1 0x1 ADD SWAP1 PUSH1 0x20 ADD DUP1 DUP4 GT PUSH2 0x14B5 JUMPI DUP3 SWAP1 SUB PUSH1 0x1F AND DUP3 ADD SWAP2 JUMPDEST POP POP POP POP POP SWAP1 DUP1 PUSH1 0x5 ADD SLOAD SWAP1 DUP1 PUSH1 0x6 ADD PUSH1 0x0 SWAP1 SLOAD SWAP1 PUSH2 0x100 EXP SWAP1 DIV PUSH1 0xFF AND SWAP1 DUP1 PUSH1 0x8 ADD SLOAD SWAP1 POP DUP9 JUMP JUMPDEST PUSH1 0x4 PUSH1 0x0 SWAP1 SLOAD SWAP1 PUSH2 0x100 EXP SWAP1 DIV PUSH20 0xFFFFFFFFFFFFFFFFFFFFFFFFFFFFFFFFFFFFFFFF AND DUP2 JUMP JUMPDEST PUSH1 0x40 MLOAD DUP1 PUSH2 0x120 ADD PUSH1 0x40 MSTORE DUP1 PUSH1 0x0 DUP2 MSTORE PUSH1 0x20 ADD PUSH1 0x0 PUSH20 0xFFFFFFFFFFFFFFFFFFFFFFFFFFFFFFFFFFFFFFFF AND DUP2 MSTORE PUSH1 0x20 ADD PUSH1 0x60 DUP2 MSTORE PUSH1 0x20 ADD PUSH1 0x60 DUP2 MSTORE PUSH1 0x20 ADD PUSH1 0x60 DUP2 MSTORE PUSH1 0x20 ADD PUSH1 0x0 DUP2 MSTORE PUSH1 0x20 ADD PUSH1 0x0 PUSH1 0x4 DUP2 GT ISZERO PUSH2 0x1581 JUMPI PUSH2 0x1580 PUSH2 0x19AC JUMP JUMPDEST JUMPDEST DUP2 MSTORE PUSH1 0x20 ADD PUSH1 0x60 DUP2 MSTORE PUSH1 0x20 ADD PUSH1 0x0 DUP2 MSTORE POP SWAP1 JUMP JUMPDEST DUP3 DUP1 SLOAD DUP3 DUP3 SSTORE SWAP1 PUSH1 0x0 MSTORE PUSH1 0x20 PUSH1 0x0 KECCAK256 SWAP1 DUP2 ADD SWAP3 DUP3 ISZERO PUSH2 0x15DD JUMPI SWAP2 PUSH1 0x20 MUL DUP3 ADD JUMPDEST DUP3 DUP2 GT ISZERO PUSH2 0x15DC JUMPI DUP3 MLOAD DUP3 SWAP1 DUP2 PUSH2 0x15CC SWAP2 SWAP1 PUSH2 0x2664 JUMP JUMPDEST POP SWAP2 PUSH1 0x20 ADD SWAP2 SWAP1 PUSH1 0x1 ADD SWAP1 PUSH2 0x15B5 JUMP JUMPDEST JUMPDEST POP SWAP1 POP PUSH2 0x15EA SWAP2 SWAP1 PUSH2 0x15EE JUMP JUMPDEST POP SWAP1 JUMP JUMPDEST JUMPDEST DUP1 DUP3 GT ISZERO PUSH2 0x160E JUMPI PUSH1 0x0 DUP2 DUP2 PUSH2 0x1605 SWAP2 SWAP1 PUSH2 0x1612 JUMP JUMPDEST POP PUSH1 0x1 ADD PUSH2 0x15EF JUMP JUMPDEST POP SWAP1 JUMP JUMPDEST POP DUP1 SLOAD PUSH2 0x161E SWAP1 PUSH2 0x22A6 JUMP JUMPDEST PUSH1 0x0 DUP3 SSTORE DUP1 PUSH1 0x1F LT PUSH2 0x1630 JUMPI POP PUSH2 0x164F JUMP JUMPDEST PUSH1 0x1F ADD PUSH1 0x20 SWAP1 DIV SWAP1 PUSH1 0x0 MSTORE PUSH1 0x20 PUSH1 0x0 KECCAK256 SWAP1 DUP2 ADD SWAP1 PUSH2 0x164E SWAP2 SWAP1 PUSH2 0x1652 JUMP JUMPDEST JUMPDEST POP JUMP JUMPDEST JUMPDEST DUP1 DUP3 GT ISZERO PUSH2 0x166B JUMPI PUSH1 0x0 DUP2 PUSH1 0x0 SWAP1 SSTORE POP PUSH1 0x1 ADD PUSH2 0x1653 JUMP JUMPDEST POP SWAP1 JUMP JUMPDEST PUSH1 0x0 PUSH1 0x40 MLOAD SWAP1 POP SWAP1 JUMP JUMPDEST PUSH1 0x0 DUP1 REVERT JUMPDEST PUSH1 0x0 DUP1 REVERT JUMPDEST PUSH1 0x0 DUP2 SWAP1 POP SWAP2 SWAP1 POP JUMP JUMPDEST PUSH2 0x1696 DUP2 PUSH2 0x1683 JUMP JUMPDEST DUP2 EQ PUSH2 0x16A1 JUMPI PUSH1 0x0 DUP1 REVERT JUMPDEST POP JUMP JUMPDEST PUSH1 0x0 DUP2 CALLDATALOAD SWAP1 POP PUSH2 0x16B3 DUP2 PUSH2 0x168D JUMP JUMPDEST SWAP3 SWAP2 POP POP JUMP JUMPDEST PUSH1 0x5 DUP2 LT PUSH2 0x16C6 JUMPI PUSH1 0x0 DUP1 REVERT JUMPDEST POP JUMP JUMPDEST PUSH1 0x0 DUP2 CALLDATALOAD SWAP1 POP PUSH2 0x16D8 DUP2 PUSH2 0x16B9 JUMP JUMPDEST SWAP3 SWAP2 POP POP JUMP JUMPDEST PUSH1 0x0 DUP1 PUSH1 0x40 DUP4 DUP6 SUB SLT ISZERO PUSH2 0x16F5 JUMPI PUSH2 0x16F4 PUSH2 0x1679 JUMP JUMPDEST JUMPDEST PUSH1 0x0 PUSH2 0x1703 DUP6 DUP3 DUP7 ADD PUSH2 0x16A4 JUMP JUMPDEST SWAP3 POP POP PUSH1 0x20 PUSH2 0x1714 DUP6 DUP3 DUP7 ADD PUSH2 0x16C9 JUMP JUMPDEST SWAP2 POP POP SWAP3 POP SWAP3 SWAP1 POP JUMP JUMPDEST PUSH1 0x0 PUSH20 0xFFFFFFFFFFFFFFFFFFFFFFFFFFFFFFFFFFFFFFFF DUP3 AND SWAP1 POP SWAP2 SWAP1 POP JUMP JUMPDEST PUSH1 0x0 PUSH2 0x1749 DUP3 PUSH2 0x171E JUMP JUMPDEST SWAP1 POP SWAP2 SWAP1 POP JUMP JUMPDEST PUSH2 0x1759 DUP2 PUSH2 0x173E JUMP JUMPDEST DUP2 EQ PUSH2 0x1764 JUMPI PUSH1 0x0 DUP1 REVERT JUMPDEST POP JUMP JUMPDEST PUSH1 0x0 DUP2 CALLDATALOAD SWAP1 POP PUSH2 0x1776 DUP2 PUSH2 0x1750 JUMP JUMPDEST SWAP3 SWAP2 POP POP JUMP JUMPDEST PUSH1 0x0 PUSH1 0x20 DUP3 DUP5 SUB SLT ISZERO PUSH2 0x1792 JUMPI PUSH2 0x1791 PUSH2 0x1679 JUMP JUMPDEST JUMPDEST PUSH1 0x0 PUSH2 0x17A0 DUP5 DUP3 DUP6 ADD PUSH2 0x1767 JUMP JUMPDEST SWAP2 POP POP SWAP3 SWAP2 POP POP JUMP JUMPDEST PUSH1 0x0 DUP2 ISZERO ISZERO SWAP1 POP SWAP2 SWAP1 POP JUMP JUMPDEST PUSH2 0x17BE DUP2 PUSH2 0x17A9 JUMP JUMPDEST DUP3 MSTORE POP POP JUMP JUMPDEST PUSH1 0x0 DUP2 MLOAD SWAP1 POP SWAP2 SWAP1 POP JUMP JUMPDEST PUSH1 0x0 DUP3 DUP3 MSTORE PUSH1 0x20 DUP3 ADD SWAP1 POP SWAP3 SWAP2 POP POP JUMP JUMPDEST PUSH1 0x0 JUMPDEST DUP4 DUP2 LT ISZERO PUSH2 0x17FE JUMPI DUP1 DUP3 ADD MLOAD DUP2 DUP5 ADD MSTORE PUSH1 0x20 DUP2 ADD SWAP1 POP PUSH2 0x17E3 JUMP JUMPDEST PUSH1 0x0 DUP5 DUP5 ADD MSTORE POP POP POP POP JUMP JUMPDEST PUSH1 0x0 PUSH1 0x1F NOT PUSH1 0x1F DUP4 ADD AND SWAP1 POP SWAP2 SWAP1 POP JUMP JUMPDEST PUSH1 0x0 PUSH2 0x1826 DUP3 PUSH2 0x17C4 JUMP JUMPDEST PUSH2 0x1830 DUP2 DUP6 PUSH2 0x17CF JUMP JUMPDEST SWAP4 POP PUSH2 0x1840 DUP2 DUP6 PUSH1 0x20 DUP7 ADD PUSH2 0x17E0 JUMP JUMPDEST PUSH2 0x1849 DUP2 PUSH2 0x180A JUMP JUMPDEST DUP5 ADD SWAP2 POP POP SWAP3 SWAP2 POP POP JUMP JUMPDEST PUSH2 0x185D DUP2 PUSH2 0x1683 JUMP JUMPDEST DUP3 MSTORE POP POP JUMP JUMPDEST PUSH1 0x0 PUSH1 0x60 DUP3 ADD SWAP1 POP PUSH2 0x1878 PUSH1 0x0 DUP4 ADD DUP7 PUSH2 0x17B5 JUMP JUMPDEST DUP2 DUP2 SUB PUSH1 0x20 DUP4 ADD MSTORE PUSH2 0x188A DUP2 DUP6 PUSH2 0x181B JUMP JUMPDEST SWAP1 POP PUSH2 0x1899 PUSH1 0x40 DUP4 ADD DUP5 PUSH2 0x1854 JUMP JUMPDEST SWAP5 SWAP4 POP POP POP POP JUMP JUMPDEST PUSH1 0x0 PUSH1 0x20 DUP3 DUP5 SUB SLT ISZERO PUSH2 0x18B7 JUMPI PUSH2 0x18B6 PUSH2 0x1679 JUMP JUMPDEST JUMPDEST PUSH1 0x0 PUSH2 0x18C5 DUP5 DUP3 DUP6 ADD PUSH2 0x16A4 JUMP JUMPDEST SWAP2 POP POP SWAP3 SWAP2 POP POP JUMP JUMPDEST PUSH1 0x0 PUSH1 0x20 DUP3 ADD SWAP1 POP PUSH2 0x18E3 PUSH1 0x0 DUP4 ADD DUP5 PUSH2 0x17B5 JUMP JUMPDEST SWAP3 SWAP2 POP POP JUMP JUMPDEST PUSH1 0x0 PUSH1 0x20 DUP3 ADD SWAP1 POP PUSH2 0x18FE PUSH1 0x0 DUP4 ADD DUP5 PUSH2 0x1854 JUMP JUMPDEST SWAP3 SWAP2 POP POP JUMP JUMPDEST PUSH1 0x0 DUP1 PUSH1 0x40 DUP4 DUP6 SUB SLT ISZERO PUSH2 0x191B JUMPI PUSH2 0x191A PUSH2 0x1679 JUMP JUMPDEST JUMPDEST PUSH1 0x0 PUSH2 0x1929 DUP6 DUP3 DUP7 ADD PUSH2 0x1767 JUMP JUMPDEST SWAP3 POP POP PUSH1 0x20 PUSH2 0x193A DUP6 DUP3 DUP7 ADD PUSH2 0x16A4 JUMP JUMPDEST SWAP2 POP POP SWAP3 POP SWAP3 SWAP1 POP JUMP JUMPDEST PUSH2 0x194D DUP2 PUSH2 0x1683 JUMP JUMPDEST DUP3 MSTORE POP POP JUMP JUMPDEST PUSH2 0x195C DUP2 PUSH2 0x173E JUMP JUMPDEST DUP3 MSTORE POP POP JUMP JUMPDEST PUSH1 0x0 DUP3 DUP3 MSTORE PUSH1 0x20 DUP3 ADD SWAP1 POP SWAP3 SWAP2 POP POP JUMP JUMPDEST PUSH1 0x0 PUSH2 0x197E DUP3 PUSH2 0x17C4 JUMP JUMPDEST PUSH2 0x1988 DUP2 DUP6 PUSH2 0x1962 JUMP JUMPDEST SWAP4 POP PUSH2 0x1998 DUP2 DUP6 PUSH1 0x20 DUP7 ADD PUSH2 0x17E0 JUMP JUMPDEST PUSH2 0x19A1 DUP2 PUSH2 0x180A JUMP JUMPDEST DUP5 ADD SWAP2 POP POP SWAP3 SWAP2 POP POP JUMP JUMPDEST PUSH32 0x4E487B7100000000000000000000000000000000000000000000000000000000 PUSH1 0x0 MSTORE PUSH1 0x21 PUSH1 0x4 MSTORE PUSH1 0x24 PUSH1 0x0 REVERT JUMPDEST PUSH1 0x5 DUP2 LT PUSH2 0x19EC JUMPI PUSH2 0x19EB PUSH2 0x19AC JUMP JUMPDEST JUMPDEST POP JUMP JUMPDEST PUSH1 0x0 DUP2 SWAP1 POP PUSH2 0x19FD DUP3 PUSH2 0x19DB JUMP JUMPDEST SWAP2 SWAP1 POP JUMP JUMPDEST PUSH1 0x0 PUSH2 0x1A0D DUP3 PUSH2 0x19EF JUMP JUMPDEST SWAP1 POP SWAP2 SWAP1 POP JUMP JUMPDEST PUSH2 0x1A1D DUP2 PUSH2 0x1A02 JUMP JUMPDEST DUP3 MSTORE POP POP JUMP JUMPDEST PUSH1 0x0 DUP2 MLOAD SWAP1 POP SWAP2 SWAP1 POP JUMP JUMPDEST PUSH1 0x0 DUP3 DUP3 MSTORE PUSH1 0x20 DUP3 ADD SWAP1 POP SWAP3 SWAP2 POP POP JUMP JUMPDEST PUSH1 0x0 DUP2 SWAP1 POP PUSH1 0x20 DUP3 ADD SWAP1 POP SWAP2 SWAP1 POP JUMP JUMPDEST PUSH1 0x0 PUSH2 0x1A5B DUP4 DUP4 PUSH2 0x1973 JUMP JUMPDEST SWAP1 POP SWAP3 SWAP2 POP POP JUMP JUMPDEST PUSH1 0x0 PUSH1 0x20 DUP3 ADD SWAP1 POP SWAP2 SWAP1 POP JUMP JUMPDEST PUSH1 0x0 PUSH2 0x1A7B DUP3 PUSH2 0x1A23 JUMP JUMPDEST PUSH2 0x1A85 DUP2 DUP6 PUSH2 0x1A2E JUMP JUMPDEST SWAP4 POP DUP4 PUSH1 0x20 DUP3 MUL DUP6 ADD PUSH2 0x1A97 DUP6 PUSH2 0x1A3F JUMP JUMPDEST DUP1 PUSH1 0x0 JUMPDEST DUP6 DUP2 LT ISZERO PUSH2 0x1AD3 JUMPI DUP5 DUP5 SUB DUP10 MSTORE DUP2 MLOAD PUSH2 0x1AB4 DUP6 DUP3 PUSH2 0x1A4F JUMP JUMPDEST SWAP5 POP PUSH2 0x1ABF DUP4 PUSH2 0x1A63 JUMP JUMPDEST SWAP3 POP PUSH1 0x20 DUP11 ADD SWAP10 POP POP PUSH1 0x1 DUP2 ADD SWAP1 POP PUSH2 0x1A9B JUMP JUMPDEST POP DUP3 SWAP8 POP DUP8 SWAP6 POP POP POP POP POP POP SWAP3 SWAP2 POP POP JUMP JUMPDEST PUSH1 0x0 PUSH2 0x120 DUP4 ADD PUSH1 0x0 DUP4 ADD MLOAD PUSH2 0x1AFE PUSH1 0x0 DUP7 ADD DUP3 PUSH2 0x1944 JUMP JUMPDEST POP PUSH1 0x20 DUP4 ADD MLOAD PUSH2 0x1B11 PUSH1 0x20 DUP7 ADD DUP3 PUSH2 0x1953 JUMP JUMPDEST POP PUSH1 0x40 DUP4 ADD MLOAD DUP5 DUP3 SUB PUSH1 0x40 DUP7 ADD MSTORE PUSH2 0x1B29 DUP3 DUP3 PUSH2 0x1973 JUMP JUMPDEST SWAP2 POP POP PUSH1 0x60 DUP4 ADD MLOAD DUP5 DUP3 SUB PUSH1 0x60 DUP7 ADD MSTORE PUSH2 0x1B43 DUP3 DUP3 PUSH2 0x1973 JUMP JUMPDEST SWAP2 POP POP PUSH1 0x80 DUP4 ADD MLOAD DUP5 DUP3 SUB PUSH1 0x80 DUP7 ADD MSTORE PUSH2 0x1B5D DUP3 DUP3 PUSH2 0x1973 JUMP JUMPDEST SWAP2 POP POP PUSH1 0xA0 DUP4 ADD MLOAD PUSH2 0x1B72 PUSH1 0xA0 DUP7 ADD DUP3 PUSH2 0x1944 JUMP JUMPDEST POP PUSH1 0xC0 DUP4 ADD MLOAD PUSH2 0x1B85 PUSH1 0xC0 DUP7 ADD DUP3 PUSH2 0x1A14 JUMP JUMPDEST POP PUSH1 0xE0 DUP4 ADD MLOAD DUP5 DUP3 SUB PUSH1 0xE0 DUP7 ADD MSTORE PUSH2 0x1B9D DUP3 DUP3 PUSH2 0x1A70 JUMP JUMPDEST SWAP2 POP POP PUSH2 0x100 DUP4 ADD MLOAD PUSH2 0x1BB4 PUSH2 0x100 DUP7 ADD DUP3 PUSH2 0x1944 JUMP JUMPDEST POP DUP1 SWAP2 POP POP SWAP3 SWAP2 POP POP JUMP JUMPDEST PUSH1 0x0 PUSH1 0x20 DUP3 ADD SWAP1 POP DUP2 DUP2 SUB PUSH1 0x0 DUP4 ADD MSTORE PUSH2 0x1BD9 DUP2 DUP5 PUSH2 0x1AE5 JUMP JUMPDEST SWAP1 POP SWAP3 SWAP2 POP POP JUMP JUMPDEST PUSH1 0x0 DUP1 REVERT JUMPDEST PUSH1 0x0 DUP1 REVERT JUMPDEST PUSH32 0x4E487B7100000000000000000000000000000000000000000000000000000000 PUSH1 0x0 MSTORE PUSH1 0x41 PUSH1 0x4 MSTORE PUSH1 0x24 PUSH1 0x0 REVERT JUMPDEST PUSH2 0x1C23 DUP3 PUSH2 0x180A JUMP JUMPDEST DUP2 ADD DUP2 DUP2 LT PUSH8 0xFFFFFFFFFFFFFFFF DUP3 GT OR ISZERO PUSH2 0x1C42 JUMPI PUSH2 0x1C41 PUSH2 0x1BEB JUMP JUMPDEST JUMPDEST DUP1 PUSH1 0x40 MSTORE POP POP POP JUMP JUMPDEST PUSH1 0x0 PUSH2 0x1C55 PUSH2 0x166F JUMP JUMPDEST SWAP1 POP PUSH2 0x1C61 DUP3 DUP3 PUSH2 0x1C1A JUMP JUMPDEST SWAP2 SWAP1 POP JUMP JUMPDEST PUSH1 0x0 PUSH8 0xFFFFFFFFFFFFFFFF DUP3 GT ISZERO PUSH2 0x1C81 JUMPI PUSH2 0x1C80 PUSH2 0x1BEB JUMP JUMPDEST JUMPDEST PUSH2 0x1C8A DUP3 PUSH2 0x180A JUMP JUMPDEST SWAP1 POP PUSH1 0x20 DUP2 ADD SWAP1 POP SWAP2 SWAP1 POP JUMP JUMPDEST DUP3 DUP2 DUP4 CALLDATACOPY PUSH1 0x0 DUP4 DUP4 ADD MSTORE POP POP POP JUMP JUMPDEST PUSH1 0x0 PUSH2 0x1CB9 PUSH2 0x1CB4 DUP5 PUSH2 0x1C66 JUMP JUMPDEST PUSH2 0x1C4B JUMP JUMPDEST SWAP1 POP DUP3 DUP2 MSTORE PUSH1 0x20 DUP2 ADD DUP5 DUP5 DUP5 ADD GT ISZERO PUSH2 0x1CD5 JUMPI PUSH2 0x1CD4 PUSH2 0x1BE6 JUMP JUMPDEST JUMPDEST PUSH2 0x1CE0 DUP5 DUP3 DUP6 PUSH2 0x1C97 JUMP JUMPDEST POP SWAP4 SWAP3 POP POP POP JUMP JUMPDEST PUSH1 0x0 DUP3 PUSH1 0x1F DUP4 ADD SLT PUSH2 0x1CFD JUMPI PUSH2 0x1CFC PUSH2 0x1BE1 JUMP JUMPDEST JUMPDEST DUP2 CALLDATALOAD PUSH2 0x1D0D DUP5 DUP3 PUSH1 0x20 DUP7 ADD PUSH2 0x1CA6 JUMP JUMPDEST SWAP2 POP POP SWAP3 SWAP2 POP POP JUMP JUMPDEST PUSH1 0x0 PUSH8 0xFFFFFFFFFFFFFFFF DUP3 GT ISZERO PUSH2 0x1D31 JUMPI PUSH2 0x1D30 PUSH2 0x1BEB JUMP JUMPDEST JUMPDEST PUSH1 0x20 DUP3 MUL SWAP1 POP PUSH1 0x20 DUP2 ADD SWAP1 POP SWAP2 SWAP1 POP JUMP JUMPDEST PUSH1 0x0 DUP1 REVERT JUMPDEST PUSH1 0x0 PUSH2 0x1D5A PUSH2 0x1D55 DUP5 PUSH2 0x1D16 JUMP JUMPDEST PUSH2 0x1C4B JUMP JUMPDEST SWAP1 POP DUP1 DUP4 DUP3 MSTORE PUSH1 0x20 DUP3 ADD SWAP1 POP PUSH1 0x20 DUP5 MUL DUP4 ADD DUP6 DUP2 GT ISZERO PUSH2 0x1D7D JUMPI PUSH2 0x1D7C PUSH2 0x1D42 JUMP JUMPDEST JUMPDEST DUP4 JUMPDEST DUP2 DUP2 LT ISZERO PUSH2 0x1DC4 JUMPI DUP1 CALLDATALOAD PUSH8 0xFFFFFFFFFFFFFFFF DUP2 GT ISZERO PUSH2 0x1DA2 JUMPI PUSH2 0x1DA1 PUSH2 0x1BE1 JUMP JUMPDEST JUMPDEST DUP1 DUP7 ADD PUSH2 0x1DAF DUP10 DUP3 PUSH2 0x1CE8 JUMP JUMPDEST DUP6 MSTORE PUSH1 0x20 DUP6 ADD SWAP5 POP POP POP PUSH1 0x20 DUP2 ADD SWAP1 POP PUSH2 0x1D7F JUMP JUMPDEST POP POP POP SWAP4 SWAP3 POP POP POP JUMP JUMPDEST PUSH1 0x0 DUP3 PUSH1 0x1F DUP4 ADD SLT PUSH2 0x1DE3 JUMPI PUSH2 0x1DE2 PUSH2 0x1BE1 JUMP JUMPDEST JUMPDEST DUP2 CALLDATALOAD PUSH2 0x1DF3 DUP5 DUP3 PUSH1 0x20 DUP7 ADD PUSH2 0x1D47 JUMP JUMPDEST SWAP2 POP POP SWAP3 SWAP2 POP POP JUMP JUMPDEST PUSH1 0x0 DUP1 PUSH1 0x0 DUP1 PUSH1 0x80 DUP6 DUP8 SUB SLT ISZERO PUSH2 0x1E16 JUMPI PUSH2 0x1E15 PUSH2 0x1679 JUMP JUMPDEST JUMPDEST PUSH1 0x0 DUP6 ADD CALLDATALOAD PUSH8 0xFFFFFFFFFFFFFFFF DUP2 GT ISZERO PUSH2 0x1E34 JUMPI PUSH2 0x1E33 PUSH2 0x167E JUMP JUMPDEST JUMPDEST PUSH2 0x1E40 DUP8 DUP3 DUP9 ADD PUSH2 0x1CE8 JUMP JUMPDEST SWAP5 POP POP PUSH1 0x20 DUP6 ADD CALLDATALOAD PUSH8 0xFFFFFFFFFFFFFFFF DUP2 GT ISZERO PUSH2 0x1E61 JUMPI PUSH2 0x1E60 PUSH2 0x167E JUMP JUMPDEST JUMPDEST PUSH2 0x1E6D DUP8 DUP3 DUP9 ADD PUSH2 0x1CE8 JUMP JUMPDEST SWAP4 POP POP PUSH1 0x40 DUP6 ADD CALLDATALOAD PUSH8 0xFFFFFFFFFFFFFFFF DUP2 GT ISZERO PUSH2 0x1E8E JUMPI PUSH2 0x1E8D PUSH2 0x167E JUMP JUMPDEST JUMPDEST PUSH2 0x1E9A DUP8 DUP3 DUP9 ADD PUSH2 0x1CE8 JUMP JUMPDEST SWAP3 POP POP PUSH1 0x60 DUP6 ADD CALLDATALOAD PUSH8 0xFFFFFFFFFFFFFFFF DUP2 GT ISZERO PUSH2 0x1EBB JUMPI PUSH2 0x1EBA PUSH2 0x167E JUMP JUMPDEST JUMPDEST PUSH2 0x1EC7 DUP8 DUP3 DUP9 ADD PUSH2 0x1DCE JUMP JUMPDEST SWAP2 POP POP SWAP3 SWAP6 SWAP2 SWAP5 POP SWAP3 POP JUMP JUMPDEST PUSH1 0x0 DUP1 PUSH1 0x40 DUP4 DUP6 SUB SLT ISZERO PUSH2 0x1EEA JUMPI PUSH2 0x1EE9 PUSH2 0x1679 JUMP JUMPDEST JUMPDEST PUSH1 0x0 PUSH2 0x1EF8 DUP6 DUP3 DUP7 ADD PUSH2 0x1767 JUMP JUMPDEST SWAP3 POP POP PUSH1 0x20 DUP4 ADD CALLDATALOAD PUSH8 0xFFFFFFFFFFFFFFFF DUP2 GT ISZERO PUSH2 0x1F19 JUMPI PUSH2 0x1F18 PUSH2 0x167E JUMP JUMPDEST JUMPDEST PUSH2 0x1F25 DUP6 DUP3 DUP7 ADD PUSH2 0x1CE8 JUMP JUMPDEST SWAP2 POP POP SWAP3 POP SWAP3 SWAP1 POP JUMP JUMPDEST PUSH1 0x0 DUP2 MLOAD SWAP1 POP SWAP2 SWAP1 POP JUMP JUMPDEST PUSH1 0x0 DUP3 DUP3 MSTORE PUSH1 0x20 DUP3 ADD SWAP1 POP SWAP3 SWAP2 POP POP JUMP JUMPDEST PUSH1 0x0 DUP2 SWAP1 POP PUSH1 0x20 DUP3 ADD SWAP1 POP SWAP2 SWAP1 POP JUMP JUMPDEST PUSH1 0x0 PUSH2 0x1F67 DUP4 DUP4 PUSH2 0x1944 JUMP JUMPDEST PUSH1 0x20 DUP4 ADD SWAP1 POP SWAP3 SWAP2 POP POP JUMP JUMPDEST PUSH1 0x0 PUSH1 0x20 DUP3 ADD SWAP1 POP SWAP2 SWAP1 POP JUMP JUMPDEST PUSH1 0x0 PUSH2 0x1F8B DUP3 PUSH2 0x1F2F JUMP JUMPDEST PUSH2 0x1F95 DUP2 DUP6 PUSH2 0x1F3A JUMP JUMPDEST SWAP4 POP PUSH2 0x1FA0 DUP4 PUSH2 0x1F4B JUMP JUMPDEST DUP1 PUSH1 0x0 JUMPDEST DUP4 DUP2 LT ISZERO PUSH2 0x1FD1 JUMPI DUP2 MLOAD PUSH2 0x1FB8 DUP9 DUP3 PUSH2 0x1F5B JUMP JUMPDEST SWAP8 POP PUSH2 0x1FC3 DUP4 PUSH2 0x1F73 JUMP JUMPDEST SWAP3 POP POP PUSH1 0x1 DUP2 ADD SWAP1 POP PUSH2 0x1FA4 JUMP JUMPDEST POP DUP6 SWAP4 POP POP POP POP SWAP3 SWAP2 POP POP JUMP JUMPDEST PUSH1 0x0 PUSH1 0x20 DUP3 ADD SWAP1 POP DUP2 DUP2 SUB PUSH1 0x0 DUP4 ADD MSTORE PUSH2 0x1FF8 DUP2 DUP5 PUSH2 0x1F80 JUMP JUMPDEST SWAP1 POP SWAP3 SWAP2 POP POP JUMP JUMPDEST PUSH2 0x2009 DUP2 PUSH2 0x173E JUMP JUMPDEST DUP3 MSTORE POP POP JUMP JUMPDEST PUSH2 0x2018 DUP2 PUSH2 0x1A02 JUMP JUMPDEST DUP3 MSTORE POP POP JUMP JUMPDEST PUSH1 0x0 PUSH2 0x100 DUP3 ADD SWAP1 POP PUSH2 0x2034 PUSH1 0x0 DUP4 ADD DUP12 PUSH2 0x1854 JUMP JUMPDEST PUSH2 0x2041 PUSH1 0x20 DUP4 ADD DUP11 PUSH2 0x2000 JUMP JUMPDEST DUP2 DUP2 SUB PUSH1 0x40 DUP4 ADD MSTORE PUSH2 0x2053 DUP2 DUP10 PUSH2 0x181B JUMP JUMPDEST SWAP1 POP DUP2 DUP2 SUB PUSH1 0x60 DUP4 ADD MSTORE PUSH2 0x2067 DUP2 DUP9 PUSH2 0x181B JUMP JUMPDEST SWAP1 POP DUP2 DUP2 SUB PUSH1 0x80 DUP4 ADD MSTORE PUSH2 0x207B DUP2 DUP8 PUSH2 0x181B JUMP JUMPDEST SWAP1 POP PUSH2 0x208A PUSH1 0xA0 DUP4 ADD DUP7 PUSH2 0x1854 JUMP JUMPDEST PUSH2 0x2097 PUSH1 0xC0 DUP4 ADD DUP6 PUSH2 0x200F JUMP JUMPDEST PUSH2 0x20A4 PUSH1 0xE0 DUP4 ADD DUP5 PUSH2 0x1854 JUMP JUMPDEST SWAP10 SWAP9 POP POP POP POP POP POP POP POP POP JUMP JUMPDEST PUSH1 0x0 PUSH1 0x20 DUP3 ADD SWAP1 POP PUSH2 0x20C6 PUSH1 0x0 DUP4 ADD DUP5 PUSH2 0x2000 JUMP JUMPDEST SWAP3 SWAP2 POP POP JUMP JUMPDEST PUSH32 0x4F6E6C7920706174656E74206F666669636572732063616E20706572666F726D PUSH1 0x0 DUP3 ADD MSTORE PUSH32 0x207468697320616374696F6E0000000000000000000000000000000000000000 PUSH1 0x20 DUP3 ADD MSTORE POP JUMP JUMPDEST PUSH1 0x0 PUSH2 0x2128 PUSH1 0x2C DUP4 PUSH2 0x17CF JUMP JUMPDEST SWAP2 POP PUSH2 0x2133 DUP3 PUSH2 0x20CC JUMP JUMPDEST PUSH1 0x40 DUP3 ADD SWAP1 POP SWAP2 SWAP1 POP JUMP JUMPDEST PUSH1 0x0 PUSH1 0x20 DUP3 ADD SWAP1 POP DUP2 DUP2 SUB PUSH1 0x0 DUP4 ADD MSTORE PUSH2 0x2157 DUP2 PUSH2 0x211B JUMP JUMPDEST SWAP1 POP SWAP2 SWAP1 POP JUMP JUMPDEST PUSH32 0x496E76616C696420706174656E74204944000000000000000000000000000000 PUSH1 0x0 DUP3 ADD MSTORE POP JUMP JUMPDEST PUSH1 0x0 PUSH2 0x2194 PUSH1 0x11 DUP4 PUSH2 0x17CF JUMP JUMPDEST SWAP2 POP PUSH2 0x219F DUP3 PUSH2 0x215E JUMP JUMPDEST PUSH1 0x20 DUP3 ADD SWAP1 POP SWAP2 SWAP1 POP JUMP JUMPDEST PUSH1 0x0 PUSH1 0x20 DUP3 ADD SWAP1 POP DUP2 DUP2 SUB PUSH1 0x0 DUP4 ADD MSTORE PUSH2 0x21C3 DUP2 PUSH2 0x2187 JUMP JUMPDEST SWAP1 POP SWAP2 SWAP1 POP JUMP JUMPDEST PUSH32 0x43616E6E6F742073657420737461747573206261636B20746F2070656E64696E PUSH1 0x0 DUP3 ADD MSTORE PUSH32 0x6700000000000000000000000000000000000000000000000000000000000000 PUSH1 0x20 DUP3 ADD MSTORE POP JUMP JUMPDEST PUSH1 0x0 PUSH2 0x2226 PUSH1 0x21 DUP4 PUSH2 0x17CF JUMP JUMPDEST SWAP2 POP PUSH2 0x2231 DUP3 PUSH2 0x21CA JUMP JUMPDEST PUSH1 0x40 DUP3 ADD SWAP1 POP SWAP2 SWAP1 POP JUMP JUMPDEST PUSH1 0x0 PUSH1 0x20 DUP3 ADD SWAP1 POP DUP2 DUP2 SUB PUSH1 0x0 DUP4 ADD MSTORE PUSH2 0x2255 DUP2 PUSH2 0x2219 JUMP JUMPDEST SWAP1 POP SWAP2 SWAP1 POP JUMP JUMPDEST PUSH1 0x0 PUSH1 0x20 DUP3 ADD SWAP1 POP PUSH2 0x2271 PUSH1 0x0 DUP4 ADD DUP5 PUSH2 0x200F JUMP JUMPDEST SWAP3 SWAP2 POP POP JUMP JUMPDEST PUSH32 0x4E487B7100000000000000000000000000000000000000000000000000000000 PUSH1 0x0 MSTORE PUSH1 0x22 PUSH1 0x4 MSTORE PUSH1 0x24 PUSH1 0x0 REVERT JUMPDEST PUSH1 0x0 PUSH1 0x2 DUP3 DIV SWAP1 POP PUSH1 0x1 DUP3 AND DUP1 PUSH2 0x22BE JUMPI PUSH1 0x7F DUP3 AND SWAP2 POP JUMPDEST PUSH1 0x20 DUP3 LT DUP2 SUB PUSH2 0x22D1 JUMPI PUSH2 0x22D0 PUSH2 0x2277 JUMP JUMPDEST JUMPDEST POP SWAP2 SWAP1 POP JUMP JUMPDEST PUSH32 0x4F6E6C792061646D696E2063616E20706572666F726D20746869732061637469 PUSH1 0x0 DUP3 ADD MSTORE PUSH32 0x6F6E000000000000000000000000000000000000000000000000000000000000 PUSH1 0x20 DUP3 ADD MSTORE POP JUMP JUMPDEST PUSH1 0x0 PUSH2 0x2333 PUSH1 0x22 DUP4 PUSH2 0x17CF JUMP JUMPDEST SWAP2 POP PUSH2 0x233E DUP3 PUSH2 0x22D7 JUMP JUMPDEST PUSH1 0x40 DUP3 ADD SWAP1 POP SWAP2 SWAP1 POP JUMP JUMPDEST PUSH1 0x0 PUSH1 0x20 DUP3 ADD SWAP1 POP DUP2 DUP2 SUB PUSH1 0x0 DUP4 ADD MSTORE PUSH2 0x2362 DUP2 PUSH2 0x2326 JUMP JUMPDEST SWAP1 POP SWAP2 SWAP1 POP JUMP JUMPDEST PUSH32 0x4F66666963657220646F6573206E6F7420657869737400000000000000000000 PUSH1 0x0 DUP3 ADD MSTORE POP JUMP JUMPDEST PUSH1 0x0 PUSH2 0x239F PUSH1 0x16 DUP4 PUSH2 0x17CF JUMP JUMPDEST SWAP2 POP PUSH2 0x23AA DUP3 PUSH2 0x2369 JUMP JUMPDEST PUSH1 0x20 DUP3 ADD SWAP1 POP SWAP2 SWAP1 POP JUMP JUMPDEST PUSH1 0x0 PUSH1 0x20 DUP3 ADD SWAP1 POP DUP2 DUP2 SUB PUSH1 0x0 DUP4 ADD MSTORE PUSH2 0x23CE DUP2 PUSH2 0x2392 JUMP JUMPDEST SWAP1 POP SWAP2 SWAP1 POP JUMP JUMPDEST PUSH32 0x496E636F72726563742066696C696E6720666565000000000000000000000000 PUSH1 0x0 DUP3 ADD MSTORE POP JUMP JUMPDEST PUSH1 0x0 PUSH2 0x240B PUSH1 0x14 DUP4 PUSH2 0x17CF JUMP JUMPDEST SWAP2 POP PUSH2 0x2416 DUP3 PUSH2 0x23D5 JUMP JUMPDEST PUSH1 0x20 DUP3 ADD SWAP1 POP SWAP2 SWAP1 POP JUMP JUMPDEST PUSH1 0x0 PUSH1 0x20 DUP3 ADD SWAP1 POP DUP2 DUP2 SUB PUSH1 0x0 DUP4 ADD MSTORE PUSH2 0x243A DUP2 PUSH2 0x23FE JUMP JUMPDEST SWAP1 POP SWAP2 SWAP1 POP JUMP JUMPDEST PUSH32 0x4E487B7100000000000000000000000000000000000000000000000000000000 PUSH1 0x0 MSTORE PUSH1 0x11 PUSH1 0x4 MSTORE PUSH1 0x24 PUSH1 0x0 REVERT JUMPDEST PUSH1 0x0 PUSH2 0x247B DUP3 PUSH2 0x1683 JUMP JUMPDEST SWAP2 POP PUSH32 0xFFFFFFFFFFFFFFFFFFFFFFFFFFFFFFFFFFFFFFFFFFFFFFFFFFFFFFFFFFFFFFFF DUP3 SUB PUSH2 0x24AD JUMPI PUSH2 0x24AC PUSH2 0x2441 JUMP JUMPDEST JUMPDEST PUSH1 0x1 DUP3 ADD SWAP1 POP SWAP2 SWAP1 POP JUMP JUMPDEST PUSH1 0x0 DUP2 SWAP1 POP DUP2 PUSH1 0x0 MSTORE PUSH1 0x20 PUSH1 0x0 KECCAK256 SWAP1 POP SWAP2 SWAP1 POP JUMP JUMPDEST PUSH1 0x0 PUSH1 0x20 PUSH1 0x1F DUP4 ADD DIV SWAP1 POP SWAP2 SWAP1 POP JUMP JUMPDEST PUSH1 0x0 DUP3 DUP3 SHL SWAP1 POP SWAP3 SWAP2 POP POP JUMP JUMPDEST PUSH1 0x0 PUSH1 0x8 DUP4 MUL PUSH2 0x251A PUSH32 0xFFFFFFFFFFFFFFFFFFFFFFFFFFFFFFFFFFFFFFFFFFFFFFFFFFFFFFFFFFFFFFFF DUP3 PUSH2 0x24DD JUMP JUMPDEST PUSH2 0x2524 DUP7 DUP4 PUSH2 0x24DD JUMP JUMPDEST SWAP6 POP DUP1 NOT DUP5 AND SWAP4 POP DUP1 DUP7 AND DUP5 OR SWAP3 POP POP POP SWAP4 SWAP3 POP POP POP JUMP JUMPDEST PUSH1 0x0 DUP2 SWAP1 POP SWAP2 SWAP1 POP JUMP JUMPDEST PUSH1 0x0 PUSH2 0x2561 PUSH2 0x255C PUSH2 0x2557 DUP5 PUSH2 0x1683 JUMP JUMPDEST PUSH2 0x253C JUMP JUMPDEST PUSH2 0x1683 JUMP JUMPDEST SWAP1 POP SWAP2 SWAP1 POP JUMP JUMPDEST PUSH1 0x0 DUP2 SWAP1 POP SWAP2 SWAP1 POP JUMP JUMPDEST PUSH2 0x257B DUP4 PUSH2 0x2546 JUMP JUMPDEST PUSH2 0x258F PUSH2 0x2587 DUP3 PUSH2 0x2568 JUMP JUMPDEST DUP5 DUP5 SLOAD PUSH2 0x24EA JUMP JUMPDEST DUP3 SSTORE POP POP POP POP JUMP JUMPDEST PUSH1 0x0 SWAP1 JUMP JUMPDEST PUSH2 0x25A4 PUSH2 0x2597 JUMP JUMPDEST PUSH2 0x25AF DUP2 DUP5 DUP5 PUSH2 0x2572 JUMP JUMPDEST POP POP POP JUMP JUMPDEST JUMPDEST DUP2 DUP2 LT ISZERO PUSH2 0x25D3 JUMPI PUSH2 0x25C8 PUSH1 0x0 DUP3 PUSH2 0x259C JUMP JUMPDEST PUSH1 0x1 DUP2 ADD SWAP1 POP PUSH2 0x25B5 JUMP JUMPDEST POP POP JUMP JUMPDEST PUSH1 0x1F DUP3 GT ISZERO PUSH2 0x2618 JUMPI PUSH2 0x25E9 DUP2 PUSH2 0x24B8 JUMP JUMPDEST PUSH2 0x25F2 DUP5 PUSH2 0x24CD JUMP JUMPDEST DUP2 ADD PUSH1 0x20 DUP6 LT ISZERO PUSH2 0x2601 JUMPI DUP2 SWAP1 POP JUMPDEST PUSH2 0x2615 PUSH2 0x260D DUP6 PUSH2 0x24CD JUMP JUMPDEST DUP4 ADD DUP3 PUSH2 0x25B4 JUMP JUMPDEST POP POP JUMPDEST POP POP POP JUMP JUMPDEST PUSH1 0x0 DUP3 DUP3 SHR SWAP1 POP SWAP3 SWAP2 POP POP JUMP JUMPDEST PUSH1 0x0 PUSH2 0x263B PUSH1 0x0 NOT DUP5 PUSH1 0x8 MUL PUSH2 0x261D JUMP JUMPDEST NOT DUP1 DUP4 AND SWAP2 POP POP SWAP3 SWAP2 POP POP JUMP JUMPDEST PUSH1 0x0 PUSH2 0x2654 DUP4 DUP4 PUSH2 0x262A JUMP JUMPDEST SWAP2 POP DUP3 PUSH1 0x2 MUL DUP3 OR SWAP1 POP SWAP3 SWAP2 POP POP JUMP JUMPDEST PUSH2 0x266D DUP3 PUSH2 0x17C4 JUMP JUMPDEST PUSH8 0xFFFFFFFFFFFFFFFF DUP2 GT ISZERO PUSH2 0x2686 JUMPI PUSH2 0x2685 PUSH2 0x1BEB JUMP JUMPDEST JUMPDEST PUSH2 0x2690 DUP3 SLOAD PUSH2 0x22A6 JUMP JUMPDEST PUSH2 0x269B DUP3 DUP3 DUP6 PUSH2 0x25D7 JUMP JUMPDEST PUSH1 0x0 PUSH1 0x20 SWAP1 POP PUSH1 0x1F DUP4 GT PUSH1 0x1 DUP2 EQ PUSH2 0x26CE JUMPI PUSH1 0x0 DUP5 ISZERO PUSH2 0x26BC JUMPI DUP3 DUP8 ADD MLOAD SWAP1 POP JUMPDEST PUSH2 0x26C6 DUP6 DUP3 PUSH2 0x2648 JUMP JUMPDEST DUP7 SSTORE POP PUSH2 0x272E JUMP JUMPDEST PUSH1 0x1F NOT DUP5 AND PUSH2 0x26DC DUP7 PUSH2 0x24B8 JUMP JUMPDEST PUSH1 0x0 JUMPDEST DUP3 DUP2 LT ISZERO PUSH2 0x2704 JUMPI DUP5 DUP10 ADD MLOAD DUP3 SSTORE PUSH1 0x1 DUP3 ADD SWAP2 POP PUSH1 0x20 DUP6 ADD SWAP5 POP PUSH1 0x20 DUP2 ADD SWAP1 POP PUSH2 0x26DF JUMP JUMPDEST DUP7 DUP4 LT ISZERO PUSH2 0x2721 JUMPI DUP5 DUP10 ADD MLOAD PUSH2 0x271D PUSH1 0x1F DUP10 AND DUP3 PUSH2 0x262A JUMP JUMPDEST DUP4 SSTORE POP JUMPDEST PUSH1 0x1 PUSH1 0x2 DUP9 MUL ADD DUP9 SSTORE POP POP POP JUMPDEST POP POP POP POP POP POP JUMP JUMPDEST PUSH1 0x0 PUSH2 0x2741 DUP3 PUSH2 0x1683 JUMP JUMPDEST SWAP2 POP PUSH2 0x274C DUP4 PUSH2 0x1683 JUMP JUMPDEST SWAP3 POP DUP3 DUP3 ADD SWAP1 POP DUP1 DUP3 GT ISZERO PUSH2 0x2764 JUMPI PUSH2 0x2763 PUSH2 0x2441 JUMP JUMPDEST JUMPDEST SWAP3 SWAP2 POP POP JUMP JUMPDEST PUSH1 0x0 PUSH1 0x40 DUP3 ADD SWAP1 POP DUP2 DUP2 SUB PUSH1 0x0 DUP4 ADD MSTORE PUSH2 0x2784 DUP2 DUP6 PUSH2 0x181B JUMP JUMPDEST SWAP1 POP DUP2 DUP2 SUB PUSH1 0x20 DUP4 ADD MSTORE PUSH2 0x2798 DUP2 DUP5 PUSH2 0x181B JUMP JUMPDEST SWAP1 POP SWAP4 SWAP3 POP POP POP JUMP JUMPDEST PUSH32 0x4F66666963657220616C72656164792065786973747300000000000000000000 PUSH1 0x0 DUP3 ADD MSTORE POP JUMP JUMPDEST PUSH1 0x0 PUSH2 0x27D7 PUSH1 0x16 DUP4 PUSH2 0x17CF JUMP JUMPDEST SWAP2 POP PUSH2 0x27E2 DUP3 PUSH2 0x27A1 JUMP JUMPDEST PUSH1 0x20 DUP3 ADD SWAP1 POP SWAP2 SWAP1 POP JUMP JUMPDEST PUSH1 0x0 PUSH1 0x20 DUP3 ADD SWAP1 POP DUP2 DUP2 SUB PUSH1 0x0 DUP4 ADD MSTORE PUSH2 0x2806 DUP2 PUSH2 0x27CA JUMP JUMPDEST SWAP1 POP SWAP2 SWAP1 POP JUMP JUMPDEST PUSH1 0x0 PUSH1 0x20 DUP3 ADD SWAP1 POP DUP2 DUP2 SUB PUSH1 0x0 DUP4 ADD MSTORE PUSH2 0x2827 DUP2 DUP5 PUSH2 0x181B JUMP JUMPDEST SWAP1 POP SWAP3 SWAP2 POP POP JUMP INVALID LOG2 PUSH5 0x6970667358 0x22 SLT KECCAK256 CALLCODE BALANCE CODESIZE 0x2F PUSH4 0xAE671020 0xC4 0x1E 0xE0 0xEC 0xE0 0xE8 CALLER 0xE2 0xD6 DIV LOG1 MSTORE DUP3 SWAP16 EXTCODEHASH DUP1 DUP1 0xD5 0xB4 0xC5 0xB3 0xC8 0xA5 PUSH5 0x736F6C6343 STOP ADDMOD SGT STOP CALLER "
				},
				"gasEstimates": {
					"creation": {
						"codeDepositCost": "2068200",
						"executionCost": "48572",
						"totalCost": "2116772"
					},
					"external": {
						"FILING_FEE()": "2473",
						"PATENT_VALIDITY_PERIOD()": "396",
						"addPatentOfficer(address,string)": "infinite",
						"admin()": "2602",
						"filePatent(string,string,string,string[])": "infinite",
						"getPatent(uint256)": "infinite",
						"getUserPatents(address)": "infinite",
						"isPatentOfficer(address)": "2912",
						"patentCount()": "2474",
						"patentOfficers(address)": "infinite",
						"patents(uint256)": "infinite",
						"removePatentOfficer(address)": "30466",
						"updateFilingFee(uint256)": "24780",
						"updatePatentStatus(uint256,uint8)": "31080",
						"userPatents(address,uint256)": "infinite",
						"withdrawFees()": "infinite"
					}
				},
				"methodIdentifiers": {
					"FILING_FEE()": "e26becc2",
					"PATENT_VALIDITY_PERIOD()": "8e5ebf53",
					"addPatentOfficer(address,string)": "c79f25ca",
					"admin()": "f851a440",
					"filePatent(string,string,string,string[])": "c470e97e",
					"getPatent(uint256)": "9c6d0d78",
					"getUserPatents(address)": "ce9011c3",
					"isPatentOfficer(address)": "3ec991fa",
					"patentCount()": "b084c841",
					"patentOfficers(address)": "1744afec",
					"patents(uint256)": "f422bc68",
					"removePatentOfficer(address)": "18de52c8",
					"updateFilingFee(uint256)": "3c9e98f7",
					"updatePatentStatus(uint256,uint8)": "0ecae274",
					"userPatents(address,uint256)": "95aa3590",
					"withdrawFees()": "476343ee"
				}
			},
			"storageLayout": {
				"storage": [
					{
						"astId": 40,
						"contract": "contracts/PatentRegistry.sol:PatentRegistry",
						"label": "patents",
						"offset": 0,
						"slot": "0",
						"type": "t_mapping(t_uint256,t_struct(Patent)22_storage)"
					},
					{
						"astId": 45,
						"contract": "contracts/PatentRegistry.sol:PatentRegistry",
						"label": "patentOfficers",
						"offset": 0,
						"slot": "1",
						"type": "t_mapping(t_address,t_struct(PatentOfficer)29_storage)"
					},
					{
						"astId": 50,
						"contract": "contracts/PatentRegistry.sol:PatentRegistry",
						"label": "userPatents",
						"offset": 0,
						"slot": "2",
						"type": "t_mapping(t_address,t_array(t_uint256)dyn_storage)"
					},
					{
						"astId": 52,
						"contract": "contracts/PatentRegistry.sol:PatentRegistry",
						"label": "patentCount",
						"offset": 0,
						"slot": "3",
						"type": "t_uint256"
					},
					{
						"astId": 54,
						"contract": "contracts/PatentRegistry.sol:PatentRegistry",
						"label": "admin",
						"offset": 0,
						"slot": "4",
						"type": "t_address"
					},
					{
						"astId": 62,
						"contract": "contracts/PatentRegistry.sol:PatentRegistry",
						"label": "FILING_FEE",
						"offset": 0,
						"slot": "5",
						"type": "t_uint256"
					}
				],
				"types": {
					"t_address": {
						"encoding": "inplace",
						"label": "address",
						"numberOfBytes": "20"
					},
					"t_array(t_string_storage)dyn_storage": {
						"base": "t_string_storage",
						"encoding": "dynamic_array",
						"label": "string[]",
						"numberOfBytes": "32"
					},
					"t_array(t_uint256)dyn_storage": {
						"base": "t_uint256",
						"encoding": "dynamic_array",
						"label": "uint256[]",
						"numberOfBytes": "32"
					},
					"t_bool": {
						"encoding": "inplace",
						"label": "bool",
						"numberOfBytes": "1"
					},
					"t_enum(PatentStatus)35": {
						"encoding": "inplace",
						"label": "enum PatentRegistry.PatentStatus",
						"numberOfBytes": "1"
					},
					"t_mapping(t_address,t_array(t_uint256)dyn_storage)": {
						"encoding": "mapping",
						"key": "t_address",
						"label": "mapping(address => uint256[])",
						"numberOfBytes": "32",
						"value": "t_array(t_uint256)dyn_storage"
					},
					"t_mapping(t_address,t_struct(PatentOfficer)29_storage)": {
						"encoding": "mapping",
						"key": "t_address",
						"label": "mapping(address => struct PatentRegistry.PatentOfficer)",
						"numberOfBytes": "32",
						"value": "t_struct(PatentOfficer)29_storage"
					},
					"t_mapping(t_uint256,t_struct(Patent)22_storage)": {
						"encoding": "mapping",
						"key": "t_uint256",
						"label": "mapping(uint256 => struct PatentRegistry.Patent)",
						"numberOfBytes": "32",
						"value": "t_struct(Patent)22_storage"
					},
					"t_string_storage": {
						"encoding": "bytes",
						"label": "string",
						"numberOfBytes": "32"
					},
					"t_struct(Patent)22_storage": {
						"encoding": "inplace",
						"label": "struct PatentRegistry.Patent",
						"members": [
							{
								"astId": 3,
								"contract": "contracts/PatentRegistry.sol:PatentRegistry",
								"label": "id",
								"offset": 0,
								"slot": "0",
								"type": "t_uint256"
							},
							{
								"astId": 5,
								"contract": "contracts/PatentRegistry.sol:PatentRegistry",
								"label": "owner",
								"offset": 0,
								"slot": "1",
								"type": "t_address"
							},
							{
								"astId": 7,
								"contract": "contracts/PatentRegistry.sol:PatentRegistry",
								"label": "ipfsHash",
								"offset": 0,
								"slot": "2",
								"type": "t_string_storage"
							},
							{
								"astId": 9,
								"contract": "contracts/PatentRegistry.sol:PatentRegistry",
								"label": "title",
								"offset": 0,
								"slot": "3",
								"type": "t_string_storage"
							},
							{
								"astId": 11,
								"contract": "contracts/PatentRegistry.sol:PatentRegistry",
								"label": "description",
								"offset": 0,
								"slot": "4",
								"type": "t_string_storage"
							},
							{
								"astId": 13,
								"contract": "contracts/PatentRegistry.sol:PatentRegistry",
								"label": "filingDate",
								"offset": 0,
								"slot": "5",
								"type": "t_uint256"
							},
							{
								"astId": 16,
								"contract": "contracts/PatentRegistry.sol:PatentRegistry",
								"label": "status",
								"offset": 0,
								"slot": "6",
								"type": "t_enum(PatentStatus)35"
							},
							{
								"astId": 19,
								"contract": "contracts/PatentRegistry.sol:PatentRegistry",
								"label": "keywords",
								"offset": 0,
								"slot": "7",
								"type": "t_array(t_string_storage)dyn_storage"
							},
							{
								"astId": 21,
								"contract": "contracts/PatentRegistry.sol:PatentRegistry",
								"label": "expiryDate",
								"offset": 0,
								"slot": "8",
								"type": "t_uint256"
							}
						],
						"numberOfBytes": "288"
					},
					"t_struct(PatentOfficer)29_storage": {
						"encoding": "inplace",
						"label": "struct PatentRegistry.PatentOfficer",
						"members": [
							{
								"astId": 24,
								"contract": "contracts/PatentRegistry.sol:PatentRegistry",
								"label": "isActive",
								"offset": 0,
								"slot": "0",
								"type": "t_bool"
							},
							{
								"astId": 26,
								"contract": "contracts/PatentRegistry.sol:PatentRegistry",
								"label": "name",
								"offset": 0,
								"slot": "1",
								"type": "t_string_storage"
							},
							{
								"astId": 28,
								"contract": "contracts/PatentRegistry.sol:PatentRegistry",
								"label": "appointmentDate",
								"offset": 0,
								"slot": "2",
								"type": "t_uint256"
							}
						],
						"numberOfBytes": "96"
					},
					"t_uint256": {
						"encoding": "inplace",
						"label": "uint256",
						"numberOfBytes": "32"
					}
				}
			},
			"userdoc": {
				"kind": "user",
				"methods": {},
				"version": 1
			}
		}
	}
}