{
  "_format": "hh-sol-artifact-1",
  "contractName": "IPProtection",
  "sourceName": "contracts/IPProtection.sol",
  "abi": [
    {
      "inputs": [],
      "stateMutability": "nonpayable",
      "type": "constructor"
    },
    {
      "anonymous": false,
      "inputs": [
        {
          "indexed": true,
          "internalType": "address",
          "name": "officer",
          "type": "address"
        }
      ],
      "name": "OfficerAdded",
      "type": "event"
    },
    {
      "anonymous": false,
      "inputs": [
        {
          "indexed": true,
          "internalType": "address",
          "name": "officer",
          "type": "address"
        }
      ],
      "name": "OfficerRemoved",
      "type": "event"
    },
    {
      "anonymous": false,
      "inputs": [
        {
          "indexed": true,
          "internalType": "uint256",
          "name": "id",
          "type": "uint256"
        },
        {
          "indexed": true,
          "internalType": "address",
          "name": "approvedBy",
          "type": "address"
        }
      ],
      "name": "PatentApproved",
      "type": "event"
    },
    {
      "anonymous": false,
      "inputs": [
        {
          "indexed": true,
          "internalType": "uint256",
          "name": "id",
          "type": "uint256"
        },
        {
          "indexed": true,
          "internalType": "address",
          "name": "owner",
          "type": "address"
        },
        {
          "indexed": false,
          "internalType": "string",
          "name": "ipfsHash",
          "type": "string"
        }
      ],
      "name": "PatentFiled",
      "type": "event"
    },
    {
      "inputs": [
        {
          "internalType": "address",
          "name": "officer",
          "type": "address"
        }
      ],
      "name": "addPatentOfficer",
      "outputs": [],
      "stateMutability": "nonpayable",
      "type": "function"
    },
    {
      "inputs": [],
      "name": "admin",
      "outputs": [
        {
          "internalType": "address",
          "name": "",
          "type": "address"
        }
      ],
      "stateMutability": "view",
      "type": "function"
    },
    {
      "inputs": [
        {
          "internalType": "uint256",
          "name": "patentId",
          "type": "uint256"
        }
      ],
      "name": "approvePatent",
      "outputs": [],
      "stateMutability": "nonpayable",
      "type": "function"
    },
    {
      "inputs": [
        {
          "internalType": "string",
          "name": "ipfsHash",
          "type": "string"
        }
      ],
      "name": "filePatent",
      "outputs": [],
      "stateMutability": "nonpayable",
      "type": "function"
    },
    {
      "inputs": [
        {
          "internalType": "uint256",
          "name": "patentId",
          "type": "uint256"
        }
      ],
      "name": "getPatent",
      "outputs": [
        {
          "components": [
            {
              "internalType": "uint256",
              "name": "id",
              "type": "uint256"
            },
            {
              "internalType": "address",
              "name": "owner",
              "type": "address"
            },
            {
              "internalType": "string",
              "name": "ipfsHash",
              "type": "string"
            },
            {
              "internalType": "uint256",
              "name": "timestamp",
              "type": "uint256"
            },
            {
              "internalType": "bool",
              "name": "isApproved",
              "type": "bool"
            },
            {
              "internalType": "address",
              "name": "approvedBy",
              "type": "address"
            }
          ],
          "internalType": "struct IPProtection.Patent",
          "name": "",
          "type": "tuple"
        }
      ],
      "stateMutability": "view",
      "type": "function"
    },
    {
      "inputs": [],
      "name": "patentCount",
      "outputs": [
        {
          "internalType": "uint256",
          "name": "",
          "type": "uint256"
        }
      ],
      "stateMutability": "view",
      "type": "function"
    },
    {
      "inputs": [
        {
          "internalType": "address",
          "name": "",
          "type": "address"
        }
      ],
      "name": "patentOfficers",
      "outputs": [
        {
          "internalType": "bool",
          "name": "",
          "type": "bool"
        }
      ],
      "stateMutability": "view",
      "type": "function"
    },
    {
      "inputs": [
        {
          "internalType": "uint256",
          "name": "",
          "type": "uint256"
        }
      ],
      "name": "patents",
      "outputs": [
        {
          "internalType": "uint256",
          "name": "id",
          "type": "uint256"
        },
        {
          "internalType": "address",
          "name": "owner",
          "type": "address"
        },
        {
          "internalType": "string",
          "name": "ipfsHash",
          "type": "string"
        },
        {
          "internalType": "uint256",
          "name": "timestamp",
          "type": "uint256"
        },
        {
          "internalType": "bool",
          "name": "isApproved",
          "type": "bool"
        },
        {
          "internalType": "address",
          "name": "approvedBy",
          "type": "address"
        }
      ],
      "stateMutability": "view",
      "type": "function"
    },
    {
      "inputs": [
        {
          "internalType": "address",
          "name": "officer",
          "type": "address"
        }
      ],
      "name": "removePatentOfficer",
      "outputs": [],
      "stateMutability": "nonpayable",
      "type": "function"
    }
  ],
  "bytecode": "0x608060405234801561001057600080fd5b5033600360006101000a81548173ffffffffffffffffffffffffffffffffffffffff021916908373ffffffffffffffffffffffffffffffffffffffff1602179055506000600181905550611658806100696000396000f3fe608060405234801561001057600080fd5b50600436106100935760003560e01c8063897ed33711610066578063897ed3371461011c5780639c6d0d7814610138578063b084c84114610168578063f422bc6814610186578063f851a440146101bb57610093565b80631744afec1461009857806318de52c8146100c8578063226e5952146100e4578063589a5e5b14610100575b600080fd5b6100b260048036038101906100ad9190610bfd565b6101d9565b6040516100bf9190610c45565b60405180910390f35b6100e260048036038101906100dd9190610bfd565b6101f9565b005b6100fe60048036038101906100f99190610da6565b610327565b005b61011a60048036038101906101159190610e25565b6104e1565b005b61013660048036038101906101319190610bfd565b6106de565b005b610152600480360381019061014d9190610e25565b61080c565b60405161015f9190610f87565b60405180910390f35b6101706109ea565b60405161017d9190610fb8565b60405180910390f35b6101a0600480360381019061019b9190610e25565b6109f0565b6040516101b29695949392919061102c565b60405180910390f35b6101c3610b01565b6040516101d09190611094565b60405180910390f35b60026020528060005260406000206000915054906101000a900460ff1681565b600360009054906101000a900473ffffffffffffffffffffffffffffffffffffffff1673ffffffffffffffffffffffffffffffffffffffff163373ffffffffffffffffffffffffffffffffffffffff1614610289576040517f08c379a000000000000000000000000000000000000000000000000000000000815260040161028090611121565b60405180910390fd5b6000600260008373ffffffffffffffffffffffffffffffffffffffff1673ffffffffffffffffffffffffffffffffffffffff16815260200190815260200160002060006101000a81548160ff0219169083151502179055508073ffffffffffffffffffffffffffffffffffffffff167fc71ac73682f965d639a2f97202d5b162f5ea75f1ef0e933bad7f1db870a4c25460405160405180910390a250565b6001600081548092919061033a90611170565b91905055506040518060c0016040528060015481526020013373ffffffffffffffffffffffffffffffffffffffff168152602001828152602001428152602001600015158152602001600073ffffffffffffffffffffffffffffffffffffffff1681525060008060015481526020019081526020016000206000820151816000015560208201518160010160006101000a81548173ffffffffffffffffffffffffffffffffffffffff021916908373ffffffffffffffffffffffffffffffffffffffff160217905550604082015181600201908161041891906113c4565b506060820151816003015560808201518160040160006101000a81548160ff02191690831515021790555060a08201518160040160016101000a81548173ffffffffffffffffffffffffffffffffffffffff021916908373ffffffffffffffffffffffffffffffffffffffff1602179055509050503373ffffffffffffffffffffffffffffffffffffffff166001547f7b5bb19767f561f12770dad2c81e5f835f07f7996819f618604ee536a05e8719836040516104d69190611496565b60405180910390a350565b600260003373ffffffffffffffffffffffffffffffffffffffff1673ffffffffffffffffffffffffffffffffffffffff16815260200190815260200160002060009054906101000a900460ff1661056d576040517f08c379a00000000000000000000000000000000000000000000000000000000081526004016105649061152a565b60405180910390fd5b6001548111156105b2576040517f08c379a00000000000000000000000000000000000000000000000000000000081526004016105a990611596565b60405180910390fd5b60008082815260200190815260200160002060040160009054906101000a900460ff1615610615576040517f08c379a000000000000000000000000000000000000000000000000000000000815260040161060c90611602565b60405180910390fd5b600160008083815260200190815260200160002060040160006101000a81548160ff0219169083151502179055503360008083815260200190815260200160002060040160016101000a81548173ffffffffffffffffffffffffffffffffffffffff021916908373ffffffffffffffffffffffffffffffffffffffff1602179055503373ffffffffffffffffffffffffffffffffffffffff16817fac972b18e985b396a11a112d89260b373916189f1daf30fc49b7b1bc0a8ab54660405160405180910390a350565b600360009054906101000a900473ffffffffffffffffffffffffffffffffffffffff1673ffffffffffffffffffffffffffffffffffffffff163373ffffffffffffffffffffffffffffffffffffffff161461076e576040517f08c379a000000000000000000000000000000000000000000000000000000000815260040161076590611121565b60405180910390fd5b6001600260008373ffffffffffffffffffffffffffffffffffffffff1673ffffffffffffffffffffffffffffffffffffffff16815260200190815260200160002060006101000a81548160ff0219169083151502179055508073ffffffffffffffffffffffffffffffffffffffff167f0a5e350574f3293d09c9df68b92156ccec15be9e07b6cab9616ec2b486d2a4d960405160405180910390a250565b610814610b27565b600154821115610859576040517f08c379a000000000000000000000000000000000000000000000000000000000815260040161085090611596565b60405180910390fd5b6000808381526020019081526020016000206040518060c0016040529081600082015481526020016001820160009054906101000a900473ffffffffffffffffffffffffffffffffffffffff1673ffffffffffffffffffffffffffffffffffffffff1673ffffffffffffffffffffffffffffffffffffffff1681526020016002820180546108e6906111e7565b80601f0160208091040260200160405190810160405280929190818152602001828054610912906111e7565b801561095f5780601f106109345761010080835404028352916020019161095f565b820191906000526020600020905b81548152906001019060200180831161094257829003601f168201915b50505050508152602001600382015481526020016004820160009054906101000a900460ff161515151581526020016004820160019054906101000a900473ffffffffffffffffffffffffffffffffffffffff1673ffffffffffffffffffffffffffffffffffffffff1673ffffffffffffffffffffffffffffffffffffffff16815250509050919050565b60015481565b60006020528060005260406000206000915090508060000154908060010160009054906101000a900473ffffffffffffffffffffffffffffffffffffffff1690806002018054610a3f906111e7565b80601f0160208091040260200160405190810160405280929190818152602001828054610a6b906111e7565b8015610ab85780601f10610a8d57610100808354040283529160200191610ab8565b820191906000526020600020905b815481529060010190602001808311610a9b57829003601f168201915b5050505050908060030154908060040160009054906101000a900460ff16908060040160019054906101000a900473ffffffffffffffffffffffffffffffffffffffff16905086565b600360009054906101000a900473ffffffffffffffffffffffffffffffffffffffff1681565b6040518060c0016040528060008152602001600073ffffffffffffffffffffffffffffffffffffffff1681526020016060815260200160008152602001600015158152602001600073ffffffffffffffffffffffffffffffffffffffff1681525090565b6000604051905090565b600080fd5b600080fd5b600073ffffffffffffffffffffffffffffffffffffffff82169050919050565b6000610bca82610b9f565b9050919050565b610bda81610bbf565b8114610be557600080fd5b50565b600081359050610bf781610bd1565b92915050565b600060208284031215610c1357610c12610b95565b5b6000610c2184828501610be8565b91505092915050565b60008115159050919050565b610c3f81610c2a565b82525050565b6000602082019050610c5a6000830184610c36565b92915050565b600080fd5b600080fd5b6000601f19601f8301169050919050565b7f4e487b7100000000000000000000000000000000000000000000000000000000600052604160045260246000fd5b610cb382610c6a565b810181811067ffffffffffffffff82111715610cd257610cd1610c7b565b5b80604052505050565b6000610ce5610b8b565b9050610cf18282610caa565b919050565b600067ffffffffffffffff821115610d1157610d10610c7b565b5b610d1a82610c6a565b9050602081019050919050565b82818337600083830152505050565b6000610d49610d4484610cf6565b610cdb565b905082815260208101848484011115610d6557610d64610c65565b5b610d70848285610d27565b509392505050565b600082601f830112610d8d57610d8c610c60565b5b8135610d9d848260208601610d36565b91505092915050565b600060208284031215610dbc57610dbb610b95565b5b600082013567ffffffffffffffff811115610dda57610dd9610b9a565b5b610de684828501610d78565b91505092915050565b6000819050919050565b610e0281610def565b8114610e0d57600080fd5b50565b600081359050610e1f81610df9565b92915050565b600060208284031215610e3b57610e3a610b95565b5b6000610e4984828501610e10565b91505092915050565b610e5b81610def565b82525050565b610e6a81610bbf565b82525050565b600081519050919050565b600082825260208201905092915050565b60005b83811015610eaa578082015181840152602081019050610e8f565b60008484015250505050565b6000610ec182610e70565b610ecb8185610e7b565b9350610edb818560208601610e8c565b610ee481610c6a565b840191505092915050565b610ef881610c2a565b82525050565b600060c083016000830151610f166000860182610e52565b506020830151610f296020860182610e61565b5060408301518482036040860152610f418282610eb6565b9150506060830151610f566060860182610e52565b506080830151610f696080860182610eef565b5060a0830151610f7c60a0860182610e61565b508091505092915050565b60006020820190508181036000830152610fa18184610efe565b905092915050565b610fb281610def565b82525050565b6000602082019050610fcd6000830184610fa9565b92915050565b610fdc81610bbf565b82525050565b600082825260208201905092915050565b6000610ffe82610e70565b6110088185610fe2565b9350611018818560208601610e8c565b61102181610c6a565b840191505092915050565b600060c0820190506110416000830189610fa9565b61104e6020830188610fd3565b81810360408301526110608187610ff3565b905061106f6060830186610fa9565b61107c6080830185610c36565b61108960a0830184610fd3565b979650505050505050565b60006020820190506110a96000830184610fd3565b92915050565b7f4f6e6c792061646d696e2063616e20706572666f726d2074686973206163746960008201527f6f6e000000000000000000000000000000000000000000000000000000000000602082015250565b600061110b602283610fe2565b9150611116826110af565b604082019050919050565b6000602082019050818103600083015261113a816110fe565b9050919050565b7f4e487b7100000000000000000000000000000000000000000000000000000000600052601160045260246000fd5b600061117b82610def565b91507fffffffffffffffffffffffffffffffffffffffffffffffffffffffffffffffff82036111ad576111ac611141565b5b600182019050919050565b7f4e487b7100000000000000000000000000000000000000000000000000000000600052602260045260246000fd5b600060028204905060018216806111ff57607f821691505b602082108103611212576112116111b8565b5b50919050565b60008190508160005260206000209050919050565b60006020601f8301049050919050565b600082821b905092915050565b60006008830261127a7fffffffffffffffffffffffffffffffffffffffffffffffffffffffffffffffff8261123d565b611284868361123d565b95508019841693508086168417925050509392505050565b6000819050919050565b60006112c16112bc6112b784610def565b61129c565b610def565b9050919050565b6000819050919050565b6112db836112a6565b6112ef6112e7826112c8565b84845461124a565b825550505050565b600090565b6113046112f7565b61130f8184846112d2565b505050565b5b81811015611333576113286000826112fc565b600181019050611315565b5050565b601f8211156113785761134981611218565b6113528461122d565b81016020851015611361578190505b61137561136d8561122d565b830182611314565b50505b505050565b600082821c905092915050565b600061139b6000198460080261137d565b1980831691505092915050565b60006113b4838361138a565b9150826002028217905092915050565b6113cd82610e70565b67ffffffffffffffff8111156113e6576113e5610c7b565b5b6113f082546111e7565b6113fb828285611337565b600060209050601f83116001811461142e576000841561141c578287015190505b61142685826113a8565b86555061148e565b601f19841661143c86611218565b60005b828110156114645784890151825560018201915060208501945060208101905061143f565b86831015611481578489015161147d601f89168261138a565b8355505b6001600288020188555050505b505050505050565b600060208201905081810360008301526114b08184610ff3565b905092915050565b7f4f6e6c7920706174656e74206f666669636572732063616e20706572666f726d60008201527f207468697320616374696f6e0000000000000000000000000000000000000000602082015250565b6000611514602c83610fe2565b915061151f826114b8565b604082019050919050565b6000602082019050818103600083015261154381611507565b9050919050565b7f506174656e7420646f6573206e6f742065786973740000000000000000000000600082015250565b6000611580601583610fe2565b915061158b8261154a565b602082019050919050565b600060208201905081810360008301526115af81611573565b9050919050565b7f506174656e7420616c726561647920617070726f766564000000000000000000600082015250565b60006115ec601783610fe2565b91506115f7826115b6565b602082019050919050565b6000602082019050818103600083015261161b816115df565b905091905056fea2646970667358221220bcb0cc72b7562d97e30777c140691709afdd8427b1a38052725c6a68a61e748f64736f6c63430008130033",
  "linkReferences": {},
  "deployedLinkReferences": {}
}