{
  "_format": "hh-sol-artifact-1",
  "contractName": "IPProtection",
  "sourceName": "contracts/IPProtection.sol",
  "abi": [
    {
      "inputs": [],
      "stateMutability": "nonpayable",
      "type": "constructor"
    },
    {
      "anonymous": false,
      "inputs": [
        {
          "indexed": true,
          "internalType": "uint256",
          "name": "id",
          "type": "uint256"
        },
        {
          "indexed": true,
          "internalType": "address",
          "name": "approvedBy",
          "type": "address"
        }
      ],
      "name": "PatentApproved",
      "type": "event"
    },
    {
      "anonymous": false,
      "inputs": [
        {
          "indexed": true,
          "internalType": "uint256",
          "name": "id",
          "type": "uint256"
        },
        {
          "indexed": true,
          "internalType": "address",
          "name": "owner",
          "type": "address"
        },
        {
          "indexed": false,
          "internalType": "string",
          "name": "ipfsHash",
          "type": "string"
        }
      ],
      "name": "PatentFiled",
      "type": "event"
    },
    {
      "inputs": [],
      "name": "FILING_FEE",
      "outputs": [
        {
          "internalType": "uint256",
          "name": "",
          "type": "uint256"
        }
      ],
      "stateMutability": "view",
      "type": "function"
    },
    {
      "inputs": [],
      "name": "admin",
      "outputs": [
        {
          "internalType": "address",
          "name": "",
          "type": "address"
        }
      ],
      "stateMutability": "view",
      "type": "function"
    },
    {
      "inputs": [
        {
          "internalType": "string",
          "name": "ipfsHash",
          "type": "string"
        }
      ],
      "name": "filePatent",
      "outputs": [],
      "stateMutability": "payable",
      "type": "function"
    },
    {
      "inputs": [],
      "name": "patentCount",
      "outputs": [
        {
          "internalType": "uint256",
          "name": "",
          "type": "uint256"
        }
      ],
      "stateMutability": "view",
      "type": "function"
    },
    {
      "inputs": [
        {
          "internalType": "address",
          "name": "",
          "type": "address"
        }
      ],
      "name": "patentOfficers",
      "outputs": [
        {
          "internalType": "bool",
          "name": "",
          "type": "bool"
        }
      ],
      "stateMutability": "view",
      "type": "function"
    },
    {
      "inputs": [
        {
          "internalType": "uint256",
          "name": "",
          "type": "uint256"
        }
      ],
      "name": "patents",
      "outputs": [
        {
          "internalType": "uint256",
          "name": "id",
          "type": "uint256"
        },
        {
          "internalType": "address",
          "name": "owner",
          "type": "address"
        },
        {
          "internalType": "string",
          "name": "ipfsHash",
          "type": "string"
        },
        {
          "internalType": "uint256",
          "name": "timestamp",
          "type": "uint256"
        },
        {
          "internalType": "bool",
          "name": "isApproved",
          "type": "bool"
        },
        {
          "internalType": "address",
          "name": "approvedBy",
          "type": "address"
        }
      ],
      "stateMutability": "view",
      "type": "function"
    }
  ],
  "bytecode": "0x608060405234801561001057600080fd5b5033600360006101000a81548173ffffffffffffffffffffffffffffffffffffffff021916908373ffffffffffffffffffffffffffffffffffffffff160217905550610daa806100616000396000f3fe6080604052600436106100555760003560e01c80631744afec1461005a578063226e595214610097578063b084c841146100b3578063e26becc2146100de578063f422bc6814610109578063f851a4401461014b575b600080fd5b34801561006657600080fd5b50610081600480360381019061007c9190610595565b610176565b60405161008e91906105dd565b60405180910390f35b6100b160048036038101906100ac919061073e565b610196565b005b3480156100bf57600080fd5b506100c86103db565b6040516100d591906107a0565b60405180910390f35b3480156100ea57600080fd5b506100f36103e1565b60405161010091906107a0565b60405180910390f35b34801561011557600080fd5b50610130600480360381019061012b91906107e7565b6103ec565b604051610142969594939291906108a2565b60405180910390f35b34801561015757600080fd5b506101606104fd565b60405161016d919061090a565b60405180910390f35b60016020528060005260406000206000915054906101000a900460ff1681565b662386f26fc1000034146101df576040517f08c379a00000000000000000000000000000000000000000000000000000000081526004016101d690610971565b60405180910390fd5b6000815111610223576040517f08c379a000000000000000000000000000000000000000000000000000000000815260040161021a906109dd565b60405180910390fd5b60006002600081548092919061023890610a2c565b9190505590506040518060c001604052808281526020013373ffffffffffffffffffffffffffffffffffffffff168152602001838152602001428152602001600015158152602001600073ffffffffffffffffffffffffffffffffffffffff168152506000808381526020019081526020016000206000820151816000015560208201518160010160006101000a81548173ffffffffffffffffffffffffffffffffffffffff021916908373ffffffffffffffffffffffffffffffffffffffff16021790555060408201518160020190816103139190610c80565b506060820151816003015560808201518160040160006101000a81548160ff02191690831515021790555060a08201518160040160016101000a81548173ffffffffffffffffffffffffffffffffffffffff021916908373ffffffffffffffffffffffffffffffffffffffff1602179055509050503373ffffffffffffffffffffffffffffffffffffffff16817f7b5bb19767f561f12770dad2c81e5f835f07f7996819f618604ee536a05e8719846040516103cf9190610d52565b60405180910390a35050565b60025481565b662386f26fc1000081565b60006020528060005260406000206000915090508060000154908060010160009054906101000a900473ffffffffffffffffffffffffffffffffffffffff169080600201805461043b90610aa3565b80601f016020809104026020016040519081016040528092919081815260200182805461046790610aa3565b80156104b45780601f10610489576101008083540402835291602001916104b4565b820191906000526020600020905b81548152906001019060200180831161049757829003601f168201915b5050505050908060030154908060040160009054906101000a900460ff16908060040160019054906101000a900473ffffffffffffffffffffffffffffffffffffffff16905086565b600360009054906101000a900473ffffffffffffffffffffffffffffffffffffffff1681565b6000604051905090565b600080fd5b600080fd5b600073ffffffffffffffffffffffffffffffffffffffff82169050919050565b600061056282610537565b9050919050565b61057281610557565b811461057d57600080fd5b50565b60008135905061058f81610569565b92915050565b6000602082840312156105ab576105aa61052d565b5b60006105b984828501610580565b91505092915050565b60008115159050919050565b6105d7816105c2565b82525050565b60006020820190506105f260008301846105ce565b92915050565b600080fd5b600080fd5b6000601f19601f8301169050919050565b7f4e487b7100000000000000000000000000000000000000000000000000000000600052604160045260246000fd5b61064b82610602565b810181811067ffffffffffffffff8211171561066a57610669610613565b5b80604052505050565b600061067d610523565b90506106898282610642565b919050565b600067ffffffffffffffff8211156106a9576106a8610613565b5b6106b282610602565b9050602081019050919050565b82818337600083830152505050565b60006106e16106dc8461068e565b610673565b9050828152602081018484840111156106fd576106fc6105fd565b5b6107088482856106bf565b509392505050565b600082601f830112610725576107246105f8565b5b81356107358482602086016106ce565b91505092915050565b6000602082840312156107545761075361052d565b5b600082013567ffffffffffffffff81111561077257610771610532565b5b61077e84828501610710565b91505092915050565b6000819050919050565b61079a81610787565b82525050565b60006020820190506107b56000830184610791565b92915050565b6107c481610787565b81146107cf57600080fd5b50565b6000813590506107e1816107bb565b92915050565b6000602082840312156107fd576107fc61052d565b5b600061080b848285016107d2565b91505092915050565b61081d81610557565b82525050565b600081519050919050565b600082825260208201905092915050565b60005b8381101561085d578082015181840152602081019050610842565b60008484015250505050565b600061087482610823565b61087e818561082e565b935061088e81856020860161083f565b61089781610602565b840191505092915050565b600060c0820190506108b76000830189610791565b6108c46020830188610814565b81810360408301526108d68187610869565b90506108e56060830186610791565b6108f260808301856105ce565b6108ff60a0830184610814565b979650505050505050565b600060208201905061091f6000830184610814565b92915050565b7f496e636f72726563742066696c696e6720666565000000000000000000000000600082015250565b600061095b60148361082e565b915061096682610925565b602082019050919050565b6000602082019050818103600083015261098a8161094e565b9050919050565b7f4950465320686173682063616e6e6f7420626520656d70747900000000000000600082015250565b60006109c760198361082e565b91506109d282610991565b602082019050919050565b600060208201905081810360008301526109f6816109ba565b9050919050565b7f4e487b7100000000000000000000000000000000000000000000000000000000600052601160045260246000fd5b6000610a3782610787565b91507fffffffffffffffffffffffffffffffffffffffffffffffffffffffffffffffff8203610a6957610a686109fd565b5b600182019050919050565b7f4e487b7100000000000000000000000000000000000000000000000000000000600052602260045260246000fd5b60006002820490506001821680610abb57607f821691505b602082108103610ace57610acd610a74565b5b50919050565b60008190508160005260206000209050919050565b60006020601f8301049050919050565b600082821b905092915050565b600060088302610b367fffffffffffffffffffffffffffffffffffffffffffffffffffffffffffffffff82610af9565b610b408683610af9565b95508019841693508086168417925050509392505050565b6000819050919050565b6000610b7d610b78610b7384610787565b610b58565b610787565b9050919050565b6000819050919050565b610b9783610b62565b610bab610ba382610b84565b848454610b06565b825550505050565b600090565b610bc0610bb3565b610bcb818484610b8e565b505050565b5b81811015610bef57610be4600082610bb8565b600181019050610bd1565b5050565b601f821115610c3457610c0581610ad4565b610c0e84610ae9565b81016020851015610c1d578190505b610c31610c2985610ae9565b830182610bd0565b50505b505050565b600082821c905092915050565b6000610c5760001984600802610c39565b1980831691505092915050565b6000610c708383610c46565b9150826002028217905092915050565b610c8982610823565b67ffffffffffffffff811115610ca257610ca1610613565b5b610cac8254610aa3565b610cb7828285610bf3565b600060209050601f831160018114610cea5760008415610cd8578287015190505b610ce28582610c64565b865550610d4a565b601f198416610cf886610ad4565b60005b82811015610d2057848901518255600182019150602085019450602081019050610cfb565b86831015610d3d5784890151610d39601f891682610c46565b8355505b6001600288020188555050505b505050505050565b60006020820190508181036000830152610d6c8184610869565b90509291505056fea26469706673582212209276c5cf5b685cad5f8bb82b48852459f2b4f39c4c64a1f69969ec6583f9cc8f64736f6c63430008130033",
  "linkReferences": {},
  "deployedLinkReferences": {}
}